:100000000C943B010C946C010C946C010C946C01ED
:100010000C946C010C946C010C946C010C946C01AC
:100020000C946C010C946C010C946C010C946C019C
:100030000C946C010C946C010C946C010C946C018C
:100040000C946C010C946C010C946C010C946C017C
:100050000C946C010C946C010C946C010C94430492
:100060000C946C010C940D040C94E3030C946C013F
:100070000C946C010C946C010C946C010C946C014C
:100080000C946C010C946C010C946C010C946C013C
:100090000C946C010C946C010C946C010C946C012C
:1000A0000C946C010C946C010C946C010C946C011C
:1000B0000C946C010C946C010C946C010C946C010C
:1000C0000C946C010C946C010C946C010C946C01FC
:1000D0000C946C010C946C010C946C010C946C01EC
:1000E0000C946C010C94AA010C9406030C946E0100
:1000F0000C948D040C9415030C94DF030C940C02E7
:100100000C9491020C9400030C9437030C94330369
:100110000C940A030C941F030C94BE010C94DB0393
:100120000C9444020C94B3030C949B010C940E03A6
:100130000C9412030C9440030C9445030C94250377
:100140000C9429030C941B030C9441030C942D0371
:100150000C943B03000020002300260029002C0003
:100160002F00320000010000030106010901000018
:100170002100240027002A002D0030003300010157
:100180000000040107010A010000220025002800E8
:100190002B002E003100340002010000050108018F
:1001A0000B010505050507050808080802020202FB
:1001B0000A0A080804040404010101010101010103
:1001C0000303030303030303040707070C0C0C0CCE
:1001D0000C0C0C0C020202020606060606060606B7
:1001E0000B0B0B0B0B0B0B0B010210202008081044
:1001F0002040102040800201020108040201010297
:10020000040810204080804020100804020180046F
:1002100002018040201008040201080402010102CA
:1002200004081020408001020408102040800000D3
:100230000A0B02090C0D0E08070304010000000060
:1002400000000000000000000000000000000000AE
:10025000000000000000000000001211100000006B
:10026000000000000000000000000000000000008E
:10027000000000008D0411241FBECFEFD1E2DEBFCD
:10028000CDBF00E00CBF23E0A6E4B2E001C01D92A8
:10029000AC35B207E1F712E0A0E0B2E0E6EEFCE038
:1002A00000E00BBF02C007900D92A634B107D9F74A
:1002B00011E0CBE3D1E000E006C021970109802FD7
:1002C000FE010E946906CA33D10780E00807A9F73A
:1002D0000E941A050C9471060C940000AF92BF9214
:1002E000CF92DF92EF92FF920F931F93CF93DF9302
:1002F0006C017B018B01040F151FEB015E01AE1831
:10030000BF08C017D10759F06991D601ED91FC9152
:100310000190F081E02DC6011995892B79F7C5016F
:10032000DF91CF911F910F91FF90EF90DF90CF90D1
:10033000BF90AF900895FC01538D448D252F30E080
:10034000842F90E0821B930B541710F0CF960895E2
:1003500001970895FC01918D828D981761F0A28D0F
:10036000AE0FBF2FB11D5D968C91928D9F5F9F73D5
:10037000928F90E008958FEF9FEF0895FC01918D8B
:10038000828D981731F0828DE80FF11D858D90E0F8
:1003900008958FEF9FEF08952FB7F89480914C0246
:1003A00090914D02A0914E02B0914F022FBF8093C9
:1003B000580290935902A0935A02B0935B0280E5D1
:1003C00092E00E94BE0197FF26C02FB7F89480915B
:1003D0004C0290914D02A0914E02B0914F022FBF5E
:1003E000409158025091590260915A0270915B02FB
:1003F000841B950BA60BB70B4091540250915502EC
:10040000609156027091570284179507A607B707A7
:10041000B0F28FEF9FEF0895FC01918D228D892F0F
:1004200090E0805C9F4F821B91098F7399270895FC
:1004300080E592E00E940C0221E0892B09F420E083
:10044000822F0895FC01A48DA80FB92FB11DA35AC6
:10045000BF4F2C91848D90E001968F739927848FE4
:10046000A689B7892C93A089B1898C918370806407
:100470008C93938D848D981306C00288F389E02DA8
:1004800080818F7D80830895EF92FF920F931F9359
:10049000CF93DF93EC0181E0888F9B8D8C8D981337
:1004A0001AC0E889F989808185FF15C09FB7F89443
:1004B000EE89FF896083E889F9898081837080648F
:1004C00080839FBF81E090E0DF91CF911F910F91DA
:1004D000FF90EF900895F62E0B8D10E00F5F1F4FE9
:1004E0000F731127E02E8C8D8E110CC00FB607FCF8
:1004F000FACFE889F989808185FFF5CFCE010E9486
:100500002202F1CFEB8DEC0FFD2FF11DE35AFF4FCF
:10051000F0829FB7F8940B8FEA89FB898081806213
:10052000CFCFCF93DF93EC01888D8823B9F0AA89D0
:10053000BB89E889F9898C9185FD03C0808186FD9E
:100540000DC00FB607FCF7CF8C9185FFF2CF8081ED
:1005500085FFEDCFCE010E942202E9CFDF91CF913E
:10056000089580E090E0892B29F00E941802811103
:100570000E94000080E090E0892B49F080E090E04C
:10058000892B29F00E94000081110E94000080E068
:1005900090E0892B49F080E090E0892B29F00E94BF
:1005A000000081110E94000080E090E0892B49F05A
:1005B00080E090E0892B29F00E94000081110C94CA
:1005C000000008958150823108F05AC0E82FF0E011
:1005D0008827E251FD4F8F4F0C9469060E031203DA
:1005E000000306030A03400315031B031F0325032F
:1005F00029032D033303370340033B034103450322
:10060000809180008F778093800008958091800092
:100610008F7DF9CF80918000877FF5CF84B58F776C
:1006200084BD089584B58F7DFBCF8091B0008F7716
:100630008093B00008958091B0008F7DF9CF8091B4
:1006400090008F77809390000895809190008F7D27
:10065000F9CF80919000877FF5CF8091A0008F77B0
:100660008093A00008958091A0008F7DF9CF8091A4
:10067000A000877FF5CF809120018F7780932001A4
:100680000895809120018F7DF9CF80912001877F8F
:10069000F5CF1F93CF93DF93282F30E0F901E25D70
:1006A000FD4F8491F901E851FE4FD491F901EE55C7
:1006B000FE4FC491CC23A9F0162F81110E94E202B3
:1006C000EC2FF0E0EE0FFF1FE857FE4FA591B4911D
:1006D0008FB7F894EC91111108C0D095DE23DC930C
:1006E0008FBFDF91CF911F910895DE2BF8CFCF936D
:1006F000DF9390E0FC01E851FE4F24918E559E4F10
:10070000FC0184918823C9F090E0880F991FFC01B7
:10071000E259FE4FA591B491FC01E857FE4FC591F7
:10072000D49161110DC09FB7F8948C9120958223CC
:100730008C938881282328839FBFDF91CF910895D0
:10074000623051F49FB7F8943C91822F80958323B7
:100750008C93E8812E2BEFCF8FB7F894EC912E2B52
:100760002C938FBFEACFCF93DF9370E0FB01E25D64
:10077000FD4F8491FB01E851FE4FD4916E557E4FA1
:10078000FB01C491CC23A1F081110E94E202EC2F65
:10079000F0E0EE0FFF1FEC5AFE4FA591B491EC91E3
:1007A000ED2381E090E009F480E0DF91CF9108959E
:1007B00080E090E0FACF862F642F0C944903862FB7
:1007C000642F0C9477031F920F920FB60F9211248F
:1007D0000BB60F922F933F934F935F936F937F933B
:1007E0008F939F93AF93BF93EF93FF9380E592E036
:1007F0000E942202FF91EF91BF91AF919F918F9143
:100800007F916F915F914F913F912F910F900BBE10
:100810000F900FBE0F901F9018951F920F920FB65A
:100820000F9211240BB60F922F938F939F93EF93F8
:10083000FF93E0916002F09161028081E091660295
:10084000F091670282FD1DC09081809169028F5FE7
:100850008F7320916A02821741F0E0916902F0E003
:10086000E05BFD4F958F80936902FF91EF919F911F
:100870008F912F910F900BBE0F900FBE0F901F9076
:1008800018958081F2CF1F920F920FB60F9211240C
:100890002F933F938F939F93AF93BF9380914C027D
:1008A00090914D02A0914E02B0914F0230914A02B8
:1008B00023E0230F2D3758F50196A11DB11D20937C
:1008C0004A0280934C0290934D02A0934E02B09343
:1008D0004F028091460290914702A0914802B09148
:1008E00049020196A11DB11D8093460290934702D3
:1008F000A0934802B0934902BF91AF919F918F910D
:100900003F912F910F900FBE0F901F90189526E8E2
:10091000230F0296A11DB11DD2CF10925302109247
:10092000520288EE93E0A0E0B0E0809354029093EE
:100930005502A0935602B09357028CE192E0909337
:1009400051028093500285EC90E090935D02809379
:100950005C0284EC90E090935F0280935E0280ECF6
:1009600090E0909361028093600281EC90E090931C
:1009700063028093620282EC90E090936502809320
:10098000640286EC90E09093670280936602109276
:10099000690210926A0210926B0210926C0210921D
:1009A000EF021092F3021092F2021092F4028EE221
:1009B00092E09093EE028093ED02E9E0F3E0108282
:1009C000148213821582369683E0E534F807B9F76E
:1009D00084E092E09093500380934F0380E092E094
:1009E000909352038093510384E080935303809348
:1009F000540388E092E090934E0380934D038AE085
:100A000090E0909356038093550384EF91E0909388
:100A100058038093570310925B0310925A0310926D
:100A2000490310924A0310924B0310924C03109208
:100A300059030895789484B5826084BD84B581603B
:100A400084BD85B5826085BD85B5816085BD809199
:100A50006E00816080936E00109281008091810011
:100A60008260809381008091810081608093810009
:100A7000809180008160809380008091B1008460CB
:100A80008093B1008091B00081608093B00080912C
:100A900091008260809391008091910081608093A9
:100AA0009100809190008160809390008091A100DE
:100AB00082608093A1008091A10081608093A10059
:100AC0008091A00081608093A000809121018260CC
:100AD0008093210180912101816080932101809187
:100AE000200181608093200180917A00846080934E
:100AF0007A0080917A00826080937A0080917A00F7
:100B0000816080937A0080917A00806880937A0077
:100B10001092C100E0916002F091610282E0808356
:100B2000E0915C02F0915D021082E0915E02F09132
:100B30005F028FEC808310926802E0916402F09172
:100B4000650286E08083E0916202F0916302808119
:100B500080618083E0916202F0916302808188600D
:100B60008083E0916202F0916302808180688083DB
:100B7000E0916202F091630280818F7D8083C2E008
:100B800061E08C2F0E947703CF5FCB30C9F780E5FF
:100B900092E00E940C02181619060CF05BC00E942D
:100BA000CC01FC0197FD60C08D32910521F0C0970A
:100BB0000A9708F052C0C12CD12C7601C0E0E13078
:100BC000F105D9F0ED32F10509F44CC0CF01C09721
:100BD0000A9798F4AAE0B0E0A70196010E944F0698
:100BE0006F01FF0FEE08FF08C60ED71EE81EF91EA4
:100BF00080E3C81AD108E108F10880E592E00E947C
:100C0000AA010E94CC01FC01C0970A97C0F2E13012
:100C1000F105A9F2CC2341F0F094E094D094C09473
:100C2000C11CD11CE11CF11CCC2DC0924B02D2E0A6
:100C3000CA30F0F04EE050E064E372E080E592E00C
:100C40000E946E0142E050E063E472E080E592E0D1
:100C50000E946E010E94B1029ACF80E592E00E944C
:100C6000AA019DCFC1E0C9CFC12CD12C7601DCCF28
:100C700060E08D2F0E944903DF5FDB30C9F7EC2E67
:100C8000F12CC2E0D0E08FEFE81AF80AEC16FD066E
:100C90000CF361E08C2F0E9449032196F7CF0E944C
:100CA0005A06A59F900DB49F900DA49F800D911D95
:100CB00011240895A29FB001B39FC001A39F700D9E
:100CC000811D1124911DB29F700D811D1124911D54
:100CD0000895EE0FFF1F881F8BBF0790F691E02D40
:060CE0001994F894FFCF07
:100CE6001A1B1C1D161718193738392F3435362A92
:100CF6003132332D43303D2B0000000044026E019B
:100D06009B0191020C02AA01BE0100000000DF0354
:100D1600DB03B303496E76616C6964204E756D62C0
:060D26006572000D0A00D9
:00000001FF
