:100000000C94D1010C9402020C9402020C94020292
:100010000C9402020C9402020C9402020C94020250
:100020000C9402020C9402020C9402020C94020240
:100030000C9402020C9402020C9402020C94020230
:100040000C9402020C9402020C9402020C94020220
:100050000C9402020C9402020C9402020C94B70A53
:100060000C9402020C94810A0C94570A0C9402021C
:100070000C9402020C9402020C9402020C940202F0
:100080000C9402020C9402020C9402020C940202E0
:100090000C9402020C9402020C9402020C94010BC8
:1000A0000C9402020C9402020C9402020C940202C0
:1000B0000C9402020C9402020C9402020C940202B0
:1000C0000C9402020C9402020C9402020C940202A0
:1000D0000C9402020C9402020C9402020C94020290
:1000E0000C9402020C94FE060C9478060C9499036E
:1000F0000C94B1030C94C4030C946E020C94900203
:100100000C949A060C9484030C94C5030C94C903B4
:100110000C94A9030C94BF030C9427040C9467045B
:100120000C9454080C94BB030C9477060C94250C87
:100130000C9482020C94FD060C94A1060C949F036F
:100140000C9487060C9428020C94A3030C942702A9
:100150000C9496030C945F020C94AD030C9429024A
:100160000C9498120C94C8020C94F6030C94CE06CE
:100170000C948A030C9415030C9492030C948E0334
:100180000C94B70300407A10F35A00A0724E18097D
:100190000010A5D4E80000E87648170000E40B54EE
:1001A000020000CA9A3B000000E1F50500008096BD
:1001B0009800000040420F000000A08601000000EF
:1001C000102700000000E8030000000064000000A9
:1001D00000000A00000000000100000000002C7672
:1001E000D888DC674F0823DFC1DFAE59E1B1B7968D
:1001F000E5E3E453C63AE651997696E8E6C28426EA
:10020000EB898C9B62ED407C6FFCEFBC9C9F40F2C5
:10021000BAA56FA5F490055A2AF75C936B6CF96741
:100220006DC11BFCE0E40D47FEF520E6B500D0ED06
:10023000902E0300943577050080841E080000206E
:100240004E0A000000C80C333333330F986E12830C
:100250001141EF8D2114893BE65516CFFEE6DB18E0
:10026000D1844B381BF77C1D901DA4BBE4242032A5
:1002700084725E228100C9F124ECA1E53D270000D3
:100280002100240027002A002D0030003300010146
:100290000000040107010A010000220025002800D7
:1002A0002B002E003100340002010000050108017E
:1002B0000B01000020002300260029002C002F0045
:1002C00032000001000003010601090105050505D2
:1002D000070508080808020202020A0A08080404BE
:1002E00004040101010101010101030303030303EC
:1002F0000303040707070C0C0C0C0C0C0C0C02027B
:10030000020206060606060606060B0B0B0B0B0B77
:100310000B0B010210202008081020401020408004
:1003200002010201080402010102040810204080B9
:100330008040201008040201800402018040201047
:100340000804020108040201010204081020408090
:10035000010204081020408000000A0B02090C0D65
:100360000E08070304010000000000000000000068
:10037000000000000000000000000000000000007D
:10038000000000001211100000000000000000003A
:100390000000000000000000000000000000250C2C
:1003A000981211241FBECFEFD1E2DEBFCDBF00E017
:1003B0000CBF24E0ACEAB2E001C01D92A33CB2073E
:1003C000E1F712E0A0E0B2E0E8ECF2E300E00BBFFE
:1003D00002C007900D92AC3AB107D9F711E0C0ED19
:1003E000D1E000E006C021970109802FFE010E94A4
:1003F0002017CF3CD10780E00807A9F70E94F50C31
:100400000C9452190C94000096E0899FD00111249D
:10041000A05BBB4F90967C936E935F9791E0919613
:100420009C939197E091BD04F091BE049091BC041F
:10043000992339F0309751F0811108C080916C04F4
:100440001994309719F05C968C91FACF089508951D
:100450000895AF92BF92CF92DF92EF92FF920F93E7
:100460001F93CF93DF936C017B018B01040F151F4A
:10047000EB015E01AE18BF08C017D10759F06991B2
:10048000D601ED91FC910190F081E02DC601199506
:10049000892B79F7C501DF91CF911F910F91FF90C3
:1004A000EF90DF90CF90BF90AF900895FC01448112
:1004B00055816081718188E394E00C942902FC01EC
:1004C000538D448D252F30E0842F90E0821B930BB9
:1004D000541710F0CF96089501970895FC01918D5F
:1004E000828D981761F0A28DAE0FBF2FB11D5D9662
:1004F0008C91928D9F5F9F73928F90E008958FEF04
:100500009FEF0895FC01918D828D981731F0828DB7
:10051000E80FF11D858D90E008958FEF9FEF08950E
:10052000FC01918D228D892F90E0805C9F4F821B72
:1005300091098F739927089589E893E00E949002AA
:1005400021E0892B09F420E0822F0895FC01A48D7D
:10055000A80FB92FB11DA35ABF4F2C91848D90E0E5
:1005600001968F739927848FA689B7892C93A089C8
:10057000B1898C91837080648C93938D848D981352
:1005800006C00288F389E02D80818F7D80830895E5
:10059000EF92FF920F931F93CF93DF93EC0181E0D3
:1005A000888F9B8D8C8D98131AC0E889F98980817A
:1005B00085FF15C09FB7F894EE89FF896083E889AD
:1005C000F98980818370806480839FBF81E090E09F
:1005D000DF91CF911F910F91FF90EF900895F62E2C
:1005E0000B8D10E00F5F1F4F0F731127E02E8C8DC6
:1005F0008E110CC00FB607FCFACFE889F98980810B
:1006000085FFF5CFCE010E94A602F1CFEB8DEC0F56
:10061000FD2FF11DE35AFF4FF0829FB7F8940B8F27
:10062000EA89FB8980818062CFCFCF93DF93EC0191
:10063000888D8823B9F0AA89BB89E889F9898C91CA
:1006400085FD03C0808186FD0DC00FB607FCF7CF86
:100650008C9185FFF2CF808185FFEDCFCE010E9486
:10066000A602E9CFDF91CF91089580E090E0892B39
:1006700029F00E949C0281110E94000080E090E01D
:10068000892B49F080E090E0892B29F00E9400003E
:1006900081110E94000080E090E0892B49F080E009
:1006A00090E0892B29F00E94000081110E94000037
:1006B00080E090E0892B49F080E090E0892B29F0E0
:1006C0000E94000081110C94000008958150823135
:1006D00008F05AC0E82FF0E08827EE58FC4F8F4F03
:1006E0000C9420179203960384038A038E03C40399
:1006F00099039F03A303A903AD03B103B703BB038E
:10070000C403BF03C503C903809180008F77809322
:1007100080000895809180008F7DF9CF80918000C6
:10072000877FF5CF84B58F7784BD089584B58F7D9D
:10073000FBCF8091B0008F778093B00008958091B7
:10074000B0008F7DF9CF809190008F7780939000DB
:100750000895809190008F7DF9CF80919000877FE0
:10076000F5CF8091A0008F778093A00008958091AD
:10077000A0008F7DF9CF8091A000877FF5CF809179
:1007800020018F77809320010895809120018F7D33
:10079000F9CF80912001877FF5CFCF93DF93282F6A
:1007A00030E0F901E85AFC4F8491F901EE5EFC4F0C
:1007B000D491F901E453FD4FC491CC23A1F08111F0
:1007C0000E946603EC2FF0E0EE0FFF1FEE54FD4F8A
:1007D000A591B491EC91ED2381E090E009F480E0E3
:1007E000DF91CF91089580E090E0FACF862F0C94AE
:1007F000CD031F93CF93DF93282F30E0F901E85A00
:10080000FC4F8491F901EE5EFC4FD491F901E45361
:10081000FD4FC491CC23A9F0162F81110E946603CD
:10082000EC2FF0E0EE0FFF1FE856FD4FA591B491BD
:100830008FB7F894EC91111108C0D095DE23DC93AA
:100840008FBFDF91CF911F910895DE2BF8CF862FB8
:10085000642F0C94F903CF93DF9390E0FC01EE5EDC
:10086000FC4F249184539D4FFC0184918823C9F04F
:1008700090E0880F991FFC01E258FD4FA591B491BB
:10088000FC01E856FD4FC591D49161110DC09FB791
:10089000F8948C91209582238C9388812823288337
:1008A0009FBFDF91CF910895623051F49FB7F894C4
:1008B0003C91822F809583238C93E8812E2BEFCF60
:1008C0008FB7F894EC912E2B2C938FBFEACF862F05
:1008D000642F0C942B043FB7F8948091F50290910B
:1008E000F602A091F702B091F80226B5A89B05C0C8
:1008F0002F3F19F00196A11DB11D3FBFBA2FA92F9F
:10090000982F8827BC01CD01620F711D811D911D9B
:1009100042E0660F771F881F991F4A95D1F7089507
:100920008F929F92AF92BF92CF92DF92EF92FF92FF
:100930004B015C010E946B046B017C010E946B0403
:100940006C197D098E099F09683E734081059105E8
:10095000A8F321E0821A9108A108B10888EEC80E18
:1009600083E0D81EE11CF11C81149104A104B104A0
:1009700029F7FF90EF90DF90CF90BF90AF909F90BE
:100980008F9008952FB7F8946091F1027091F20260
:100990008091F3029091F4022FBF08950F931F935B
:1009A000CF93DF93C82FD62F86E0C89FF001112484
:1009B000E05BFB4F11A2878D90A181309105F1F092
:1009C00058F082309105F1F1039709F440C0DF91AE
:1009D000CF911F910F9108956623C9F361E070E0F4
:1009E0008C2F0E9404020E94C2046093A80470939A
:1009F000A9048093AA049093AB04E9CF0E94C20497
:100A00000091A8041091A9042091AA043091AB048C
:100A1000AB01BC01401B510B620B730B8091BA04FC
:100A20009091BB04B0E0A0E084179507A607B70734
:100A300048F462E070E08C2FDF91CF911F910F910D
:100A40000C94040263E070E0D111C1CFF4CF70E0E8
:100A500060E0F1CF2091CD02260F3327331F2132E2
:100A60003105ECF420915F03FC0190E080E024303C
:100A700069F082E00895A091CD022191AC01435527
:100A80005D4FA40FB52FB11D2C930196861798F3D7
:100A90008091CD02680F6093CD0280E0089581E0DF
:100AA000089510925F0381E080935E0310923903F2
:100AB00061E084E10E94F90361E085E10E94F903AD
:100AC000E9EBF0E080818E7F808380818D7F808361
:100AD00088E48093B80085E48093BC000895CF93A8
:100AE000DF9391E09093AC028823B9F0C091B800F5
:100AF000D091BA008091BC008A7B8093BC0060E0FA
:100B000084E10E94F90360E085E10E94F9030E94FC
:100B10005105D093BA00C093B800DF91CF910895EA
:100B2000CF92DF92EF92FF920F931F93CF93DF93B9
:100B3000D091880381E0D13208F09CC0C091870336
:100B40000E946B046B017C0180915F0381116CC07A
:100B500082E080935F0381E080935E038FEF809358
:100B60005D0310925C03D0935B03A7E6B3E0EBE375
:100B7000F3E080E0D8138DC010923A0380913A03DD
:100B8000CC0FC82BC0933A0380913903813009F010
:100B900084C0109239030E946B046B017C01809128
:100BA0003A038093BB008091610390916203A0910E
:100BB0006303B0916403892B8A2B8B2BA1F00E94D5
:100BC0006B040091610310916203209163033091E3
:100BD00064036C197D098E099F09061717072807FA
:100BE000390708F442C08091BC0083FDD8CF85EC62
:100BF0008093BC000E946B046B017C0180915F03B9
:100C0000823009F44CC080915D038F3F09F469C0C4
:100C100080915D03803209F466C080915D0380336A
:100C200009F463C084E026C080916103909162035F
:100C3000A0916303B0916403892B8A2B8B2B09F459
:100C400083CF0E946B040091610310916203209195
:100C50006303309164036C197D098E099F0906179F
:100C600017072807390708F06FCF809160030E94AB
:100C70006F0585E010926603109288031092650359
:100C8000DF91CF911F910F91FF90EF90DF90CF9068
:100C900008959D9191938F5F6DCF85EEA9CF80913F
:100CA000610390916203A0916303B0916403892B67
:100CB0008A2B8B2B09F4A2CF0E946B040091610355
:100CC0001091620320916303309164036C197D09D4
:100CD0008E099F09061717072807390708F08ECFD6
:100CE000C4CF80E0C7CF82E0C5CF83E0C3CF0895F3
:100CF000E091FE028091FD02E81730F4F0E0E1504F
:100D0000FD4F808190E008958FEF9FEF08959091BF
:100D1000FE028091FD022FEF3FEF981748F4E92F74
:100D2000F0E0E150FD4F208130E09F5F9093FE02A4
:100D3000C90108958091FD029091FE02891B990BD3
:100D40000895CF92DF92EF92FF920F931F93CF936C
:100D5000DF937C01CB018A0120916503222389F076
:100D6000EB016B01C40ED51ECC15DD0569F0699150
:100D7000D701ED91FC910190F081E02DC70119950B
:100D8000F3CF642F0E942A05C801DF91CF911F91F4
:100D90000F91FF90EF90DF90CF900895CF93DF9366
:100DA0001F92CDB7DEB76983209165032223F9F046
:100DB00020918803203258F021E030E0FC01338399
:100DC000228390E080E00F90DF91CF910895809191
:100DD0006603E82FF0E0E959FC4F998190838F5F1B
:100DE000809366038093880381E090E0ECCF61E01C
:100DF000CE0101960E942A05F7CF089590E080E089
:100E00000895CF93DF93EC0160E08E810E94F90397
:100E100061E08E810E94F90360E08E810E94F903F7
:100E20008BE891E00197F1F7DF91CF910895CF9290
:100E3000DF92EF92FF920F931F93CF93DF936C019A
:100E40007C0187E0E80EF11CD0E0C0E0062F10E046
:100E5000B8010C2E02C0759567950A94E2F761708F
:100E6000F70181917F010E94F9032196C430D105D9
:100E700079F7C601DF91CF911F910F91FF90EF900D
:100E8000DF90CF900C940107CF92DF92EF92FF9208
:100E90000F931F93CF93DF93EC01F62E642F8C8179
:100EA0000E94F9038D818F3F19F060E00E94F903E1
:100EB0000F2D10E08F8584FF25C06E0187E0C80EDE
:100EC000D11CF12CE12CB8010E2C02C07595679550
:100ED0000A94E2F76170F60181916F010E94F903B3
:100EE000FFEFEF1AFF0A88E0E816F10461F7CE0180
:100EF000DF91CF911F910F91FF90EF90DF90CF90F6
:100F00000C940107B80184E0759567958A95E1F71F
:100F1000CE010E9417076F2DCE01DF91CF911F9157
:100F20000F91FF90EF90DF90CF900C94170740E067
:100F3000682F88E394E00C94440781E00E949707AF
:100F40008BE39FE10197F1F70895CF93DF93823010
:100F500029F49091470498609093470480934B0440
:100F600010924C0480E480934D0480E180934E0401
:100F700080E580934F0461E080913C040E942B0443
:100F800080913D048F3F19F061E00E942B0461E0E5
:100F900080913E040E942B04C8E3D4E09E012853B4
:100FA00034408091470484FD0BC084E090E021969A
:100FB0002817390744F461E08E810E942B04EECF9C
:100FC00088E090E0F4CF8BE39DE00197F1F760E0DB
:100FD00080913C040E94F90360E080913E040E94ED
:100FE000F90380913D048F3F19F060E00E94F903FE
:100FF0008091470484FD34C063E088E394E00E945C
:101000001707CBE4D6E4CE010197F1F763E088E35C
:1010100094E00E9417072197F1F763E088E394E0DA
:101020000E94170783E592E00197F1F762E088E3F9
:1010300094E00E9417078091470480620E949707FE
:1010400084E0809348048CE00E9497070E949D07EB
:1010500082E08093490486E0DF91CF910C9497075A
:1010600080620E9497078BE496E40197F1F78091E4
:10107000470480620E94970783E592E00197F1F7A9
:101080008091470480620E949707D5CF90914B04CE
:10109000891710F08FEF890FE82FF0E0E85CFB4F25
:1010A000848980680C94970741E00E94440781E09E
:1010B00090E00895FC0101900020E9F73197AF011D
:1010C000481B590BBC0188E394E00C9429020F9350
:1010D0001F93CF93DF93EC0188819981009759F09A
:1010E0002A813B812617370730F081E0DF91CF91CD
:1010F0001F910F9108958B016F5F7F4F0E946118C0
:10110000009759F0998388831B830A832C813D8142
:10111000232B59F7FC011082E8CF80E0E7CFCF9373
:10112000DF93EC0188819981009711F00E94D81714
:10113000198218821D821C821B821A82DF91CF9134
:101140000895EF92FF920F931F93CF93DF93EC01DB
:101150007B01198218821B821A821D821C82FB016C
:1011600001900020E9F731978F01061B170BB8019A
:101170000E946708811109C0CE01DF91CF911F91B4
:101180000F91FF90EF900C948F081D830C83B70193
:1011900088819981DF91CF911F910F91FF90EF90FE
:1011A0000C944B19EF92FF920F931F93CF93DF9301
:1011B0008C017B01EB0109900020E9F72197C61B08
:1011C000D70BBE010E946708811109C0C801DF91D9
:1011D000CF911F910F91FF90EF900C948F08F80121
:1011E000D583C483B70180819181DF91CF911F9115
:1011F0000F91FF90EF900C944B19EF92FF920F9389
:101200001F93CF93DF93CDB7DEB7A1970FB6F894B6
:10121000DEBF0FBECDBF7C01CB01BA01F701118249
:10122000108213821282158214828E010F5F1F4F6B
:1012300022E044E00E949C12009789F0BC01C701A3
:101240000E94D208A1960FB6F894DEBF0FBECDBFA4
:10125000DF91CF911F910F91FF90EF900895C701FB
:101260000E948F08EFCFEF92FF920F931F93CF93BF
:10127000DF93EC01FB01E080F180E114F10411F156
:101280000481158101151105A9F08C819D81080F3C
:10129000191FB801CE010E946708882399F02881A0
:1012A00039818C819D81B701820F931F0E944B1958
:1012B0001D830C83CE01DF91CF911F910F91FF9081
:1012C000EF900895CE010E948F08F4CFFC01808139
:1012D0009181009711F00C94D81708950F931F93E4
:1012E000CF93DF93CDB7DEB72C970FB6F894DEBF60
:1012F0000FBECDBF0E949D0780E00E94460860E0BF
:1013000084E00E94F90360E085E00E94F90360E058
:1013100086E00E94F90360E087E00E94F9030091F3
:1013200037031091380301151105A9F461E084E039
:101330000E94F90361E085E00E94F90361E086E024
:101340000E94F90361E087E00E94F90380E692E0E1
:101350000E945A0840C0C8018D7F019709F046C01D
:10136000E0912F03F0913003EE5DFD4F61E080814D
:101370000E94F9030330110509F05BC081E08093FE
:1013800035038CE692E00E945A0881E00E944608EC
:1013900040911F035091200360912103709122031B
:1013A000CE0107960E94FD0866E772E0CE01019625
:1013B0000E94A108BE01695F7F4FCE0101960E9485
:1013C00033090E945602CE0101960E946609CE01A1
:1013D00007960E9466092C960FB6F894DEBF0FBEE2
:1013E000CDBFDF91CF911F910F910895023011056C
:1013F00019F48CE892E0ACCF0430110561F784E970
:1014000092E00E945A0881E00E9446086EE972E06C
:10141000CE0101960E94A10862E374E0CE0101961C
:101420000E9433090E945602CE0101960E9466096D
:10143000D2CF01301105D1F682E892E0A4CF85ED3C
:101440008093BC008091610390916203A09163033B
:10145000B09164030796A11DB11D23E0B695A79531
:10146000979587952A95D1F72091BC0024FD03C05C
:1014700010925F030895409161035091620360915F
:10148000630370916403452B462B472B69F3009748
:10149000A105B10541F025E32A95F1F70000019778
:1014A000A109B109E1CF809160030C946F051F92EF
:1014B0000F920FB60F9211240BB60F922F933F93FA
:1014C0004F935F936F937F938F939F93AF93BF934C
:1014D000EF93FF9389E893E00E94A602FF91EF91BA
:1014E000BF91AF919F918F917F916F915F914F913C
:1014F0003F912F910F900BBE0F900FBE0F901F903A
:1015000018951F920F920FB60F9211240BB60F92DF
:101510002F938F939F93EF93FF93E0919903F09113
:101520009A038081E0919F03F091A00382FD1DC08A
:1015300090818091A2038F5F8F732091A303821704
:1015400041F0E091A203F0E0E757FC4F958F8093C4
:10155000A203FF91EF919F918F912F910F900BBE5E
:101560000F900FBE0F901F9018958081F2CF1F92A1
:101570000F920FB60F9211242F933F938F939F9347
:10158000AF93BF938091F1029091F202A091F30288
:10159000B091F4023091F00223E0230F2D3758F57B
:1015A0000196A11DB11D2093F0028093F10290934A
:1015B000F202A093F302B093F4028091F5029091AD
:1015C000F602A091F702B091F8020196A11DB11D9B
:1015D0008093F5029093F602A093F702B093F8027D
:1015E000BF91AF919F918F913F912F910F900FBE1F
:1015F0000F901F90189526E8230F0296A11DB11D8C
:10160000D2CF1F920F920FB60F9211240BB60F92EA
:101610002F933F934F935F936F937F938F939F93FA
:10162000AF93BF93EF93FF938091B900887F80368B
:1016300009F44DC008F040C0883209F4A9C028F56B
:10164000803109F49DC0C8F4882309F4FBC08830B8
:1016500009F496C0FF91EF91BF91AF919F918F9147
:101660007F916F915F914F913F912F910F900BBEA2
:101670000F900FBE0F901F901895883109F488C005
:10168000803241F780935D0314C0803409F49DC01B
:1016900040F48033B9F38833E9F680935D0385EC39
:1016A000B0C0803509F485C0883509F496C0883407
:1016B00089F60E941F0ACECF883909F48CC038F50C
:1016C000883729F050F4883611F0803719F683E016
:1016D00080935F031092EF0257C0883809F47BC0F3
:1016E000803919F0803809F0B5CF8091EF0280324F
:1016F00008F071C0E091EF0281E08E0F8093EF025D
:101700008091BB00F0E0E153FD4F80833DC0803B02
:1017100039F0E0F4803A09F479C0883A09F09ACFB8
:1017200084E080935F031092CE021092CD02E0918C
:10173000FB02F091FC0219958091CD0281110FC03E
:1017400081E08093CD021092AD0209C0803C09F483
:10175000A6CF883C09F4A3CF883B09F07BCFE0916A
:10176000CE0281E08E0F8093CE02F0E0E355FD4F74
:1017700080818093BB009091CE028091CD0229C0E0
:1017800080913A038093BB0085EC8093BC0062CFCC
:1017900090915C0380915B03981758F5E0915C038E
:1017A00081E08E0F80935C03F0E0E55CFC4F80816C
:1017B000E9CFE0915C0381E08E0F80935C03809120
:1017C000BB00F0E0E55CFC4F808390915C0380916E
:1017D0005B039817C8F285E8D8CFE0915C0381E0FD
:1017E0008E0F80935C038091BB00F0E0E55CFC4FC2
:1017F000808380915E0381115CCF81E08093390307
:1018000084EA8093BC0010925F0324CF85EC809320
:10181000BC0010925F038091EF02803230F4E091BF
:10182000EF02F0E0E153FD4F10826091EF0270E0B3
:10183000E091F902F091FA028FEC92E01995109282
:10184000EF0208CF10925D0334CF10928C031092F8
:101850008B0388EE93E0A0E0B0E080938D0390933B
:101860008E03A0938F03B09390032AE232E030936B
:101870008A032093890325EC30E03093960320936C
:10188000950324EC30E0309398032093970320ECE9
:1018900030E030939A032093990321EC30E03093A9
:1018A0009C0320939B0322EC30E030939E03209313
:1018B0009D0326EC30E03093A00320939F03109209
:1018C000A2031092A3031092A4031092A5031092F6
:1018D00029041092280480932A0490932B04A09347
:1018E0002C04B0932D048CE392E090932704809312
:1018F000260410925204109256041092550410922D
:1019000057048AE592E09093510480935004ECE6EA
:10191000F4E01082148213821582369684E0E83A4D
:10192000F807B9F788E092E09093B3048093B2048B
:1019300084E092E09093B5048093B40484E08093B3
:10194000B6048093B7048CE092E09093B104809346
:10195000B0048AE090E09093B9048093B80484EFD7
:1019600091E09093BB048093BA041092BE0410924D
:10197000BD041092AC041092AD041092AE0410920B
:10198000AF041092BC0410923B0410923A048EE40F
:1019900092E090933904809338048DE080933C0466
:1019A0008FEF80933D048CE080933E048BE0809326
:1019B0003F048AE08093400489E08093410488E0FA
:1019C0008093420410924304109244041092450400
:1019D000109246041092470481E00E94A5076BE62E
:1019E00072E082E394E00C94A108CF93DF9300D0DF
:1019F00000D000D0CDB7DEB7789484B5826084BDC6
:101A000084B5816084BD85B5826085BD85B5816002
:101A100085BD80916E00816080936E001092810080
:101A2000809181008260809381008091810081603B
:101A300080938100809180008160809380008091FC
:101A4000B10084608093B1008091B0008160809388
:101A5000B00080919100826080939100809191000C
:101A600081608093910080919000816080939000CC
:101A70008091A10082608093A1008091A10081608B
:101A80008093A1008091A00081608093A00080914C
:101A900021018260809321018091210181608093E6
:101AA00021018091200181608093200180917A0042
:101AB000846080937A0080917A00826080937A00BB
:101AC00080917A00816080937A0080917A008068AA
:101AD00080937A001092C100E0919903F0919A03EB
:101AE00082E08083E0919503F09196031082E0916B
:101AF0009703F09198038FEC80831092A103E091FB
:101B00009D03F0919E0386E08083E0919B03F0911A
:101B10009C03808180618083E0919B03F0919C0312
:101B2000808188608083E0919B03F0919C03808199
:101B300080688083E0919B03F0919C0380818F7D7E
:101B400080831092FE021092FD02109266031092A2
:101B500088030E94510587E292E09093FC028093F3
:101B6000FB0288E292E09093FA028093F90261E02E
:101B700084E00E942B0461E085E00E942B0461E078
:101B800086E00E942B0461E087E00E942B0482E043
:101B90000E94A5070E949D0780E00E9446086BE610
:101BA00072E082E394E00E94D20882E090E0909399
:101BB0003803809337036091000270E090E080E08A
:101BC0000E944C1560932703709328038093290388
:101BD00090932A031092300310922F030E94C204A4
:101BE00060933103709332038093330390933403F3
:101BF0000E94C204609323037093240380932503FF
:101C00009093260380E090E0A0E4B0E480932B035F
:101C100090932C03A0932D03B0932E0310923503C1
:101C20009E012F5F3F4F790188E0F90111928A955B
:101C3000E9F781E08093650380E58093870360E0A6
:101C400086E294E00E94CE0668E286E294E00E947A
:101C5000CE060E9490050E946B044B015C018091AE
:101C60005F03811165C081E080935F0380935E0311
:101C70009FEF90935D0310925C0397E090935B035A
:101C800080933A0380913A03806A80933A0380916B
:101C90003903813009F0D5C0109239030E946B04DA
:101CA0004B015C0180913A038093BB0080916103FA
:101CB00090916203A0916303B0916403892B8A2BF6
:101CC0008B2BA1F00E946B040091610310916203C1
:101CD0002091630330916403681979098A099B098B
:101CE000061717072807390708F443C08091BC007E
:101CF00083FDD8CF85EC8093BC000E946B044B0120
:101D00005C0180915F03813009F49DC080915C0388
:101D1000883008F0BAC080915C03EBE3F3E0AFEFEA
:101D2000B2E090E0981751F121912D939F5FFACF87
:101D30008091610390916203A0916303B091640369
:101D4000892B8A2B8B2B09F48ACF0E946B0400917C
:101D50006103109162032091630330916403681959
:101D600079098A099B09061717072807390708F018
:101D700076CF809160030E946F0580E01092FE0292
:101D80008093FD0287011E01F9E02F0E311C86E2CF
:101D900094E00E948706F80181938F01E215F30514
:101DA000B1F789818F3F09F47CC0809300028A815A
:101DB000809301028B81809302028D8190E0909349
:101DC0003803809337030E8110E0109330030093A3
:101DD0002F036F8170E090E080E00E944C154B0172
:101DE0005C018092270390922803A0922903B0926D
:101DF0002A0300501E4FF801608170E090E080E0FF
:101E00000E944C1560932B0370932C0380932D0339
:101E100090932E030F5F1F4FC8018050924004978C
:101E2000B4F5F801608170E090E080E00E944E150A
:101E30009B01AC01C501B4010E94FF154B015C017F
:101E4000E9CF85EE58CF8091610390916203A09114
:101E50006303B0916403892B8A2B8B2B09F451CF38
:101E60000E946B040091610310916203209163034F
:101E700030916403681979098A099B0906171707C5
:101E80002807390708F03DCF74CF88E046CF80920D
:101E90001F0390922003A0922103B09222030E947C
:101EA0006E09662463946092BC040E94C20400918F
:101EB000AC041091AD042091AE043091AF04AB019D
:101EC000BC01401B510B620B730B8091B8049091C5
:101ED000B904B0E0A0E084179507A607B70708F09B
:101EE000D8C110E08091B604181760F4E091B204F4
:101EF000F091B304E10FF11D62E080810E942B0498
:101F00001F5FF0CF712C8091B704781608F063C082
:101F1000C72CD12CE091B404F091B504EC0DFD1D5B
:101F200061E080810E942B04E091B404F091B5043B
:101F3000EC0DFD1D60E080810E94F90381E090E0DE
:101F4000A0E0B0E0072C04C0880F991FAA1FBB1F98
:101F50000A94D2F74C015C01A094B094512C80916A
:101F6000B604581608F5052D10E0E091B204F09182
:101F7000B304E00FF11F80810E94CD030C5F1F4F5F
:101F8000000F111FF801E05BFB4F892B41F48081AA
:101F9000918188299929918380835394E0CF80810E
:101FA00091818A219B21F7CFE091B404F091B5048F
:101FB000EC0DFD1D61E080810E94F9038091B40465
:101FC0009091B504C80ED91E60E0F60180810E9490
:101FD0002B04739498CF90E5C92E94E0D92E8601F6
:101FE000F801878D90A1892B31F4148E2FEF3FEFEC
:101FF000368F258F11A20A5F1F4F4CE854E040171F
:10200000510771F7912C8091B604981608F053C0CF
:10201000812CA92CB12CAA0CBB1CC501885A9B4F42
:102020005C012091B704821608F043C0F50160817D
:102030007181082C02C0769567950A94E2F7929E0A
:1020400090011124280D311DE0E5F4E080E0458D7C
:10205000568D2417350709F44AC28F5F36968A30A9
:10206000B1F760FF24C0E0E5F4E090E080E0448D4B
:10207000411118C0E091B004F091B104E20FF31FD8
:10208000408156E0589FF001599FF00D1124E05B0C
:10209000FB4F448F368F258F10A2178E61E00E9470
:1020A000CE0405C0019636968A30910501F78394D7
:1020B000B8CF9394A8CFB12CF60181A18111B82E8D
:1020C000F6E0CF0ED11C0C151D05B1F70E94C2041D
:1020D0006093AC047093AD048093AE049093AF040E
:1020E000BB2009F4D6C080917104882309F4D1C0C3
:1020F00080916F0490917004019709F0CAC010910B
:102100006C041111C9C00E946E090E94C2044B01E7
:102110005C018091230390912403A0912503B09149
:102120002603A5019401281B390B4A0B5B0BDA012E
:10213000C901893C9105A105B1050CF44DC0188673
:102140001F82809100028983809101028A8380919D
:1021500002028B83809103028C83809137038D83ED
:1021600080912F038E8360912703709128038091C3
:10217000290390912A030E94DD166F836092650304
:1021800080E580938703109266031092880360E0D5
:1021900086E294E00E94CE0668E286E294E00E9425
:1021A000CE068701F80161918F0186E294E00E94DA
:1021B000CE0602151305B1F70E94900568EC70E099
:1021C00080E090E00E949004809223039092240388
:1021D000A0922503B092260380913503882309F449
:1021E0007DC180902B0390902C03A0902D03B09084
:1021F0002E030E94C20400913103109132032091FA
:10220000330330913403601B710B820B930B0E94DC
:102210004C1520E030E04AE754E40E946B169B0125
:10222000AC01C501B4010E94FE155B016C01CB013C
:10223000D6018093270390932803A0932903B0939A
:102240002A0300912F03109130034801FFEF8F1AEA
:102250009F0AA9864B2C5C2C7D2C0F5F1F4F0430EE
:1022600011050CF0E0C0F801E050FE4F608170E015
:1022700090E080E00E944E159B01AC016985742DB1
:10228000852D972D0E94FF156987472E582E792E90
:10229000E4CF1092BC0437CF80913703909138037C
:1022A00082309105E9F58FEC810F843080F424E0D1
:1022B00030E030933803209337036BE672E082E31B
:1022C00094E00E94D2081053109336031CCF1D33A4
:1022D00009F019CF43E050E050933803409337039F
:1022E000609235030E94C2046093310370933203FD
:1022F00080933303909334031092300310922F0392
:102300006091000270E090E080E00E944C156093C4
:102310002B0370932C0380932D0390932E03F3CE05
:102320000097D1F41D3309F0EECE82E090E0909357
:1023300038038093370360E084E00E94F90360E093
:1023400085E00E94F90360E086E00E94F90360E006
:1023500087E00E94F903D7CE8130910531F51D3316
:1023600009F0D1CEE3E0F0E0F0933803E0933703D7
:102370008091270390912803A0912903B0912A030B
:1023800080932B0390932C03A0932D03B0932E03E3
:10239000609235030E94C20460933103709332034C
:1023A0008093330390933403AECE8430910509F0CB
:1023B000A0C01D32B1F422E030E030933803209306
:1023C0003703809132049091330460E0009711F05C
:1023D0000E94BA12E0913603F0E0E150FE4F6083B4
:1023E00092CE19831A8200913604109137040F5F40
:1023F0001F4FB80182E394E00E946708882309F424
:1024000082CE209132043091330480913604909131
:102410003704B701820F931F0E944B1910933704A2
:102420000093360470CE8985942DA52DB72D809309
:102430001F0390932003A0932103B093220320E075
:1024400030E0A901B501C6010E94471518160CF429
:1024500045C0C40164E070E00E940C178C019093A9
:10246000300380932F030E94C20460933103709362
:1024700032038093330390933403F801E050FE4F0E
:10248000608170E090E080E00E944C1560932B0327
:1024900070932C0380932D0390932E0310922703A7
:1024A000109228031092290310922A03012BB1F4F1
:1024B00061E084E00E94F90361E085E00E94F90395
:1024C00061E086E00E94F90361E087E00E94F90381
:1024D00010923503109238031092370362E370E0D4
:1024E00080E090E00E9490040E943503DCCC617093
:1024F000D6CD039709F007CE1D3309F004CE41E095
:1025000050E0509338034093370380912703909114
:102510002803A0912903B0912A0380932B03909361
:102520002C03A0932D03B0932E0310923503EBCD13
:1025300082E394E00C946609EF920F931F93CF937C
:10254000DF93E80134E047FD34E1042E000C550B25
:1025500057FF03C0519541955109E32E022F242FB7
:10256000AE010E94F612CE01DF91CF911F910F9123
:10257000EF9008951F93FC0199278827BC01E894E8
:1025800011911032E9F3193010F01E30C8F31B32EC
:1025900051F01D3249F4689406C00E94E112610FA7
:1025A000711D811D911D119110531A30B0F33EF42D
:1025B00090958095709561957F4F8F4F9F4F1F919C
:1025C0000895592F482F372F262F660F771F881F02
:1025D000991F660F771F881F991F620F731F841F33
:1025E000951F660F771F881F991F08958F929F92DE
:1025F000AF92BF92CF92DF92EF92FF920F931F9311
:10260000CF93DF9300D000D000D0CDB7DEB76A0102
:10261000F22EB02E102FFBE3AF2EA01608F41BE312
:102620001F5F012F27E0AE014F5F5F4F0E946F14C5
:10263000BC018981982F9970913009F44EC09BE2BA
:10264000E1FC04C09E2D9170E0FC49C05E2D5071EC
:10265000E82FE87083FF55C084E0911101C083E04A
:10266000EF2DE81B8F1508F0E0E0D6018E2F20E259
:102670005523C9F1992329F0D6019C93C6010196EF
:102680006C0196012D5F3F4FE2FE33C08EE4D60110
:102690008C9391E411969C93119712968C93D90187
:1026A0008E2F90E281112AC0E20FF32FF11D1082CC
:1026B0008EEF9FEF29960FB6F894DEBF0FBECDBF09
:1026C000DF91CF911F910F91FF90EF90DF90CF900E
:1026D000BF90AF909F908F9008959DE2B7CF90E20A
:1026E000B5CF2D9381508111FCCFCE0ED11CE0E0EF
:1026F000C1CF8EE6D6018C9391E6CCCF9D938150CD
:10270000D1CF482F447082FF3DC084E0911101C0B9
:1027100083E08F1510F4EF2DE81BD6018E2F20E2F9
:10272000552309F1992329F0D6019C93C6010196FE
:102730006C0196012D5F3F4FE2FE1BC089E4D6017C
:102740008C938EE411968C93119786E412968C9359
:10275000D9018E2F90E2882309F4A6CF9D93815052
:10276000FACF2D9381508111FCCFCE0ED11CE0E029
:10277000D9CF89E6D6018C938EE611968C9311976A
:1027800086E6E4CF9B0177FF02C030E020E0A1E0C5
:10279000B0E0911102C0B0E0A0E0F9013196AE0FB7
:1027A000BF1F8B2C912CBB2009F461C05401EFEFAB
:1027B000AE1ABE0AAA0DBB1DFA161B0619F014F0BC
:1027C0004F2D4A1B511188C0E3FC59C07601A42F3C
:1027D000B0E2A1114FC0C40ED11C992309F45BC013
:1027E00040E0D6011196F60190836D01552309F45E
:1027F00048C0012F060F9A81582F507184FF03C0E3
:10280000913309F4015010160CF047C0093008F05C
:1028100008E0EEE2FE2E5B01A01AB108850191945A
:10282000819491082F3F320729F4D601FC92F601DA
:1028300031966F016217730794F1021713077CF545
:10284000DB01A21BB30BAA24A394B12CAC0EBD1EBA
:10285000AA0DBB1D11968C9121503109D6011196FC
:1028600028153905F4F0F60180836D01DBCFB12C1A
:10287000A12CA0CFF701B1937F01A150AACF911154
:10288000B0CFD601942F50E302C05D9391509111C7
:10289000FCCFC40ED11C40E0ACCF01E0BACF80E346
:1028A000DBCF6217730731F4963388F4953311F454
:1028B000552369F0F6018083FD01842F90E2811198
:1028C00008C0A40FB11D1C9290E080E0F3CE81E31C
:1028D000F1CF91938150F3CF911183CF8ACF2830DC
:1028E00008F027E03327DA01990F311D87FD916049
:1028F00000966105710539F432602E5F3D9330E337
:102900002A95E1F708959F3F30F080387105610501
:1029100009F03C5F3C5F3D93913008F08068911D69
:10292000DF93CF931F930F93FF92EF92192F987F0E
:102930009695E92F96959695E90FFF27E252FE4F5F
:1029400099273327EE24FF24A701E7010590089477
:10295000079428F4360FE71EF81E491F511D660F15
:10296000771F881F991F0694A1F70590079428F4F4
:10297000E70EF81E491F561FC11D770F881F991FAC
:10298000661F0694A1F70590079428F4F80E491FD6
:10299000561FC71FD11D880F991F661F771F0694EA
:1029A000A1F70590079420F4490F561FC71FD81FA1
:1029B000990F661F771F881F0694A9F784911095B9
:1029C000177041F0D695C79557954795F794E794BA
:1029D0001A95C1F7E4E8F1E06894159015913591E6
:1029E0006591959105907FE27395E118F10A430B8B
:1029F000560BC90BD009C0F7E10CF11E431F561F3F
:102A0000C91FD01D7EF4703311F48A95E6CFE89487
:102A1000015030F0080F0AF40027021708F4202FA5
:102A20002395022F7A3328F079E37D932A95E9F7ED
:102A300010C07D932A9589F60694979567953795EA
:102A400017951794E118F10A430B560BC90BD009DF
:102A500098F023957E9173957A3308F070E37C9318
:102A60002013B8F77E9170617D9330F0839571E308
:102A70007D9370E32A95E1F71124EF90FF900F9179
:102A80001F91CF91DF91992787FD909508950E941E
:102A9000891508F481E00895E89409C097FB3EF495
:102AA00090958095709561957F4F8F4F9F4F99239B
:102AB000A9F0F92F96E9BB279395F6958795779519
:102AC0006795B795F111F8CFFAF4BB0F11F460FFD9
:102AD0001BC06F5F7F4F8F4F9F4F16C0882311F031
:102AE00096E911C0772321F09EE8872F762F05C045
:102AF000662371F096E8862F70E060E02AF09A95E0
:102B0000660F771F881FDAF7880F9695879597F9D4
:102B10000895990F0008550FAA0BE0E8FEEF16166E
:102B20001706E807F907C0F012161306E407F507C1
:102B300098F0621B730B840B950B39F40A2661F035
:102B4000232B242B252B21F408950A2609F4A140D8
:102B5000A6958FEF811D811D089597F99F6780E8E5
:102B600070E060E008959FEF80EC089500240A94DF
:102B70001616170618060906089500240A94121658
:102B80001306140605060895092E0394000C11F48B
:102B9000882352F0BB0F40F4BF2B11F460FF04C038
:102BA0006F5F7F4F8F4F9F4F089557FD9058440F91
:102BB000551F59F05F3F71F04795880F97FB991F9C
:102BC00061F09F3F79F08795089512161306140659
:102BD000551FF2CF4695F1DF08C0161617061806E6
:102BE000991FF1CF86957105610508940895E894C1
:102BF000BB2766277727CB0197F908955058BB2745
:102C0000AA270E9416160C94C4150E94B61538F017
:102C10000E94BD1520F039F49F3F19F426F40C945E
:102C2000B3150EF4E095E7FB0C94AD15E92F0E9467
:102C3000D51558F3BA17620773078407950720F074
:102C400079F4A6F50C94F7150EF4E0950B2EBA2F37
:102C5000A02D0B01B90190010C01CA01A0011124A2
:102C6000FF27591B99F0593F50F4503E68F11A164E
:102C7000F040A22F232F342F4427585FF3CF4695DF
:102C800037952795A795F0405395C9F77EF41F1601
:102C9000BA0B620B730B840BBAF09150A1F0FF0FCB
:102CA000BB1F661F771F881FC2F70EC0BA0F621FB7
:102CB000731F841F48F4879577956795B795F795A7
:102CC0009E3F08F0B0CF9395880F08F09927EE0F3C
:102CD0009795879508950E947F160C94C4150E94BD
:102CE000BD1558F00E94B61540F029F45F3F29F059
:102CF0000C94AD1551110C94F8150C94B3150E9459
:102D0000D51568F39923B1F3552391F3951B550B12
:102D1000BB27AA2762177307840738F09F5F5F4FAE
:102D2000220F331F441FAA1FA9F335D00E2E3AF0ED
:102D3000E0E832D091505040E695001CCAF72BD005
:102D4000FE2F29D0660F771F881FBB1F2617370756
:102D50004807AB07B0E809F0BB0B802DBF01FF2788
:102D600093585F4F3AF09E3F510578F00C94AD15A3
:102D70000C94F8155F3FE4F3983ED4F3869577956D
:102D80006795B795F7959F5FC9F7880F911D969541
:102D9000879597F90895E1E0660F771F881FBB1F9D
:102DA000621773078407BA0720F0621B730B840B4A
:102DB000BA0BEE1F88F7E09508950E94DD1588F0A4
:102DC0009F5798F0B92F9927B751B0F0E1F0660FEF
:102DD000771F881F991F1AF0BA95C9F714C0B13030
:102DE00091F00E94F715B1E008950C94F715672F44
:102DF000782F8827B85F39F0B93FCCF3869577955F
:102E00006795B395D9F73EF4909580957095619547
:102E10007F4F8F4F9F4F089597FB072E16F4009416
:102E200007D077FD09D00E94281707FC05D03EF493
:102E3000909581959F4F0895709561957F4F089566
:102E4000EE0FFF1F881F8BBF0790F691E02D19949E
:102E5000AA1BBB1B51E107C0AA1FBB1FA617B707C0
:102E600010F0A61BB70B881F991F5A95A9F78095DC
:102E70009095BC01CD0108950F931F93CF93DF93DD
:102E80008230910510F482E090E0E091C104F0916D
:102E9000C20430E020E0B0E0A0E0309799F42115C2
:102EA000310509F44AC0281B390B24303105D8F507
:102EB0008A819B816115710589F1FB01938382836E
:102EC000FE0111C0408151810281138148175907C9
:102ED000E0F04817590799F4109761F012960C9397
:102EE000129713961C933296CF01DF91CF911F91C9
:102EF0000F9108950093C1041093C204F4CF2115DB
:102F0000310551F04217530738F0A901DB019A014E
:102F1000BD01DF01F801C1CFEF01F9CF9093C204E9
:102F20008093C104CDCFFE01E20FF31F81939193F3
:102F30002250310939832883D7CF2091BF043091A3
:102F4000C004232B41F420911E0230911F023093C4
:102F5000C0042093BF0420911C0230911D02211552
:102F6000310541F42DB73EB7409120025091210226
:102F7000241B350BE091BF04F091C004E217F30766
:102F8000A0F42E1B3F0B2817390778F0AC014E5FD9
:102F90005F4F2417350748F04E0F5F1F5093C00452
:102FA0004093BF04819391939FCFF0E0E0E09CCFEA
:102FB000CF93DF930097E9F0FC01329713821282DE
:102FC000A091C104B091C204ED0130E020E010975F
:102FD000A1F420813181820F931F2091BF04309191
:102FE000C0042817390709F061C0F093C004E093CA
:102FF000BF04DF91CF910895EA01CE17DF07E8F50E
:103000004A815B819E0141155105B1F7E901FB83BE
:10301000EA8349915991C40FD51FEC17FD0761F45C
:10302000808191810296840F951FE901998388839D
:10303000828193819B838A83F0E0E0E012968D91F8
:103040009C9113970097B9F52D913C911197CD0163
:103050000296820F931F2091BF043091C00428175D
:10306000390739F6309751F51092C2041092C10415
:10307000B093C004A093BF04BCCFD383C28340816C
:103080005181840F951FC817D90761F44E5F5F4FB8
:1030900088819981480F591F518340838A819B8180
:1030A000938382832115310509F0B0CFF093C204D8
:1030B000E093C1049ECFFD01DC01C0CF13821282D8
:1030C000D7CF4F925F926F927F928F929F92AF92E3
:1030D000BF92CF92DF92EF92FF920F931F93CF9305
:1030E000DF938C01009799F4CB01DF91CF911F9171
:1030F0000F91FF90EF90DF90CF90BF90AF909F9097
:103100008F907F906F905F904F900C943C17FC01D4
:10311000E60FF71F9C0122503109E217F30708F46C
:10312000AEC0D901CD91DC911197C617D70720F118
:10313000C530D10578F0CE0104978617970750F077
:10314000C61BD70B2297C193D1936D937C93CF016C
:103150000E94D817C801DF91CF911F910F91FF9066
:10316000EF90DF90CF90BF90AF909F908F907F9027
:103170006F905F904F9008955B01AC1ABD0A4C01AF
:103180008C0E9D1EA091C104B091C204512C412C03
:10319000F12CE12C109731F58091BF049091C0047F
:1031A0008815990509F05CC04616570608F058C006
:1031B00080911C0290911D02009741F48DB79EB73B
:1031C0004091200250912102841B950BE817F907CA
:1031D00008F055C0F093C004E093BF04F901718377
:1031E0006083B8CF8D919C91119712966C90129735
:1031F00013967C901397A815B90559F56C0142E018
:10320000C40ED11CCA14DB0420F1AC014A195B09BD
:10321000DA011296159780F062827382518340839F
:10322000D9016D937C93E114F10471F0D7011396E9
:10323000FC93EE9312978ECF22968C0F9D1FF9016F
:1032400091838083F301EFCFF093C204E093C10434
:1032500081CF4816590608F42C017D01D3019ACF7D
:10326000CB010E943C177C01009749F0AE01B801E8
:103270000E944219C8010E94D81787016BCF10E045
:1032800000E068CFFB01DC0102C001900D924150CB
:103290005040D8F70895FB01DC0101900D92002009
:1032A000E1F7089511E0C0EDD1E000E006C0802F05
:1032B000FE010E9420172196011DC13DD10780E02B
:0832C0000807A9F7F894FFCFFD
:1032C800030204021A1B1C1D161718193738395324
:1032D800343536443132332D47303D2B0000C3049A
:1032E80080000405060700000000C80229025F02EA
:1032F800150390026E02820200000000CE06A106AD
:10330800FE0677069A06870678060000000054082D
:103318002902FE06FD060000000067042704F603E4
:1033280046494E49534845442E2E2E0041435449A0
:1033380056452E2E2E00746F74616C2074696D656D
:103348003A005041555345442E2E2E0049444C45D1
:103358002E2E2E004348414E47452E2E2E00656ED8
:0C3368007465722074696D65203A0000E5
:00000001FF
