:100000000C945A010C948B010C948B010C948B0171
:100010000C948B010C948B010C948B010C948B0130
:100020000C948B010C948B010C948B010C948B0120
:100030000C948B010C948B010C948B010C948B0110
:100040000C948B010C94F6080C948B010C948B018E
:100050000C948B010C948B010C948B010C94220852
:100060000C948B010C948B010C948B010C948B01E0
:100070000C948B010C948B010C948B010C948B01D0
:100080000C94C8080C948B010C948B010C948B017C
:100090000C948B010C948B010C948B010C948B01B0
:1000A0000C948B010C948B010C949A080C948B018A
:1000B0000C948B010C948B010C948B010C946C08A8
:1000C0000C948B010C948B010C948B010C948B0180
:1000D0000C948B010C948B010C948B010C948B0170
:1000E0000C948B010C94F2030C9410040C94CA022F
:1000F0000C9451040C94BF030C943D040C946B05B8
:100100000C94FC030C9444030C94D8020C94A102AC
:100110000C94E6020C941F040C94C4030C94290460
:100120000C9406040C94BC020C94E1020C943E0D59
:100130000C9447040C9433040C9413030C941C0784
:100140000C946C050C94E2030C94B6020C94C0025F
:100150000C94AB020C94AF020C94CE030C94E2020C
:100160000C9456040C94C6020C94CE020C94EA0330
:100170000C94A7020C94B8030C94B3020C94D8030B
:100180000C9456020C94D4020C94F80D0C94DC02DE
:1001900000002100240027002A002D003000330039
:1001A00001010000040107010A01000022002500EE
:1001B00028002B002E003100340002010000050150
:1001C00008010B01000020002300260029002C005C
:1001D0002F0032000001000003010601090105059E
:1001E0000505070508080808020202020A0A0808AD
:1001F00004040404010101010101010103030303DB
:1002000003030303040707070C0C0C0C0C0C0C0C69
:100210000202020206060606060606060B0B0B0B7A
:100220000B0B0B0B0102102020080810204010209F
:1002300040800201020108040201010204081020AA
:1002400040808040201008040201800402018040A8
:100250002010080402010804020101020408102011
:100260004080010204081020408000000A0B0209AF
:100270000C0D0E0807030401000000000000000040
:10028000000000000000000000000000000000006E
:10029000000000000000121110000000000000002B
:1002A000000000000000000000000000000000004E
:1002B0003E0DF80D11241FBECFEFD1E2DEBFCDBF42
:1002C00000E00CBF12E0A0E0B2E0E4E5F5E200E0FF
:1002D0000BBF02C007900D92A834B107D9F723E0F5
:1002E000A8E4B2E001C01D92A738B207E1F711E01F
:1002F000C9E5D1E000E006C021970109802FFE0189
:100300000E947A10C835D10780E00807A9F70E943B
:1003100024090C9498120C940000E091D802E03368
:1003200088F54091D90228E830E0241B310947FDC7
:100330003395220F331F220F331F8217930784F048
:100340004091DA0228E532E0241B310947FD33955C
:10035000220F331F220F331F821793070CF49C01C7
:1003600022503109220F331F4FB7F8948E2F90E09F
:10037000FC01EE0FFF1FE80FF91FE552FD4F32831E
:1003800021834FBF089596E0899FD0011124A7597A
:10039000BD4F90967C936E935F9791E091969C935E
:1003A0009197E091D602F091D7029091D5029923CE
:1003B00039F0309751F0811108C08091850219946D
:1003C000309719F05C968C91FACF0895CF92DF9216
:1003D000EF92FF920F931F9396E0899FF0011124F3
:1003E000E759FD4F11A2278D30A12130310551F180
:1003F00078F02230310509F451C02330310509F479
:1004000052C01F910F91FF90EF90DF90CF90089511
:100410006623B9F361E070E00E94C3012FB7F8943E
:100420008091650290916602A0916702B091680286
:100430002FBF8093C1029093C202A093C302B093D6
:10044000C402DFCF9FB7F894C0906502D0906602D7
:10045000E0906702F09068029FBF0091C102109186
:10046000C2022091C3023091C402C01AD10AE20A2A
:10047000F30A0091D3021091D40230E020E00C1571
:100480001D052E053F0550F462E070E01F910F91AD
:10049000FF90EF90DF90CF900C94C3016111B1CF2A
:1004A00063E070E0F3CF70E060E0F0CFAF92BF9216
:1004B000CF92DF92EF92FF920F931F93CF93DF9330
:1004C0006C017B018B01040F151FEB015E01AE185F
:1004D000BF08C017D10759F06991D601ED91FC9181
:1004E0000190F081E02DC6011995892B79F7C5019E
:1004F000DF91CF911F910F91FF90EF90DF90CF9000
:10050000BF90AF9008958150823108F05AC0E82F13
:10051000F0E08827E157FD4F8F4F0C947A10AF021F
:10052000B302A102A702AB02E102B602BC02C00202
:10053000C602CA02CE02D402D802E102DC02E20202
:10054000E602809180008F778093800008958091EB
:1005500080008F7DF9CF80918000877FF5CF84B5B3
:100560008F7784BD089584B58F7DFBCF8091B000D7
:100570008F778093B00008958091B0008F7DF9CF80
:10058000809190008F7780939000089580919000E3
:100590008F7DF9CF80919000877FF5CF8091A0006B
:1005A0008F778093A00008958091A0008F7DF9CF70
:1005B0008091A000877FF5CF809120018F77809375
:1005C00020010895809120018F7DF9CF8091200135
:1005D000877FF5CFCF93DF93282F30E0F901E659DD
:1005E000FD4F8491F901EC5DFD4FD491F901E25288
:1005F000FE4FC491CC23A1F081110E948302EC2F05
:10060000F0E0EE0FFF1FEC53FE4FA591B491EC917B
:10061000ED2381E090E009F480E0DF91CF9108952F
:1006200080E090E0FACF862F0C94EA021F93CF93DC
:10063000DF93282F30E0F901E659FD4F8491F9014D
:10064000EC5DFD4FD491F901E252FE4FC491CC23F1
:10065000A9F0162F81110E948302EC2FF0E0EE0F1B
:10066000FF1FE655FE4FA591B4918FB7F894EC911A
:10067000111108C0D095DE23DC938FBFDF91CF919D
:100680001F910895DE2BF8CF862F642F0C9416034C
:10069000CF93DF9390E0FC01EC5DFD4F24918252FB
:1006A0009E4FFC0184918823C9F090E0880F991F28
:1006B000FC01E057FE4FA591B491FC01E655FE4FB9
:1006C000C591D49161110DC09FB7F8948C9120957C
:1006D00082238C938881282328839FBFDF91CF9129
:1006E0000895623051F49FB7F8943C91822F809521
:1006F00083238C93E8812E2BEFCF8FB7F894EC9166
:100700002E2B2C938FBFEACFCF93DF93EC0161E0C8
:1007100086E00E944803209731F460E086E0DF9194
:10072000CF910C941603CF3FD10511F461E0F6CFC1
:10073000E0E7F2E0E491E150E23108F0B2C0F0E02D
:100740008827EA55FC4F8F4F0C947A10B803BF03EB
:10075000C403CE03D8035104E203EA03F203FC030B
:10076000060410041F042904510433043D04470403
:1007700084B5806884BDC7BDDF91CF91089584B5ED
:10078000806284BDC8BDF8CF80918000806880936E
:100790008000D0938900C0938800EECF80918000C4
:1007A000806280938000D0938B00C0938A00E4CF56
:1007B00080918000886080938000D0938D00C093EA
:1007C0008C00DACF8091B00080688093B000C09335
:1007D000B300D2CF8091B00080628093B000C0930C
:1007E000B400CACF80919000806880939000D0932D
:1007F0009900C0939800C0CF809190008062809350
:100800009000D0939B00C0939A00B6CF8091900047
:10081000886080939000D0939D00C0939C00ACCFE3
:100820008091A00080688093A0008091A0008F7BC1
:100830008093A000D093A900C093A8009DCF809181
:10084000A00080628093A000D093AB00C093AA0068
:1008500093CF8091A00088608093A000D093AD00DA
:10086000C093AC0089CF80912001806880932001E3
:10087000D0932901C09328017FCF8091200180620D
:1008800080932001D0932B01C0932A0175CF8091D2
:100890002001886080932001D0932D01C0932C010A
:1008A0006BCFC038D1050CF041CF37CF862F642FE6
:1008B0000C9448033FB7F89480914E0290914F02F8
:1008C000A0915002B091510226B5A89B05C02F3FC0
:1008D00019F00196A11DB11D3FBFBA2FA92F982F66
:1008E0008827BC01CD01620F711D811D911D42E061
:1008F000660F771F881F991F4A95D1F708958F9229
:100900009F92AF92BF92CF92DF92EF92FF924B01F4
:100910005C010E945A046B017C010E945A046C190C
:100920007D098E099F09683E734081059105A8F3F2
:1009300021E0821A9108A108B10888EEC80E83E070
:10094000D81EE11CF11C81149104A104B10429F703
:10095000FF90EF90DF90CF90BF90AF909F908F90DF
:100960000895AF92BF92CF92DF92EF92FF920F93D2
:100970001F93CF93DF936B017A01EC01C75BDD4FCF
:1009800028813CE0389F8001399F100D1124A090F0
:100990004802B12C27FF1FC0FB0111821082888101
:1009A0008F5F888388819801280F311D87FD3A95D4
:1009B000F6012A153B051CF488818C30C4F1808136
:1009C0009181049680349C4908F473C0F6018081BB
:1009D0009181049670C088819801280F311D87FD90
:1009E0003A952A153B05DCF68881A801480F511D70
:1009F00087FD5A95FA01EE0FFF1FE40FF51FE55230
:100A0000FD4F808186FFCBCF8881F801E80FF11D73
:100A100087FDFA95CF01EE0FFF1FE80FF91FE55292
:100A2000FD4F808160E08F730E941603B8CF8081F4
:100A300091812881A801420F511D27FD5A959A01E5
:100A4000FA01EE0FFF1FE20FF31FE552FD4F218168
:100A50003281820F931FF7019183808388819801EF
:100A6000280F311D87FD3A95F901EE0FFF1FE20FA8
:100A7000F31FE552FD4F808186FF22C08881080F59
:100A8000111D87FD1A95F801EE0FFF1FE00FF11FF2
:100A9000E552FD4F808161E08F73DF91CF911F910F
:100AA0000F91FF90EF90DF90CF90BF90AF900C949C
:100AB000160380E49CE9F701918380838FEF88839C
:100AC000DF91CF911F910F91FF90EF90DF90CF902A
:100AD000BF90AF900895089590E080E008958F92C0
:100AE0009F92AF92BF920F931F93CF93DF93CDB797
:100AF000DEB7A1970FB6F894DEBF0FBECDBF19A227
:100B0000423008F44AE08E010F5D1F4F842E912C75
:100B1000B12CA12CA50194010E94370FE62FB90139
:100B2000CA01EA3044F5E05DD801EE938D01232B34
:100B3000242B252B79F790E080E0109769F0FD01D8
:100B400001900020E9F73197AF014A1B5B0BBD0113
:100B50008BE693E00E945602A1960FB6F894DEBF92
:100B60000FBECDBFDF91CF911F910F91BF90AF907E
:100B70009F908F900895E95CD7CFFC0101900020F1
:100B8000E9F73197AF01481B590BBC018BE693E0A5
:100B90000C945602CF93DF93EC0160E08E810E94AB
:100BA000160361E08E810E94160360E08E810E9430
:100BB00016038BE891E00197F1F7DF91CF9108954B
:100BC000CF92DF92EF92FF920F931F93CF93DF9319
:100BD0006C017C0187E0E80EF11CD0E0C0E0062F3C
:100BE00010E0B8010C2E02C0759567950A94E2F7E3
:100BF0006170F70181917F010E9416032196C43034
:100C0000D10579F7C601DF91CF911F910F91FF9028
:100C1000EF90DF90CF900C94CA05CF92DF92EF92C5
:100C2000FF920F931F93CF93DF93EC01F62E642F67
:100C30008C810E9416038D818F3F19F060E00E9425
:100C400016030F2D10E08F8584FF25C06E0187E00D
:100C5000C80ED11CF12CE12CB8010E2C02C07595E8
:100C600067950A94E2F76170F60181916F010E9425
:100C70001603FFEFEF1AFF0A88E0E816F10461F7A8
:100C8000CE01DF91CF911F910F91FF90EF90DF90F8
:100C9000CF900C94CA05B80184E0759567958A9544
:100CA000E1F7CE010E94E0056F2DCE01DF91CF91DB
:100CB0001F910F91FF90EF90DF90CF900C94E00583
:100CC00040E0682F8BE693E00C940D0681E00E94D3
:100CD00060068BE39FE10197F1F70895CF93DF93CF
:100CE000613029F090917A03986090937A03609331
:100CF0007E0310927F0390E490938003809381039E
:100D0000805C8093820361E080916F030E944803BE
:100D1000809170038F3F19F061E00E94480361E009
:100D2000809171030E944803CBE6D3E09E012B56CD
:100D3000334080917A0384FD0BC084E090E02196DB
:100D40002817390744F461E08E810E944803EECFF2
:100D500088E090E0F4CF8BE39DE00197F1F760E04D
:100D600080916F030E94160360E0809171030E94DE
:100D70001603809170038F3F19F060E00E94160304
:100D800080917A0384FD34C063E08BE693E00E9497
:100D9000E005CBE4D6E4CE010197F1F763E08BE602
:100DA00093E00E94E0052197F1F763E08BE693E082
:100DB0000E94E00583E592E00197F1F762E08BE69F
:100DC00093E00E94E00580917A0380620E946006B1
:100DD00084E080937B038CE00E9460060E9466069C
:100DE00082E080937C0386E0DF91CF910C946006D3
:100DF00080620E9460068BE496E40197F1F780918F
:100E00007A0380620E94600683E592E00197F1F721
:100E100080917A0380620E946006D5CF90917E0314
:100E2000891710F08FEF890FE82FF0E0E559FC4F9C
:100E3000848980680C94600641E00E940D0681E080
:100E400090E00895CF92DF92EF92FF926C01990F9C
:100E5000EE08FF08F7FE16C041E06DE28BE693E076
:100E60000E940D0666277727CB016C197D098E0934
:100E70009F094AE00E946F050196FF90EF90DF9076
:100E8000CF9008954AE0C701B601FF90EF90DF9040
:100E9000CF900C946F050E94660680E00E940E07BA
:100EA00084E392E00E94BD0581E00E940E078091DC
:100EB0006202909163020E94220782E00E940E0764
:100EC0008BE392E00E94BD0583E00E940E078091B3
:100ED0005202909153020C9422070F931F93CF93C9
:100EE000DF93EC0188819981009759F02A813B8139
:100EF0002617370730F081E0DF91CF911F910F91D6
:100F000008958B016F5F7F4F0E94A711009759F0E2
:100F1000998388831B830A832C813D81232B59F776
:100F2000FC011082E8CF80E0E7CFCF93DF93EC01A4
:100F300088819981009711F00E941E1119821882F0
:100F40001D821C821B821A82DF91CF910895EF923D
:100F5000FF920F931F93CF93DF931F921F92CDB7F2
:100F6000DEB78C0169831A82FC01E480F580FFEF13
:100F7000EF1AFF0AB7010E946D078823C9F0F80134
:100F80002081318184819581BE016F5F7F4F820F07
:100F9000931F0E949112F801F582E482C8010F901C
:100FA0000F90DF91CF911F910F91FF90EF900895D7
:100FB000C8010E949507F2CFEF92FF920F931F9303
:100FC000CF93DF93EC017B018A01BA010E946D0788
:100FD00081110BC0CE010E949507CE01DF91CF9108
:100FE0001F910F91FF90EF9008951D830C83B7011F
:100FF000888199810E949112F0CF50E040E06AE32D
:1010000072E00C94DC07CF93DF93EC01FB018617B1
:10101000970749F0608171816115710541F0448144
:1010200055810E94DC07CE01DF91CF9108950E9487
:101030009507F9CFFC0180819181009711F00C9404
:101040001E1108951F920F920FB60F9211242F9325
:101050003F938F939F93AF93BF938091650290913D
:101060006602A0916702B091680230914D0223E0C0
:10107000230F2D3758F50196A11DB11D20934D0268
:101080008093650290936602A0936702B093680212
:1010900080914E0290914F02A0915002B091510266
:1010A0000196A11DB11D80934E0290934F02A09313
:1010B0005002B0935102BF91AF919F918F913F9198
:1010C0002F910F900FBE0F901F90189526E8230FB9
:1010D0000296A11DB11DD2CF1F920F920FB60F9293
:1010E00011240BB60F922F933F934F935F936F93FF
:1010F0007F938F939F93AF93BF93EF93FF9348E2B8
:1011000051E064E271E090E080E00E94B104FF9160
:10111000EF91BF91AF919F918F917F916F915F916F
:101120004F913F912F910F900BBE0F900FBE0F90DC
:101130001F9018951F920F920FB60F9211240BB6A5
:101140000F922F933F934F935F936F937F938F9360
:101150009F93AF93BF93EF93FF9348EA50E064EA05
:1011600070E083E090E00E94B104FF91EF91BF91A5
:10117000AF919F918F917F916F915F914F913F912F
:101180002F910F900BBE0F900FBE0F901F901895D0
:101190001F920F920FB60F9211240BB60F922F933E
:1011A0003F934F935F936F937F938F939F93AF93EF
:1011B000BF93EF93FF9348E950E064E970E082E069
:1011C00090E00E94B104FF91EF91BF91AF919F9188
:1011D0008F917F916F915F914F913F912F910F90E0
:1011E0000BBE0F900FBE0F901F9018951F920F927D
:1011F0000FB60F9211240BB60F922F933F934F937C
:101200005F936F937F938F939F93AF93BF93EF936E
:10121000FF9348E850E064E870E081E090E00E94CD
:10122000B104FF91EF91BF91AF919F918F917F9109
:101230006F915F914F913F912F910F900BBE0F9047
:101240000FBE0F901F901895CF93DF9300D000D062
:10125000CDB7DEB7789484B5826084BD84B58160F3
:1012600084BD85B5826085BD85B5816085BD809171
:101270006E00816080936E001092810080918100E9
:1012800082608093810080918100816080938100E1
:10129000809180008160809380008091B1008460A3
:1012A0008093B1008091B00081608093B000809104
:1012B0009100826080939100809191008160809381
:1012C0009100809190008160809390008091A100B6
:1012D00082608093A1008091A10081608093A10031
:1012E0008091A00081608093A000809121018260A4
:1012F000809321018091210181608093210180915F
:10130000200181608093200180917A008460809325
:101310007A0080917A00826080937A0080917A00CE
:10132000816080937A0080917A00806880937A004F
:101330001092C10061E086E00E94480361E085E010
:101340000E94480360E083E00E94480360E082E07E
:101350000E94480360E081E00E94480360E080E072
:101360000E94480364E084E10E946E060E946606C3
:101370008091D802803308F052C061E087E00E947B
:1013800048038091D802282F30E0F901EE0FFF1FAB
:10139000E20FF31FE552FD4F9081907C97609083A0
:1013A0001092D9021092DA022CE0622F0E946E1085
:1013B000829FB001112430E020E0AB01420F531FA7
:1013C000FA01EE0FFF1FE40FF51FE552FD4F90816C
:1013D00096FD17C02F5F3F4F2C30310571F78130DC
:1013E00009F05CC01092800082E08093810010922E
:1013F000850010928400B19A80916F008260809382
:101400006F00E091D8028E2F90E0FC01EE0FFF1FDD
:10141000E80FF91FE552FD4F808180648083412CE5
:10142000512C3201439430E0A32E30E0B32E51E032
:101430005093D5028FB7F89440916502509166029F
:1014400060916702709168028FBF8091C502909190
:10145000C602A091C702B091C802481B590B6A0B83
:101460007B0B8091D1029091D202B0E0A0E0841772
:101470009507A607B70708F003C210E08091CF02D6
:101480001817C0F5E091CB02F091CC02E10FF11DED
:1014900062E080810E9448031F5FF0CF823061F4D8
:1014A00010929000809391001092950010929400F9
:1014B00088BB80937100A5CF833069F41092A0009F
:1014C00082E08093A1001092A5001092A40089BB35
:1014D0008093720096CF811194CF1092200182E008
:1014E0008093210110922501109224018ABB8093E0
:1014F000730087CF312C8091D002381608F061C07C
:10150000E32CF12CE091CD02F091CE02EE0DFF1D07
:1015100061E080810E944803E091CD02F091CE020B
:10152000EE0DFF1D60E080810E941603D301C20111
:10153000032C04C0880F991FAA1FBB1F0A94D2F75F
:101540004C016C01C094D094212C8091CF022816BC
:1015500008F5022D10E0E091CB02F091CC02E00FF3
:10156000F11F80810E94EA020C5F1F4F000F111FC4
:10157000F801E759FD4F892B41F480819181882939
:101580009929918380832394E0CF808191818C215C
:101590009D21F7CFE091CD02F091CE02EE0DFF1D1F
:1015A00061E080810E9416038091CD029091CE026D
:1015B000E80EF91E60E0F70180810E944803339431
:1015C0009ACF09E612E07801F701878D90A1892B67
:1015D00031F4148E8FEF9FEF968F858F11A296E0D6
:1015E000E90EF11CE5EAF2E0EE15FF0569F7D12CF2
:1015F0008091CF02D81608F053C0C12C8D2C912CAD
:10160000880C991CC4018F589D4F4C012091D00229
:10161000C21608F043C0F401608171810C2C02C035
:10162000769567950A94E2F7D29E900111242C0DCD
:10163000311DE9E6F2E080E0458D568D241735072F
:1016400009F41AC28F5F36968A30B1F760FF24C062
:10165000E9E6F2E090E080E0448D411118C0E091AD
:10166000C902F091CA02E20FF31F408156E0589F71
:10167000F001599FF00D1124E759FD4F448F368F2B
:10168000258F10A2178E61E00E94E60105C0019629
:1016900036968A30910501F7C394B8CFD394A8CF7A
:1016A00080E0F80191A19111892F0A5F1F4F0E155B
:1016B0001F05B9F79FB7F8944091650250916602F3
:1016C00060916702709168029FBF4093C50250937A
:1016D000C6026093C7027093C802882309F4D0C081
:1016E00080918A02882309F4CBC00091880210916E
:1016F00089020130110509F0C3C0F0908502F11094
:10170000C2C080E00E94EA02892BB1F58091640298
:10171000882391F180915202909153020597909302
:101720005302809352020E944B07609152027091C3
:101730005302072E000C880B990B0E943E0E20E0EE
:1017400030E04AEF53E40E94790E20E030E044EBB1
:1017500052E40E94C60F20E030E84BEB54E40E94B4
:101760005A0F0E943810CB010E948D0168EC70E086
:1017700080E090E00E947F0481E00E94EA02892BD1
:10178000B1F580916402882391F180915202909189
:101790005302059690935302809352020E944B0786
:1017A0006091520270915302072E000C880B990B26
:1017B0000E943E0E20E030E04AEF53E40E94790E92
:1017C00020E030E044EB52E40E94C60F20E030E815
:1017D0004BEB54E40E945A0F0E943810CB010E9438
:1017E0008D0168EC70E080E090E00E947F0482E070
:1017F0000E94EA02892BE9F4809164028823C9F0EF
:1018000080916202909163020A9797FD30C1909394
:101810006302809362020E944B0780916202909162
:1018200063020E94840368EC70E080E090E00E9414
:101830007F0483E00E94EA02892BD9F4809164023C
:101840008823B9F080916202909163020A96909386
:101850006302809362020E944B0780916202909122
:1018600063020E94840368EC70E080E090E00E94D4
:101870007F04A114B10409F4DACD0E940000D3CD95
:101880001092D5023ECF80916402FFE4FF122CC07B
:101890008823A1F01092640290E080E00E9484030B
:1018A00061E085E00E9416030E94660680E00E94C7
:1018B0000E0783E492E00E94BD0523CF51E05093D0
:1018C000640260E085E00E94160364E670E080E058
:1018D00090E00E947F0480916202909163020E94D6
:1018E00084030E944B070DCF93E5F9120CC08823A7
:1018F00009F407CF8CE592E00E94FD0710925B028D
:1019000010925A02FECEE4E4FE120CC0882309F4C1
:10191000F8CE84E592E00E94FD0710935B020093ED
:101920005A02EFCEFDE3FF126FC0882309F4E9CE1F
:1019300080915A0290915B02892B51F580915C0253
:1019400090915D02C12CD12C7601009719F00E9474
:10195000000E6B018CE592E00E94FD070E944B0790
:101960005FEFC516D10409F020F4D0926302C09253
:10197000620280916202909163020E9484030E943D
:101980004B0768EC70E080E090E00E947F04B9CEE5
:101990008091540290915502C12CD12C7601009770
:1019A00019F00E94000E6B0184E592E00E94FD0791
:1019B0008BE5C816D10420F4D0925302C092520293
:1019C0000E944B076091520270915302072E000C47
:1019D000880B990B0E943E0E20E030E04AEF53E462
:1019E0000E94790E20E030E044EB52E40E94C60FE2
:1019F00020E030E84BEB54E40E945A0F0E9438106C
:101A0000CB010E948D01BDCF882309F47ACE80914D
:101A10005A0290915B021A8219821C821B821E82DA
:101A20001D820197A9F464E572E0CE0101960E943F
:101A300003086F2DCE0101960E94A707BC0184E523
:101A400092E00E940308CE0101960E941A0859CE26
:101A50006CE572E0CE0101960E9403086F2DCE0165
:101A600001960E94A707BC018CE592E0EACF109294
:101A7000630210926202CFCE617006CECF931092B5
:101A80006B0210926F0210926E02109270028EE240
:101A900092E090936A0280936902E5E8F2E0108296
:101AA000148213821582369682E0E13CF807B9F77A
:101AB00084E092E09093CC028093CB0280E092E0AD
:101AC0009093CE028093CD0284E08093CF028093E6
:101AD000D00288E092E09093CA028093C9028AE023
:101AE00090E09093D2028093D10284EF91E09093A2
:101AF000D4028093D3021092D7021092D602109291
:101B0000C5021092C6021092C7021092C80210922B
:101B1000D50210926E0310926D0382E292E09093D0
:101B20006C0380936B038DE080936F03CFEFC093C2
:101B300070038CE0809371038BE0809372038AE0E2
:101B40008093730389E08093740388E08093750326
:101B50001092760310927703109278031092790313
:101B600010927A0361E080E10E946E068091480243
:101B70008033D8F591E0980F909348028093D80273
:101B800090E0FC01EE0FFF1FE80FF91FE552FD4F3B
:101B900088EB9BE09283818310925D0210925C023D
:101BA00010925F0210925E02109261021092600227
:101BB00050E040E06AE372E08CE592E00E94DC07CE
:101BC000109255021092540210925702109256022F
:101BD000109259021092580250E040E06AE372E01D
:101BE00084E592E0CF910C94DC07C093D802D4CF67
:101BF00084E592E00E941A088CE592E00C941A08A1
:101C00001F93FC0199278827BC01E8941191103299
:101C1000E9F3193010F01E30C8F31B3251F01D32B9
:101C200049F4689406C00E94270E610F711D811D42
:101C3000911D119110531A30B0F33EF49095809598
:101C4000709561957F4F8F4F9F4F1F910895592F2A
:101C5000482F372F262F660F771F881F991F660F73
:101C6000771F881F991F620F731F841F951F660FB0
:101C7000771F881F991F0895E89409C097FB3EF4C9
:101C800090958095709561957F4F8F4F9F4F9923C9
:101C9000A9F0F92F96E9BB279395F6958795779547
:101CA0006795B795F111F8CFFAF4BB0F11F460FF07
:101CB0001BC06F5F7F4F8F4F9F4F16C0882311F05F
:101CC00096E911C0772321F09EE8872F762F05C073
:101CD000662371F096E8862F70E060E02AF09A950E
:101CE000660F771F881FDAF7880F9695879597F903
:101CF00008950E948C0E0C94FD0E0E94EF0E38F099
:101D00000E94F60E20F0952311F00C94E60E0C9430
:101D1000EC0E11240C94310F0E940E0F70F3959F5E
:101D2000C1F3950F50E0551F629FF001729FBB27D2
:101D3000F00DB11D639FAA27F00DB11DAA1F649F6E
:101D40006627B00DA11D661F829F2227B00DA11D21
:101D5000621F739FB00DA11D621F839FA00D611DA7
:101D6000221F749F3327A00D611D231F849F600DC8
:101D7000211D822F762F6A2F11249F5750409AF0F1
:101D8000F1F088234AF0EE0FFF1FBB1F661F771F7D
:101D9000881F91505040A9F79E3F510580F00C9448
:101DA000E60E0C94310F5F3FE4F3983ED4F3869532
:101DB00077956795B795F795E7959F5FC1F7FE2BE8
:101DC000880F911D9695879597F9089597F99F67C4
:101DD00080E870E060E008959FEF80EC08950024B3
:101DE0000A941616170618060906089500240A9480
:101DF00012161306140605060895092E0394000C06
:101E000011F4882352F0BB0F40F4BF2B11F460FF94
:101E100004C06F5F7F4F8F4F9F4F089557FD9058BD
:101E2000440F551F59F05F3F71F04795880F97FB9E
:101E3000991F61F09F3F79F0879508951216130658
:101E40001406551FF2CF4695F1DF08C01616170687
:101E50001806991FF1CF86957105610508940895BC
:101E6000E894BB2766277727CB0197F90895A1E26D
:101E70001A2EAA1BBB1BFD010DC0AA1FBB1FEE1F04
:101E8000FF1FA217B307E407F50720F0A21BB30B4F
:101E9000E40BF50B661F771F881F991F1A9469F7CB
:101EA00060957095809590959B01AC01BD01CF0127
:101EB00008955058BB27AA270E94710F0C94FD0E5D
:101EC0000E94EF0E38F00E94F60E20F039F49F3F8A
:101ED00019F426F40C94EC0E0EF4E095E7FB0C9448
:101EE000E60EE92F0E940E0F58F3BA176207730728
:101EF0008407950720F079F4A6F50C94300F0EF4C2
:101F0000E0950B2EBA2FA02D0B01B90190010C0109
:101F1000CA01A0011124FF27591B99F0593F50F421
:101F2000503E68F11A16F040A22F232F342F442779
:101F3000585FF3CF469537952795A795F040539571
:101F4000C9F77EF41F16BA0B620B730B840BBAF041
:101F50009150A1F0FF0FBB1F661F771F881FC2F7AC
:101F60000EC0BA0F621F731F841F48F487957795C0
:101F70006795B795F7959E3F08F0B0CF9395880F7A
:101F800008F09927EE0F9795879508950E94DA0F2C
:101F90000C94FD0E0E94F60E58F00E94EF0E40F0D9
:101FA00029F45F3F29F00C94E60E51110C94310F87
:101FB0000C94EC0E0E940E0F68F39923B1F3552395
:101FC00091F3951B550BBB27AA276217730784074C
:101FD00038F09F5F5F4F220F331F441FAA1FA9F3E2
:101FE00035D00E2E3AF0E0E832D091505040E695D0
:101FF000001CCAF72BD0FE2F29D0660F771F881F31
:10200000BB1F261737074807AB07B0E809F0BB0B23
:10201000802DBF01FF2793585F4F3AF09E3F510537
:1020200078F00C94E60E0C94310F5F3FE4F3983E89
:10203000D4F3869577956795B795F7959F5FC9F720
:10204000880F911D9695879597F90895E1E0660FA1
:10205000771F881FBB1F621773078407BA0720F01A
:10206000621B730B840BBA0BEE1F88F7E095089583
:102070000E943F106894B1110C94310F08950E9492
:10208000160F88F09F5798F0B92F9927B751B0F0E5
:10209000E1F0660F771F881F991F1AF0BA95C9F7EC
:1020A00014C0B13091F00E94300FB1E008950C944B
:1020B000300F672F782F8827B85F39F0B93FCCF3FE
:1020C000869577956795B395D9F73EF49095809569
:1020D000709561957F4F8F4F9F4F0895991B79E0C1
:1020E00004C0991F961708F0961B881F7A95C9F7A8
:1020F00080950895EE0FFF1F881F8BBF0790F69104
:10210000E02D19940F931F93CF93DF9382309105A5
:1021100010F482E090E0E0918503F091860330E0D6
:1021200020E0B0E0A0E0309799F42115310509F4E2
:102130004AC0281B390B24303105D8F58A819B8190
:102140006115710589F1FB0193838283FE0111C042
:10215000408151810281138148175907E0F04817E7
:10216000590799F4109761F012960C9312971396F1
:102170001C933296CF01DF91CF911F910F9108955B
:102180000093850310938603F4CF2115310551F098
:102190004217530738F0A901DB019A01BD01DF01A5
:1021A000F801C1CFEF01F9CF9093860380938503A7
:1021B000CDCFFE01E20FF31F81939193225031099D
:1021C00039832883D7CF2091830330918403232B35
:1021D00041F420911A0230911B0230938403209322
:1021E000830320911802309119022115310541F421
:1021F0002DB73EB740911C0250911D02241B350B98
:10220000E0918303F0918403E217F307A0F42E1BFF
:102210003F0B2817390778F0AC014E5F5F4F24174A
:10222000350748F04E0F5F1F50938403409383039C
:10223000819391939FCFF0E0E0E09CCFCF93DF9329
:102240000097E9F0FC01329713821282A091850376
:10225000B0918603ED0130E020E01097A1F42081D9
:102260003181820F931F20918303309184032817BB
:10227000390709F061C0F0938403E0938303DF9191
:10228000CF910895EA01CE17DF07E8F54A815B8117
:102290009E0141155105B1F7E901FB83EA8349919C
:1022A0005991C40FD51FEC17FD0761F4808191810E
:1022B0000296840F951FE901998388838281938117
:1022C0009B838A83F0E0E0E012968D919C911397B6
:1022D0000097B9F52D913C911197CD010296820F8F
:1022E000931F20918303309184032817390739F60F
:1022F000309751F51092860310928503B0938403B2
:10230000A0938303BCCFD383C28340815181840FC8
:10231000951FC817D90761F44E5F5F4F8881998177
:10232000480F591F518340838A819B819383828305
:102330002115310509F0B0CFF0938603E0938503B2
:102340009ECFFD01DC01C0CF13821282D7CF4F9206
:102350005F926F927F928F929F92AF92BF92CF9235
:10236000DF92EF92FF920F931F93CF93DF938C0135
:10237000009799F4CB01DF91CF911F910F91FF90BE
:10238000EF90DF90CF90BF90AF909F908F907F9015
:102390006F905F904F900C948210FC01E60FF71F36
:1023A0009C0122503109E217F30708F4AEC0D901AD
:1023B000CD91DC911197C617D70720F1C530D10513
:1023C00078F0CE0104978617970750F0C61BD70BFD
:1023D0002297C193D1936D937C93CF010E941E11DC
:1023E000C801DF91CF911F910F91FF90EF90DF9087
:1023F000CF90BF90AF909F908F907F906F905F90A5
:102400004F9008955B01AC1ABD0A4C018C0E9D1EC5
:10241000A0918503B0918603512C412CF12CE12C25
:10242000109731F580918303909184038815990565
:1024300009F05CC04616570608F058C08091180293
:1024400090911902009741F48DB79EB740911C02FC
:1024500050911D02841B950BE817F90708F055C031
:10246000F0938403E0938303F90171836083B8CF11
:102470008D919C91119712966C90129713967C9067
:102480001397A815B90559F56C0142E0C40ED11C8B
:10249000CA14DB0420F1AC014A195B09DA01129677
:1024A000159780F06282738251834083D9016D93C6
:1024B0007C93E114F10471F0D7011396FC93EE9331
:1024C00012978ECF22968C0F9D1FF90191838083E6
:1024D000F301EFCFF0938603E093850381CF481695
:1024E000590608F42C017D01D3019ACFCB010E943B
:1024F00082107C01009749F0AE01B8010E94881259
:10250000C8010E941E1187016BCF10E000E068CF68
:10251000FB01DC0102C001900D9241505040D8F700
:102520000895FB01DC0101900D920020E1F7089570
:1025300011E0C9E5D1E000E006C0802FFE010E9455
:102540007A102196011DCA35D10780E00807A9F746
:04255000F894FFCF2D
:102554001A1B1C1D161718193738395334353644CD
:102564003132332D4F303D2B0000870380000000B3
:1025740000001C0756026C056B05000000005604A1
:102584004403130353504545443A004445475245D8
:08259400453A004F46460000E5
:00000001FF
