:100000000C9441010C9472010C9472010C947201D5
:100010000C9472010C9472010C9472010C94720194
:100020000C9472010C9472010C9472010C94720184
:100030000C9472010C9472010C9472010C94720174
:100040000C9472010C9472010C9472010C94720164
:100050000C9472010C9472010C9472010C94ED07D3
:100060000C9472010C94B7070C948D070C947201D8
:100070000C9472010C9472010C9472010C94720134
:100080000C9472010C9472010C9472010C94720124
:100090000C9472010C9472010C9472010C94720114
:1000A0000C9472010C9472010C9472010C94720104
:1000B0000C9472010C9472010C9472010C947201F4
:1000C0000C9472010C9472010C9472010C947201E4
:1000D0000C9472010C9472010C9472010C947201D4
:1000E0000C9472010C94D4030C9499030C949D030A
:1000F0000C94A7030C948F030C9495030C940504A3
:100100000C944A040C9470030C9437080C94A303C9
:100110000C9460020C9468030C94A6020C94740373
:100120000C94A2030C947D030C9462030C944C0277
:100130000C940F070C9445040C94F3020C94870361
:100140000C946E020C9449040C948B030C940702DB
:100150000C9477030C943D020C946C030C94810373
:1001600000002100240027002A002D003000330069
:1001700001010000040107010A010000220025001E
:1001800028002B002E003100340002010000050180
:1001900008010B01000020002300260029002C008C
:1001A0002F003200000100000301060109010505CE
:1001B0000505070508080808020202020A0A0808DD
:1001C000040404040101010101010101030303030B
:1001D00003030303040707070C0C0C0C0C0C0C0C9A
:1001E0000202020206060606060606060B0B0B0BAB
:1001F0000B0B0B0B010210202008081020401020D0
:1002000040800201020108040201010204081020DA
:1002100040808040201008040201800402018040D8
:100220002010080402010804020101020408102041
:100230004080010204081020408000000A0B0209DF
:100240000C0D0E0807030401000000000000000070
:10025000000000000000000000000000000000009E
:10026000000000000000121110000000000000005B
:10027000000000000000000000000000000000007E
:10028000370811241FBECFEFD1E2DEBFCDBF00E0A3
:100290000CBF23E0AAE6B2E001C01D92AF39B2075D
:1002A000E1F712E0A0E0B2E0E4EEFBE100E00BBF1A
:1002B00002C007900D92AA36B107D9F711E0C1E448
:1002C000D1E000E006C021970109802FFE010E94C5
:1002D000BE0BC034D10780E00807A9F70E94F008E0
:1002E0000C94F00D0C94000096E0899FD00111242D
:1002F000A45DBC4F90967C936E935F9791E091962E
:100300009C939197E0919903F0919A0390919803AF
:10031000992339F0309751F0811108C0809148033A
:100320001994309719F05C968C91FACF0895CF927A
:10033000DF92EF92FF920F931F9396E0899FF00157
:100340001124E45DFC4F11A2278D30A1213031052D
:1003500051F178F02230310509F451C023303105D4
:1003600009F452C01F910F91FF90EF90DF90CF9052
:1003700008956623B9F361E070E00E9474012FB71D
:10038000F8948091730290917402A0917502B091DB
:1003900076022FBF8093840390938503A0938603F6
:1003A000B0938703DFCF9FB7F894C0907302D090CB
:1003B0007402E0907502F09076029FBF0091840372
:1003C000109185032091860330918703C01AD10ACA
:1003D000E20AF30A009196031091970330E020E0BF
:1003E0000C151D052E053F0550F462E070E01F91CD
:1003F0000F91FF90EF90DF90CF900C9474016111FA
:10040000B1CF63E070E0F3CF70E060E0F0CFAF9287
:10041000BF92CF92DF92EF92FF920F931F93CF93F1
:10042000DF936C017B018B01040F151FEB015E0153
:10043000AE18BF08C017D10759F06991D601ED91E8
:10044000FC910190F081E02DC6011995892B79F777
:10045000C501DF91CF911F910F91FF90EF90DF9039
:10046000CF90BF90AF900895FC0144815581608189
:10047000718184E193E00C940702FC01538D448D5B
:10048000252F30E0842F90E0821B930B541710F03F
:10049000CF96089501970895FC01918D828D98174C
:1004A00061F0A28DAE0FBF2FB11D5D968C91928D24
:1004B0009F5F9F73928F90E008958FEF9FEF089555
:1004C000FC01918D828D981731F0828DE80FF11D1E
:1004D000858D90E008958FEF9FEF0895FC01918D39
:1004E000228D892F90E0805C9F4F821B91098F7332
:1004F0009927089587E792E00E946E0221E0892BF8
:1005000009F420E0822F0895FC01A48DA80FB92FD3
:10051000B11DA35ABF4F2C91848D90E001968F732B
:100520009927848FA689B7892C93A089B1898C914A
:10053000837080648C93938D848D981306C0028899
:10054000F389E02D80818F7D80830895EF92FF9263
:100550000F931F93CF93DF93EC0181E0888F9B8DE6
:100560008C8D98131AC0E889F989808185FF15C0A0
:100570009FB7F894EE89FF896083E889F9898081C3
:100580008370806480839FBF81E090E0DF91CF9192
:100590001F910F91FF90EF900895F62E0B8D10E0B4
:1005A0000F5F1F4F0F731127E02E8C8D8E110CC023
:1005B0000FB607FCFACFE889F989808185FFF5CF6E
:1005C000CE010E948402F1CFEB8DEC0FFD2FF11DC7
:1005D000E35AFF4FF0829FB7F8940B8FEA89FB89AB
:1005E00080818062CFCFCF93DF93EC01888D882309
:1005F000B9F0AA89BB89E889F9898C9185FD03C086
:10060000808186FD0DC00FB607FCF7CF8C9185FF6A
:10061000F2CF808185FFEDCFCE010E948402E9CF29
:10062000DF91CF91089580E090E0892B29F00E941E
:100630007A0281110E94000080E090E0892B49F04D
:1006400080E090E0892B29F00E94000081110E9437
:10065000000080E090E0892B49F080E090E0892B59
:1006600029F00E94000081110E94000080E090E0CB
:10067000892B49F080E090E0892B29F00E9400004E
:1006800081110C94000008958150823108F05AC005
:10069000E82FF0E08827E05BFC4F8F4F0C94BE0BF7
:1006A00070037403620368036C03A20377037D0382
:1006B000810387038B038F0395039903A2039D0393
:1006C000A303A703809180008F7780938000089513
:1006D000809180008F7DF9CF80918000877FF5CF5A
:1006E00084B58F7784BD089584B58F7DFBCF8091CD
:1006F000B0008F778093B00008958091B0008F7D17
:10070000F9CF809190008F77809390000895809129
:1007100090008F7DF9CF80919000877FF5CF8091F9
:10072000A0008F778093A00008958091A0008F7D16
:10073000F9CF8091A000877FF5CF809120018F773E
:10074000809320010895809120018F7DF9CF8091C1
:100750002001877FF5CFCF93DF93282F30E0F90179
:10076000E65CFD4F8491F901EC50FE4FD491F90104
:10077000E255FE4FC491CC23A1F081110E944403A5
:10078000EC2FF0E0EE0FFF1FEC56FE4FA591B49159
:10079000EC91ED2381E090E009F480E0DF91CF91CE
:1007A000089580E090E0FACF862F0C94AB031F935E
:1007B000CF93DF93282F30E0F901E65CFD4F849161
:1007C000F901EC50FE4FD491F901E255FE4FC4916E
:1007D000CC23A9F0162F81110E944403EC2FF0E0E6
:1007E000EE0FFF1FE658FE4FA591B4918FB7F89416
:1007F000EC91111108C0D095DE23DC938FBFDF91FF
:10080000CF911F910895DE2BF8CF862F642F0C9483
:10081000D703CF93DF9390E0FC01EC50FE4F24917F
:1008200082559E4FFC0184918823C9F090E0880F87
:10083000991FFC01E05AFE4FA591B491FC01E658C6
:10084000FE4FC591D49161110DC09FB7F8948C9162
:10085000209582238C938881282328839FBFDF9152
:10086000CF910895623051F49FB7F8943C91822F54
:10087000809583238C93E8812E2BEFCF8FB7F8944C
:10088000EC912E2B2C938FBFEACF862F642F0C94E4
:100890000904089590E080E00895E0E0F2E089E046
:1008A00092E030E020E04081403211F42F5F3F4F72
:1008B0004181403211F42F5F3F4F4281403211F4A9
:1008C0002F5F3F4F33968E179F0769F789E090E0BF
:1008D000821B930B0895873459F021E030E089356D
:1008E00011F430E020E088279927821B930B0895AC
:1008F00081E090E0089590910002809101029813A8
:1009000008C020910202921304C0903211F0892F86
:100910000DC04091030230910402431309C020919D
:100920000502421305C0403219F0842F0C946B0469
:100930002091060250910702251308C06091080219
:10094000261304C0203211F0822FF0CF941304C07C
:10095000921302C09032D9F6831304C0851302C0EB
:10096000803221F78091020240910502841306C073
:1009700040910802841302C08032C1F6931306C06E
:1009800040910802941302C0903209F6381304C053
:10099000231302C02032C1F68FEF9FEF0895E0E0ED
:1009A000F2E080E2808381838283838384838583F2
:1009B0008683878380870895FC0101900020E9F7F2
:1009C0003197AF01481B590BBC0184E193E00C94B3
:1009D0000702FC0180819181009711F00C94760C44
:1009E0000895CF92DF92EF92FF920F931F93CF93D0
:1009F000DF931F921F92CDB7DEB78C01FC011182ED
:100A00001082138212821582148269831A82CE01A7
:100A100001966C01FC0101900020E9F731977F01FC
:100A2000E81AF90AB7016F5F7F4F90E080E00E94FB
:100A3000FF0CF801009799F091838083F382E282A2
:100A400024813581232B11F4FC011082F801F582F9
:100A5000E482B601808191810E94E90D0DC0808100
:100A60009181009711F00E94760CF801118210829A
:100A700015821482138212820F900F90DF91CF9112
:100A80001F910F91FF90EF90DF90CF900895CF933B
:100A9000DF93EC0160E08E810E94D70361E08E81DC
:100AA0000E94D70360E08E810E94D7038BE891E01B
:100AB0000197F1F7DF91CF910895CF92DF92EF92F6
:100AC000FF920F931F93CF93DF936C017C0187E01C
:100AD000E80EF11CD0E0C0E0062F10E0B8010C2EAB
:100AE00002C0759567950A94E2F76170F7018191EC
:100AF0007F010E94D7032196C430D10579F7C60142
:100B0000DF91CF911F910F91FF90EF90DF90CF90E9
:100B10000C944705CF92DF92EF92FF920F931F93B1
:100B2000CF93DF93EC01F62E642F8C810E94D703C4
:100B30008D818F3F19F060E00E94D7030F2D10E0E8
:100B40008F8584FF25C06E0187E0C80ED11CF12C73
:100B5000E12CB8010E2C02C0759567950A94E2F756
:100B60006170F60181916F010E94D703FFEFEF1AC8
:100B7000FF0A88E0E816F10461F7CE01DF91CF911A
:100B80001F910F91FF90EF90DF90CF900C9447054D
:100B9000B80184E0759567958A95E1F7CE010E94CA
:100BA0005D056F2DCE01DF91CF911F910F91FF90C9
:100BB000EF90DF90CF900C945D0540E0682F84E1CA
:100BC00093E00C948A0581E00E94DD058BE39FE1B0
:100BD0000197F1F70895CF93DF93613029F0909159
:100BE00023039860909323036093270310922803B4
:100BF00090E49093290380932A03805C80932B03D5
:100C000061E0809118030E940904809119038F3FCD
:100C100019F061E00E94090461E080911A030E94CA
:100C20000904C4E1D3E09E012451334080912303A1
:100C300084FD0BC084E090E021962817390744F426
:100C400061E08E810E940904EECF88E090E0F4CF4D
:100C50008BE39DE00197F1F760E0809118030E941B
:100C6000D70360E080911A030E94D7038091190393
:100C70008F3F19F060E00E94D7038091230384FD29
:100C800034C063E084E193E00E945D05CBE4D6E4E8
:100C9000CE010197F1F763E084E193E00E945D05E6
:100CA0002197F1F763E084E193E00E945D0583E51D
:100CB00092E00197F1F762E084E193E00E945D0524
:100CC0008091230380620E94DD0584E080932403E9
:100CD0008CE00E94DD050E94E30582E080932503FD
:100CE00086E0DF91CF910C94DD0580620E94DD05E6
:100CF0008BE496E40197F1F78091230380620E94D0
:100D0000DD0583E592E00197F1F78091230380628E
:100D10000E94DD05D5CF90912703691710F06FEF82
:100D2000690FE62FF0E0EC5EFC4F9489890F806834
:100D30000C94DD05FF920F931F93CF93DF9300D0A8
:100D400000D0CDB7DEB7182F0E94E30560E088E041
:100D50000E948B06612FCE0101960E94F104CE0104
:100D600001960E943402CE0101960E94E90481E5B9
:100D700092E00E94DC0400E012E0FF24F3946F2D67
:100D800080E00E948B0687E592E00E94DC04F80177
:100D90006081CE0101960E94F104CE0101960E946D
:100DA0003402CE0101960E94E90487E592E00E9498
:100DB000DC04F8016181CE0101960E94F104CE01AC
:100DC00001960E943402CE0101960E94E90487E553
:100DD00092E00E94DC04F8016281CE0101960E943B
:100DE000F104CE0101960E943402CE0101960E94C8
:100DF000E90487E592E00E94DC04F3940D5F1F4F45
:100E0000F4E0FF12BCCF26960FB6F894DEBF0FBEFB
:100E1000CDBFDF91CF911F910F91FF90089541E0D9
:100E20000E948A0581E090E00895FF920F931F933E
:100E3000CF93DF9300D000D0CDB7DEB78C010E94F6
:100E4000E30560E088E00E948B060F3F100709F081
:100E500058C089E592E00E94DC0400E012E0FF2423
:100E6000F3946F2D80E00E948B0687E592E00E944C
:100E7000DC04F8016081CE0101960E94F104CE01EC
:100E800001960E943402CE0101960E94E90487E592
:100E900092E00E94DC04F8016181CE0101960E947B
:100EA000F104CE0101960E943402CE0101960E9407
:100EB000E90487E592E00E94DC04F8016281CE013A
:100EC00001960E94F104CE0101960E943402CE01E7
:100ED00001960E94E90487E592E00E94DC04F39405
:100EE0000D5F1F4FF4E0FF12BCCF26960FB6F894AB
:100EF000DEBF0FBECDBFDF91CF911F910F91FF904D
:100F00000895F801E95DFD4F41E0608184E193E0DF
:100F10000E948A058EE592E09ECF1F920F920FB637
:100F20000F9211240BB60F922F933F934F935F9321
:100F30006F937F938F939F93AF93BF93EF93FF93A1
:100F400087E792E00E948402FF91EF91BF91AF91F9
:100F50009F918F917F916F915F914F913F912F91D1
:100F60000F900BBE0F900FBE0F901F9018951F9201
:100F70000F920FB60F9211240BB60F922F938F93EF
:100F80009F93EF93FF93E0918702F0918802808115
:100F9000E0918D02F0918E0282FD1DC090818091C2
:100FA00090028F5F8F7320919102821741F0E09140
:100FB0009002F0E0E958FD4F958F80939002FF91E9
:100FC000EF919F918F912F910F900BBE0F900FBEBD
:100FD0000F901F9018958081F2CF1F920F920FB63D
:100FE0000F9211242F933F938F939F93AF93BF93AF
:100FF0008091730290917402A0917502B091760273
:1010000030916E0223E0230F2D3758F50196A11D74
:10101000B11D20936E028093730290937402A0938B
:101020007502B093760280916A0290916B02A09152
:101030006C02B0916D020196A11DB11D80936A02F0
:1010400090936B02A0936C02B0936D02BF91AF912D
:101050009F918F913F912F910F900FBE0F901F90F6
:10106000189526E8230F0296A11DB11DD2CF10922C
:101070007A021092790288EE93E0A0E0B0E08093CB
:101080007B0290937C02A0937D02B0937E028DE25E
:1010900092E0909378028093770285EC90E09093B1
:1010A00084028093830284EC90E090938602809384
:1010B000850280EC90E0909388028093870281EC17
:1010C00090E090938A028093890282EC90E0909362
:1010D0008C0280938B0286EC90E090938E0280933A
:1010E0008D02109290021092910210929202109230
:1010F000930210922E031092320310923103109239
:1011000033038BE492E090932D0380932C03E8E467
:10111000F3E01082148213821582369683E0E4385D
:10112000F807B9F78DE092E090938F0380938E03D8
:1011300089E092E0909391038093900384E0809300
:1011400092038093930381E192E090938D038093C7
:101150008C038AE090E0909395038093940384EF4E
:1011600091E0909397038093960310929A031092C4
:101170009903109288031092890310928A031092A7
:101180008B031092980310921703109216038FE3AB
:1011900092E090931503809314038DE080931803DD
:1011A0008FEF809319038CE080931A038BE0809378
:1011B0001B038AE080931C0389E080931D0388E071
:1011C00080931E0310921F0310922003109221039C
:1011D000109222031092230361E080E10C94EB054E
:1011E000789484B5826084BD84B5816084BD85B502
:1011F000826085BD85B5816085BD80916E0081600E
:1012000080936E00109281008091810082608093B3
:1012100081008091810081608093810080918000B5
:101220008160809380008091B10084608093B100E0
:101230008091B00081608093B000809191008260C5
:1012400080939100809191008160809391008091C2
:1012500090008160809390008091A10082608093D3
:10126000A1008091A10081608093A1008091A000E5
:1012700081608093A0008091210182608093210190
:101280008091210181608093210180912001816002
:101290008093200180917A00846080937A0080910D
:1012A0007A00826080937A0080917A0081608093D6
:1012B0007A0080917A00806880937A001092C10051
:1012C00064E084E10E94EB050E94E305E09187025F
:1012D000F091880282E08083E0918302F0918402A1
:1012E0001082E0918502F09186028FEC808310924B
:1012F0008F02E0918B02F0918C0286E08083E09176
:101300008902F0918A02808180618083E091890264
:10131000F0918A02808188608083E0918902F09157
:101320008A02808180688083E0918902F0918A023C
:1013300080818F7D808389E50E949A06812C912C83
:101340005401839473E0C72ED12CC1E0D0E021E09A
:10135000209398038FB7F8944091730250917402D0
:1013600060917502709176028FBF80918803909191
:101370008903A0918A03B0918B03481B590B6A0B18
:101380007B0B8091940390919503B0E0A0E08417CB
:101390009507A607B70708F02EC110E080919203C9
:1013A000181760F4E0918E03F0918F03E10FF11DA7
:1013B00062E080810E9409041F5FF0CF312C809190
:1013C0009303381608F060C0032D10E0E0919003FD
:1013D000F0919103E00FF11F61E080810E94090408
:1013E000E0919003F0919103E00FF11F60E08081A4
:1013F0000E94D703D501C401032C04C0880F991F94
:10140000AA1FBB1F0A94D2F73C017C01E094F09420
:10141000212C80919203281600F5422C512CE0914A
:101420008E03F0918F03E40DF51D80810E94AB03C4
:10143000F2013496EE0FFF1FE45DFC4F892B41F45F
:101440008081918186299729918380832394E1CF9C
:10145000808191818E219F21F7CFE0919003F091BF
:101460009103E00FF11F61E080810E94D70380911A
:10147000900390919103080F191F60E0F80180819B
:101480000E94090433949BCF0CE213E0F801878D8E
:1014900090A1892B31F4148E2FEF3FEF368F258FDB
:1014A00011A2369633E0E836F30789F7F12C8091E4
:1014B0009203F81608F053C0E12C6F2C712C660CC7
:1014C000771CC3018C5C9C4F3C0120919303E21676
:1014D00008F043C0F301608171810E2C02C0769543
:1014E00067950A94E2F7F29E900111242E0D311DAA
:1014F000ECE2F3E080E0458D568D2417350709F4C2
:1015000027C18F5F36968A30B1F760FF24C0ECE2C6
:10151000F3E090E080E0448D411118C0E0918C032D
:10152000F0918D03E20FF31F408156E0589FF001C8
:10153000599FF00D1124E45DFC4F448F368F258FA9
:1015400010A2178E61E00E94970105C001963696A1
:101550008A30910501F7E394B8CFF394A8CF80E0E7
:10156000F80191A19111892F0A5F1F4FF3E008360E
:101570001F07B1F79FB7F89440917302509174021E
:1015800060917502709176029FBF409388035093DB
:10159000890360938A0370938B03882361F18091A0
:1015A0004D03882341F180914B0390914C030197A7
:1015B00011F540914803411121C087E792E00E9454
:1015C0006E0218161906A4F487E792E00E944C02F6
:1015D0008F3409F07EC00E94CF0489E50E949A06EC
:1015E00010927202109271021092700210926F02A9
:1015F0000E941303ACCE10929803DFCF809171024A
:1016000090917202892BA9F04F34B9F60E94CF0451
:1016100089E50E949A06109272021092710210924D
:10162000700210926F026FE487E792E00E94A602B8
:10163000C4CF8FEC840F893008F0BFCF80916F0248
:1016400090917002892B09F0B8CF842F042E000CE2
:10165000990BC197B6010E94AA0BFB01EE0FFF1F69
:10166000E60FF71FE050FE4FE80FF91F8081803230
:1016700009F0A3CF29E52083642F87E792E00E9439
:10168000A60287E40E949A060E947B048C010196C0
:1016900081F00E944D04099784F080916F0290912F
:1016A0007002FE01E81BF90BF0937002E0936F02E9
:1016B00084CF0E944D04099781F7C8010E94150745
:1016C0001092700210926F02D0937202C093710256
:1016D00074CF9FEC980F993008F08ACF082E000C39
:1016E000990BC197B6010E94AA0BFB01EE0FFF1FD9
:1016F000E60FF71FE050FE4FE80FF91F87E48083E5
:1017000089E50E949A060E947B048C01019681F073
:101710000E944D04099784F4C8010E941507109295
:10172000700210926F02D0937202C093710260CF68
:101730000E944D04099781F380916F02909170028D
:101740009E01281B390B3093700220936F0250CFFB
:101750006170F9CE97FB072E16F4009407D077FD41
:1017600009D00E94C60B07FC05D03EF490958195E8
:101770009F4F0895709561957F4F0895EE0FFF1F5D
:10178000881F8BBF0790F691E02D1994AA1BBB1BF5
:1017900051E107C0AA1FBB1FA617B70710F0A61B71
:1017A000B70B881F991F5A95A9F780959095BC0192
:1017B000CD0108950F931F93CF93DF93823091054E
:1017C00010F482E090E0E0919D03F0919E0330E000
:1017D00020E0B0E0A0E0309799F42115310509F43C
:1017E0004AC0281B390B24303105D8F58A819B81EA
:1017F0006115710589F1FB0193838283FE0111C09C
:10180000408151810281138148175907E0F0481740
:10181000590799F4109761F012960C93129713964A
:101820001C933296CF01DF91CF911F910F910895B4
:1018300000939D0310939E03F4CF2115310551F0C1
:101840004217530738F0A901DB019A01BD01DF01FE
:10185000F801C1CFEF01F9CF90939E0380939D03D0
:10186000CDCFFE01E20FF31F8193919322503109F6
:1018700039832883D7CF20919B0330919C03232B5E
:1018800041F4209123023091240230939C03209351
:101890009B0320912102309122022115310541F450
:1018A0002DB73EB74091250250912602241B350BDF
:1018B000E0919B03F0919C03E217F307A0F42E1B29
:1018C0003F0B2817390778F0AC014E5F5F4F2417A4
:1018D000350748F04E0F5F1F50939C0340939B03C6
:1018E000819391939FCFF0E0E0E09CCFCF93DF9383
:1018F0000097E9F0FC01329713821282A0919D03B8
:10190000B0919E03ED0130E020E01097A1F420811A
:101910003181820F931F20919B0330919C032817E4
:10192000390709F061C0F0939C03E0939B03DF91BA
:10193000CF910895EA01CE17DF07E8F54A815B8170
:101940009E0141155105B1F7E901FB83EA834991F5
:101950005991C40FD51FEC17FD0761F48081918167
:101960000296840F951FE901998388838281938170
:101970009B838A83F0E0E0E012968D919C9113970F
:101980000097B9F52D913C911197CD010296820FE8
:10199000931F20919B0330919C032817390739F638
:1019A000309751F510929E0310929D03B0939C03C3
:1019B000A0939B03BCCFD383C28340815181840F0A
:1019C000951FC817D90761F44E5F5F4F88819981D1
:1019D000480F591F518340838A819B81938382835F
:1019E0002115310509F0B0CFF0939E03E0939D03DC
:1019F0009ECFFD01DC01C0CF13821282D7CF4F9260
:101A00005F926F927F928F929F92AF92BF92CF928E
:101A1000DF92EF92FF920F931F93CF93DF938C018E
:101A2000009799F4CB01DF91CF911F910F91FF9017
:101A3000EF90DF90CF90BF90AF909F908F907F906E
:101A40006F905F904F900C94DA0BFC01E60FF71F3C
:101A50009C0122503109E217F30708F4AEC0D90106
:101A6000CD91DC911197C617D70720F1C530D1056C
:101A700078F0CE0104978617970750F0C61BD70B56
:101A80002297C193D1936D937C93CF010E94760CE2
:101A9000C801DF91CF911F910F91FF90EF90DF90E0
:101AA000CF90BF90AF909F908F907F906F905F90FE
:101AB0004F9008955B01AC1ABD0A4C018C0E9D1E1F
:101AC000A0919D03B0919E03512C412CF12CE12C4F
:101AD000109731F580919B0390919C03881599058F
:101AE00009F05CC04616570608F058C080912102E4
:101AF00090912202009741F48DB79EB74091250244
:101B000050912602841B950BE817F90708F055C081
:101B1000F0939C03E0939B03F90171836083B8CF3A
:101B20008D919C91119712966C90129713967C90C0
:101B30001397A815B90559F56C0142E0C40ED11CE4
:101B4000CA14DB0420F1AC014A195B09DA011296D0
:101B5000159780F06282738251834083D9016D931F
:101B60007C93E114F10471F0D7011396FC93EE938A
:101B700012978ECF22968C0F9D1FF901918380833F
:101B8000F301EFCFF0939E03E0939D0381CF4816BE
:101B9000590608F42C017D01D3019ACFCB010E9494
:101BA000DA0B7C01009749F0AE01B8010E94E00D0C
:101BB000C8010E94760C87016BCF10E000E068CF6F
:101BC000FB01DC0102C001900D9241505040D8F75A
:101BD0000895FB01DC0101900D920020E1F70895CA
:041BE000F894FFCFA7
:101BE4002020202020202020201A1B1C1D1617181E
:101BF4001937383953343536443132332D4F303D6B
:101C04002B00009F038000594700000000A6020734
:101C1400023D02F3026E024C026002000000000F5B
:101C24000707024A0449040000000045040504D4DF
:101C3400032D5475726E007C004472617700206934
:0A1C4400732077696E6E6572000070
:00000001FF
