:100000000C9417010C942B010C942B010C942B01D4
:100010000C942B010C942B010C942B010C942B01B0
:100020000C942B010C942B010C942B010C942B01A0
:100030000C942B010C942B010C942B010C942B0190
:100040000C942B010C942B010C942B010C942B0180
:100050000C942B010C942B010C942B010C94620238
:100060000C94AC020C942B010C942B010C942B01DE
:100070000C942B010C942B010C942B010C942B0150
:100080000C942B010C942B010C942B010C942B0140
:100090000C942B010C942B010C942B010C942B0130
:1000A0000C942B010C942B010C942B010C942B0120
:1000B0000C942B010C942B010C942B010C942B0110
:1000C0000C942B010C942B010C942B010C942B0100
:1000D0000C942B010C942B010C942B010C942B01F0
:1000E0000C942B010C9474010C945D010C94AF01E1
:1000F0000C9462010C9480010C9489010C947C0195
:100100000C94A9010C94B3010C94A5010C949301D7
:100110000C9483010C9478010C949B010C948D0138
:100120000C94A1010C9497010000210024002700E9
:100130002A002D00300033000101000004010701F6
:100140000A0100002200250028002B002E003100AB
:10015000340002010000050108010B010505050539
:10016000070508080808020202020A0A080804042F
:10017000040401010101010101010303030303035D
:100180000303040707070C0C0C0C0C0C0C0C0202EC
:10019000020206060606060606060B0B0B0B0B0BE9
:1001A0000B0B010210202008081020401020408076
:1001B000020102010804020101020408102040802B
:1001C00080402010080402018004020180402010B9
:1001D0000804020108040201010204081020408002
:1001E000010204081020408000000A0B02090C0DD7
:1001F0000E080703040100000000000000000000DA
:1002000000000000000000000000000000000000EE
:1002100000000000121110000000000000000000AB
:100220000000000000000000000000000000112499
:100230001FBECFEFD1E2DEBFCDBF00E00CBF22E09A
:10024000A0E0B2E001C01D92A431B207E1F70E9424
:10025000BE020C947F070C940000282F30E0F901B7
:10026000E851FE4F9491F901EE55FE4F4491245A06
:100270003E4FF9012491222309F435C0992311F14D
:1002800091509231F8F4E92FF0E08827E55BFE4FBA
:100290008F4F0C9477077C0180015D017401780118
:1002A0006201830189018D01930197019B01A101E5
:1002B000A5016201A901AF01B301809180008F7790
:1002C00080938000E22FF0E0EE0FFF1FEE5BFE4F09
:1002D000A591B4918FB7F894EC91611148C0409505
:1002E0004E234C938FBF0895809180008F7DE8CF7F
:1002F00080918000877FE4CF84B58F7784BDE2CF83
:1003000084B58F7DFBCF8091B0008F778093B00054
:10031000D9CF8091B0008F7DF9CF809190008F77F9
:1003200080939000CFCF809190008F7DF9CF809106
:100330009000877FF5CF8091A0008F778093A000F9
:10034000C1CF8091A0008F7DF9CF8091A000877FE1
:10035000F5CF809120018F7780932001B3CF8091DA
:1003600020018F7DF9CF80912001877FF5CF4E2B23
:10037000B8CFCF93DF9390E0FC01EE55FE4F249170
:10038000845A9E4FFC0184918823C9F090E0880F25
:10039000991FFC01E85DFE4FA591B491FC01EE5B55
:1003A000FE4FC591D49161110DC09FB7F8948C9107
:1003B000209582238C938881282328839FBFDF91F7
:1003C000CF910895623051F49FB7F8943C91822FF9
:1003D000809583238C93E8812E2BEFCF8FB7F894F1
:1003E000EC912E2B2C938FBFEACF3FB7F8948091DE
:1003F000050290910602A0910702B091080226B56D
:10040000A89B05C02F3F19F00196A11DB11D3FBF4C
:10041000BA2FA92F982F8827BC01CD01620F711D1B
:10042000811D911D42E0660F771F881F991F4A9515
:10043000D1F708958F929F92AF92BF92CF92DF92A1
:10044000EF92FF92D62EE42EF22E682F87E00E94C4
:100450002D016D2D86E00E942D016E2D85E00E94FC
:100460002D016F2D84E00E942D010E94F5014B01AA
:100470005C0182E3C82ED12CE12CF12C0E94F50105
:10048000681979098A099B09683E734081059105BD
:10049000A8F321E0C21AD108E108F10888EE880E1D
:1004A00083E0981EA11CB11CC114D104E104F10425
:1004B00029F7FF90EF90DF90CF90BF90AF909F9083
:1004C0008F9008951F920F920FB60F9211242F93C1
:1004D0003F938F939F93AF93BF938091010290912D
:1004E0000202A0910302B09104023091000223E0C5
:1004F000230F2D3758F50196A11DB11D2093000241
:100500008093010290930202A0930302B09304022D
:100510008091050290910602A0910702B091080215
:100520000196A11DB11D8093050290930602A09330
:100530000702B0930802BF91AF919F918F913F91B5
:100540002F910F900FBE0F901F90189526E8230F44
:100550000296A11DB11DD2CF1F920F920FB60F921E
:1005600011248F938EB58093090281E0809313024A
:100570008F910F900FBE0F901F901895789484B5AF
:10058000826084BD84B5816084BD85B5826085BD8F
:1005900085B5816085BD80916E00816080936E001D
:1005A000109281008091810082608093810080910F
:1005B00081008160809381008091800081608093C0
:1005C00080008091B10084608093B1008091B00080
:1005D00081608093B000809191008260809391004F
:1005E0008091910081608093910080919000816062
:1005F000809390008091A10082608093A1008091FF
:10060000A10081608093A1008091A000816080930F
:10061000A0008091210182608093210180912101BD
:10062000816080932101809120018160809320016D
:1006300080917A00846080937A0080917A00826051
:1006400080937A0080917A00816080937A00809113
:100650007A00806880937A001092C10061E087E0A0
:100660000E94B90161E086E00E94B90161E085E085
:100670000E94B90161E084E00E94B90161E082E377
:100680000E94B90160E083E30E94B90160E084E365
:100690000E94B90162E085E30E94B9018CB58064D3
:1006A0008CBD8CB580688CBDC0E0D0E08091130219
:1006B000882309F4BEC080910902813429F521E024
:1006C00030E050E040E070E060E081E090E00E94C7
:1006D0001A0221E030E050E040E070E060E081E0AC
:1006E00090E00E941A0221E030E050E040E070E02B
:1006F00060E081E090E00E941A0221E030E041E0F9
:1007000050E061E070E00FC221E030E041E050E0F5
:1007100061E070E0823409F4E3C08334A9F521E09C
:1007200030E041E050E061E070E081E090E00E9464
:100730001A0230E020E050E040E070E060E081E04C
:1007400090E00E941A0230E020E050E040E070E0CB
:1007500060E081E090E00E941A0230E020E050E08A
:1007600040E070E060E081E090E00E941A0230E03A
:1007700020E050E040E070E060E081E090E00E9426
:100780001A0230E020E0DFC1843409F058C021E0D3
:1007900030E041E050E061E070E081E090E00E94F4
:1007A0001A0221E030E050E040E070E060E081E0DB
:1007B00090E00E941A0221E030E050E040E070E05A
:1007C00060E081E090E00E941A0221E030E041E028
:1007D00050E061E070E081E090E00E941A0230E0B9
:1007E00020E050E040E070E060E090E080E00E94B7
:1007F0001A0230E020E050E040E070E060E090E07D
:1008000080E00E941A0221E030E050E040E070E019
:1008100060E090E080E00E941A0230E020E050E0CA
:1008200040E070E060E090E080E00E941A021092E8
:100830001302209709F43ACF0E94000037CF21E03D
:1008400030E041E050E061E070E0853441F0863412
:1008500029F530E020E050E040E070E060E081E029
:1008600090E00E941A0230E020E050E040E070E0AA
:1008700060E081E090E00E941A0230E020E050E069
:1008800040E070E060E081E090E00E941A0221E028
:1008900030E041E050E061E070E065CF8734B9F4CA
:1008A00021E030E041E050E061E070E081E090E084
:1008B0000E941A0221E030E050E040E070E060E089
:1008C00081E090E00E941A0221E030E03ECF8834BF
:1008D00009F045C021E030E050E040E070E060E029
:1008E00081E090E00E941A0221E030E050E040E018
:1008F00070E060E081E090E00E941A0221E030E0C8
:1009000050E040E070E060E081E090E00E941A0278
:1009100021E030E041E050E061E070E081E090E013
:100920000E941A0230E020E050E040E070E060E019
:1009300081E090E00E941A0230E020E050E040E0C8
:1009400070E060E081E090E00E941A0230E020E078
:1009500050E040E070E060E081E090E05CCF8934FE
:1009600029F530E020E050E040E070E060E081E018
:1009700090E00E941A0230E020E050E040E070E099
:1009800060E081E090E00E941A0230E020E050E058
:1009900040E070E060E081E090E00E941A0230E008
:1009A00020E050E040E070E060E0B8CF8A34A9F584
:1009B00021E030E041E050E061E070E081E090E073
:1009C0000E941A0221E030E050E040E070E060E078
:1009D00081E090E00E941A0221E030E050E040E027
:1009E00070E060E081E090E00E941A0221E030E0D7
:1009F00050E040E070E060E081E090E00E941A0288
:100A000021E030E050E040E070E060E090E080E025
:100A10000E941A0221E030E0EECE8B34B9F421E0DE
:100A200030E050E040E070E060E081E090E00E9463
:100A30001A0221E030E050E040E070E060E081E048
:100A400090E00E941A0221E030E019CF8C3439F492
:100A500021E030E041E050E061E070E088CF8D348B
:100A6000D9F530E020E050E040E070E060E090E058
:100A700080E00E941A0221E030E050E040E070E0A7
:100A800060E081E090E00E941A0221E030E050E056
:100A900040E070E060E081E090E00E941A0221E016
:100AA00030E050E040E070E060E081E090E00E94E3
:100AB0001A0230E020E050E040E070E060E090E0BA
:100AC00080E00E941A0230E020E050E040E070E058
:100AD00060E090E080E03DC08E3409F043C030E03B
:100AE00020E050E040E070E060E090E080E00E94B4
:100AF0001A0221E030E050E040E070E060E081E088
:100B000090E00E941A0221E030E050E040E070E006
:100B100060E081E090E00E941A0221E030E050E0C5
:100B200040E070E060E081E090E00E941A0221E085
:100B300030E050E040E070E060E081E090E00E9452
:100B40001A0221E030E050E040E070E060E081E037
:100B500090E00E941A0221E030E041E050E061E0C4
:100B600070E0FACE8F3449F421E030E041E050E00B
:100B700061E070E081E090E0BACF8035B9F430E018
:100B800020E050E040E070E060E081E090E00E9412
:100B90001A0230E020E050E040E070E060E081E0E8
:100BA00090E00E941A0230E020E09FCD8135E9F408
:100BB00021E030E050E040E070E060E090E080E074
:100BC0000E941A0221E030E050E040E070E060E076
:100BD00090E080E00E941A0221E030E050E040E026
:100BE00070E060E090E080E086CD823509F530E08D
:100BF00020E050E040E070E060E081E090E00E94A2
:100C00001A0230E020E050E040E070E060E081E077
:100C100090E00E941A0230E020E050E040E070E0F6
:100C200060E081E090E00E941A0230E020E077CF9F
:100C30008335E9F421E030E041E050E061E070E02C
:100C400081E090E00E941A0221E030E050E040E0B4
:100C500070E060E090E080E00E941A0221E030E065
:100C600050E040E070E060E090E080E00ECE84353F
:100C7000B9F421E030E041E050E061E070E081E073
:100C800090E00E941A0230E020E050E040E070E086
:100C900060E081E090E00E941A0230E020E030CE77
:100CA000853509F03FC021E030E041E050E061E0EF
:100CB00070E081E090E00E941A0221E030E050E014
:100CC00040E070E060E081E090E00E941A0221E0E4
:100CD00030E050E040E070E060E081E090E00E94B1
:100CE0001A0221E030E050E040E070E060E081E096
:100CF00090E00E941A0221E030E050E040E070E015
:100D000060E081E090E00E941A0221E030E050E0D3
:100D100040E070E060E081E090E00E941A0230E084
:100D200020E073CD863509F03FC021E030E041E09E
:100D300050E061E070E081E090E00E941A0221E062
:100D400030E050E040E070E060E090E080E00E9441
:100D50001A0221E030E050E040E070E060E090E016
:100D600080E00E941A0221E030E050E040E070E0B4
:100D700060E090E080E00E941A0221E030E050E064
:100D800040E070E060E081E090E00E941A0221E023
:100D900030E050E040E070E060E081E090E00E94F0
:100DA0001A0221E030E0D4CD873509F521E030E0AA
:100DB00041E050E061E070E081E090E00E941A02C2
:100DC00030E020E050E040E070E060E090E080E063
:100DD0000E941A0230E020E050E040E070E060E065
:100DE00090E080E00E941A0230E020E0BECF88351B
:100DF00039F521E030E050E040E070E060E081E073
:100E000090E00E941A0221E030E050E040E070E003
:100E100060E081E090E00E941A0221E030E050E0C2
:100E200040E070E060E081E090E00E941A0221E082
:100E300030E041E050E061E070E081E090E09BCF85
:100E40008935E9F421E030E041E050E061E070E014
:100E500081E090E00E941A0221E030E050E040E0A2
:100E600070E060E090E080E00E941A0221E030E053
:100E700050E040E070E060E090E080E0D6CF8A355E
:100E800009F0CBCC21E030E041E050E061E070E0DF
:100E900081E090E00E941A0230E020E050E040E063
:100EA00070E060E090E080E00E941A0230E020E014
:100EB00050E040E070E060E090E080E00E941A02C4
:100EC00021E030E041E050E061E070E081E090E05E
:100ED0000E941A0221E030E050E040E070E060E063
:100EE00090E080E00E941A0221E030E0EECDEE0FAB
:100EF000FF1F881F8BBF0790F691E02D1994F8947F
:020F0000FFCF21
:00000001FF
