:100000000C942E010C945F010C945F010C945F0121
:100010000C945F010C945F010C945F010C945F01E0
:100020000C945F010C945F010C945F010C945F01D0
:100030000C945F010C94BB060C945F010C945F015F
:100040000C945F010C945F010C945F010C945F01B0
:100050000C945F010C945F010C945F010C945A079F
:100060000C945F010C945F010C945F010C945F0190
:100070000C945F010C945F010C945F010C945F0180
:100080000C945F010C945F010C945F010C945F0170
:100090000C945F010C945F010C945F010C945F0160
:1000A0000C945F010C945F010C945F010C945F0150
:1000B0000C945F010C945F010C945F010C945F0140
:1000C0000C945F010C945F010C945F010C945F0130
:1000D0000C945F010C945F010C945F010C945F0120
:1000E0000C945F010C94B5020C942D020C945302F5
:1000F0000C9412020C9431020C94F5020C944902F7
:100100000C941C020C944D020C9485090C94200252
:100110000C9418020C9452020C9445020C94570251
:100120000C9437020C9484020C943F020C943B0212
:100130000C9424020C9427020000210024002700C4
:100140002A002D00300033000101000004010701E6
:100150000A0100002200250028002B002E0031009B
:10016000340002010000050108010B01000020001D
:100170002300260029002C002F003200000100007F
:10018000030106010901050505050705080808081A
:10019000020202020A0A080804040404010101011F
:1001A000010101010303030303030303040707071A
:1001B0000C0C0C0C0C0C0C0C0202020206060606BF
:1001C000060606060B0B0B0B0B0B0B0B010210208C
:1001D000200808102040102040800201020108047D
:1001E0000201010204081020408080402010080411
:1001F000020180040201804020100804020108046A
:1002000002010102040810204080010204081020AD
:10021000408000000A0B02090C0D0E0807030401C0
:1002200000000000000000000000000000000000CE
:10023000000000000000000000000000000012119B
:10024000100000000000000000000000000000009E
:1002500000000000000000000200850911241FBEFC
:10026000CFEFD1E2DEBFCDBF00E00CBF16E0A0E0D3
:10027000B2E0E4E1F7E100E00BBF02C007900D92AD
:10028000A63EB107D9F727E0A6EEB6E001C01D9261
:10029000AE37B207E1F711E0CEE2D1E000E006C0F0
:1002A00021970109802FFE010E94560BCD32D10704
:1002B00080E00807A9F70E94A4070C94880B0C940F
:1002C000000096E0899FD0011124A15FB84F90965D
:1002D0007C936E935F9791E091969C939197E091B8
:1002E0007C07F0917D0790917B07992339F0309737
:1002F00051F0811108C080912B071994309719F0A3
:100300005C968C91FACF0895CF92DF92EF92FF9294
:100310000F931F9396E0899FF0011124E15FF84F3E
:1003200011A2278D30A12130310551F178F0223012
:10033000310509F451C02330310509F452C01F9131
:100340000F91FF90EF90DF90CF9008956623B9F35F
:1003500061E070E00E9461012FB7F89480910B0773
:1003600090910C07A0910D07B0910E072FBF8093BD
:10037000670790936807A0936907B0936A07DFCF78
:100380009FB7F894C0900B07D0900C07E0900D0732
:10039000F0900E079FBF00916707109168072091AA
:1003A000690730916A07C01AD10AE20AF30A00917C
:1003B000790710917A0730E020E00C151D052E0515
:1003C0003F0550F462E070E01F910F91FF90EF90B5
:1003D000DF90CF900C9461016111B1CF63E070E0C8
:1003E000F3CF70E060E0F0CF8150823108F05AC066
:1003F000E82FF0E08827E050FE4F8F4F0C94560B0B
:1004000020022402120218021C02520227022D02AC
:10041000310237023B023F024502490252024D02BD
:1004200053025702809180008F7780938000089557
:10043000809180008F7DF9CF80918000877FF5CFFC
:1004400084B58F7784BD089584B58F7DFBCF80916F
:10045000B0008F778093B00008958091B0008F7DB9
:10046000F9CF809190008F778093900008958091CC
:1004700090008F7DF9CF80919000877FF5CF80919C
:10048000A0008F778093A00008958091A0008F7DB9
:10049000F9CF8091A000877FF5CF809120018F77E1
:1004A000809320010895809120018F7DF9CF809164
:1004B0002001877FF5CFCF93DF93282F30E0F9011C
:1004C000EE5EFD4F8491F901E453FE4FD491F901A2
:1004D000EA57FE4FC491CC23A1F081110E94F40190
:1004E000EC2FF0E0EE0FFF1FE459FE4FA591B49101
:1004F000EC91ED2381E090E009F480E0DF91CF9171
:10050000089580E090E0FACF862F0C945B021F9351
:10051000CF93DF93282F30E0F901EE5EFD4F8491F9
:10052000F901E453FE4FD491F901EA57FE4FC4910B
:10053000CC23A9F0162F81110E94F401EC2FF0E0DA
:10054000EE0FFF1FEE5AFE4FA591B4918FB7F894AE
:10055000EC91111108C0D095DE23DC938FBFDF91A1
:10056000CF911F910895DE2BF8CF862F642F0C9426
:100570008702CF93DF9390E0FC01E453FE4F249178
:100580008A579E4FFC0184918823C9F090E0880F20
:10059000991FFC01E85CFE4FA591B491FC01EE5A55
:1005A000FE4FC591D49161110DC09FB7F8948C9105
:1005B000209582238C938881282328839FBFDF91F5
:1005C000CF910895623051F49FB7F8943C91822FF7
:1005D000809583238C93E8812E2BEFCF8FB7F894EF
:1005E000EC912E2B2C938FBFEACF862F642F0C9487
:1005F000B9023FB7F8948091000790910107A0914C
:100600000207B091030726B5A89B05C02F3F19F03C
:100610000196A11DB11D3FBFBA2FA92F982F882782
:10062000BC01CD01620F711D811D911D42E0660F5D
:10063000771F881F991F4A95D1F708952F923F92EF
:100640004F925F926F927F928F929F92AF92BF92E2
:10065000CF92DF92EF92FF920F931F93CF93DF938E
:1006600000D000D000D01F921F92CDB7DEB78B0113
:100670009E838D83440F551FCB01840F951F9A874E
:1006800089878EE10E945B02892B09F405C3F8017A
:10069000619171918F018AEF90E00E94010B788740
:1006A0006F832B01770F66087708ED81FE8121901B
:1006B0003190FE83ED8380911802883009F07CC070
:1006C000E8E5F2E0F491FB87F7FDBFC161E088E067
:1006D0000E94B902FB85FF2321F02B85223009F00F
:1006E000E7C14101B12CA12C60E072E18AE790E002
:1006F000A50191010E94370B29833A834B835C83C8
:1007000069017A0181E0C81AD108E108F1089FEF78
:10071000C916D104E104F10409F00CF479C160E4D4
:1007200072E48FE090E0A50191010E94370B69010E
:100730007A01E1E0CE1AD108E108F108FB85F23038
:1007400009F01AC182E02FEFC216D104E104F104CE
:1007500009F00CF409C360E970ED83E090E0A501B5
:1007600091010E94370B69017A0181E0C81AD10812
:10077000E108F10883E09FEFC916D104E104F10418
:1007800009F00CF4F1C268E478EE81E090E0A50194
:1007900091010E94370B69017A0181E0C81AD108E2
:1007A000E108F1089FEFC916D104E104F10411F04A
:1007B0000CF006C184E0D8C28F3F09F046C188E042
:1007C00080931802E8E5F2E0F491FB878F2FFF3F5A
:1007D00009F43BC1F23009F46CC060F4FF2389F1E5
:1007E000F13009F447C087FD30C161E088E00E9424
:1007F000B90273CF2B85243009F49FC008F47CC064
:10080000253089F710922001109221018091210159
:100810008860809321018091210181608093210172
:10082000EEE8F1E08491E82FF0E0EE0FFF1FEE5AC2
:10083000FE4F85919491E4EDF1E084918093E6067A
:1008400045CF14BC15BC84B5826084BD85B581607C
:1008500085BDEEE8F1E08491E82FF0E0EE0FFF1F98
:10086000EE5AFE4F85919491E4EDF1E084918093EE
:10087000EA062CCF109280001092810080918100B6
:1008800088608093810080918100816080938100E5
:10089000EEE8F1E08491E82FF0E0EE0FFF1FEE5A52
:1008A000FE4F85919491E4EDF1E084918093E90607
:1008B0000DCF1092B0001092B1008091B000826014
:1008C0008093B0008091B10081608093B100EEE828
:1008D000F1E08491E82FF0E0EE0FFF1FEE5AFE4F9B
:1008E000859194919093050780930407E4EDF1E0DE
:1008F000849180930607EACE1092900010929100A6
:100900008091910088608093910080919100816036
:1009100080939100EEE8F1E08491E82FF0E0EE0F93
:10092000FF1FEE5AFE4F85919491E4EDF1E0849122
:100930008093E806F3E0FB87C9CE1092A0001092E6
:10094000A1008091A10088608093A1008091A10006
:1009500081608093A100EEE8F1E08491E82FF0E05F
:10096000EE0FFF1FEE5AFE4F85919491E4EDF1E0FA
:1009700084918093E706AACEEFEFCE16D104E1046E
:10098000F10409F00CF492C068E478EE81E090E0A4
:10099000A50191010E94370B69017A01F1E0CF1A9C
:1009A000D108E108F1082B85222309F4A9C1FFEF42
:1009B000CF16D104E104F10409F00CF4FBCEA9C177
:1009C00064E274EF80E090E0A50194010E94370B8F
:1009D00069017A0181E0C81AD108E108F10885E0CF
:1009E0009FEFC916D104E104F10409F008F4BCC179
:1009F00062E17AE780E090E0A50194010E94370B64
:100A000069017A0181E0C81AD108E108F10893C1AF
:100A100081E02B852111A8C195B5987F892B85BDD3
:100A20002FEF3FEFA901411451046104710409F053
:100A300069C0FB85F23009F419C10CF0EEC0FF2348
:100A400009F4F3C0F13009F4FFC0C301B2010E9400
:100A5000080A26E636E646EA5FE30E946C0A0E9430
:100A6000D0096B01770FEE08FF080E94F9024B01D5
:100A70005C01C114D104E104F10409F407C10E942E
:100A8000F902681979098A099B09683E7340810552
:100A9000910578F391E0C91AD108E108F108E8EE70
:100AA0008E0EE3E09E1EA11CB11CE3CF82E0B1CF0D
:100AB000B12CA12C60E072E18AE790E0A5019101E0
:100AC0000E94370B69017A0181E0C81AD108E10858
:100AD000F108C114D10491E0E906F1040CF591E0AC
:100AE000FB85F13071F580918100887F892B80939F
:100AF00081002FEF3FEFA9014114510461047104FB
:100B000009F4A2C09101220F331FAF81B8850E9462
:100B10005E0B28EE33E040E050E00E94150B89CFD9
:100B200068E478EE81E090E0A50191010E94370B26
:100B300069017A01E1E0CE1AD108E108F10893E0F9
:100B4000CFCF2B85233001F580919100887F892BB1
:100B5000809391002FEF3FEFA901411451046104EC
:100B6000710481F6D0929900C09298002093F30608
:100B70003093F4064093F5065093F6068091710089
:100B800082608093710061CF8B85843009F58091FC
:100B9000A100887F892B8093A1002FEF3FEFA9014F
:100BA000411451046104710409F0ACCFD092A90042
:100BB000C092A8002093EF063093F0064093F10610
:100BC0005093F206809172008260809372003DCF54
:100BD000EB85E53009F024CF80912101887F892BB6
:100BE000809321012FEF3FEFA901411451046104CB
:100BF000710409F087CFD0922901C0922801209377
:100C0000EB063093EC064093ED065093EE06809190
:100C1000730082608093730018CF8B85843031F22B
:100C20000CF4A0CF853039F310CFC7BC2093FB065E
:100C30003093FC064093FD065093FE0680916E00B3
:100C4000826080936E0001CFD0928900C0928800AC
:100C50002093F7063093F8064093F9065093FA066E
:100C600080916F00826080936F00EFCEC092B300DE
:100C700020930707309308074093090750930A070A
:100C800080917000826080937000DFCE89859A85A4
:100C90000817190709F0F5CC2B960FB6F894DEBFAC
:100CA0000FBECDBFDF91CF911F910F91FF90EF90BD
:100CB000DF90CF90BF90AF909F908F907F906F907C
:100CC0005F904F903F902F90089584E02FEFC216D1
:100CD000D104E104F10409F008F49ECEC980DA8061
:100CE000EB80FC808AE0F594E794D794C7948A95CA
:100CF000D1F7F1E0CF1AD108E108F10885E08CCEF8
:100D000083E0EFEFCE16D104E104F10409F00CF416
:100D100083CE62E17AE780E090E0A50194010E9431
:100D2000370B69017A01E1E0CE1AD108E108F10838
:100D3000FB85FF2351F286E0EFEFCE16D104E104EC
:100D4000F10491F088F0C980DA80EB80FC809AE0B1
:100D5000F594E794D794C7949A95D1F791E0C91A7E
:100D6000D108E108F10887E09091B100987F892BC4
:100D70008093B10055CE1F920F920FB60F9211249F
:100D80000BB60F922F933F934F935F936F937F9385
:100D90008F939F93AF93BF93EF93FF938091070738
:100DA00090910807A0910907B0910A07892B8A2B17
:100DB0008B2BE1F190910607E0910407F091050774
:100DC0008081892780838091070790910807A091EF
:100DD0000907B0910A07181619061A061B069CF493
:100DE0008091070790910807A0910907B0910A0721
:100DF0000197A109B1098093070790930807A09371
:100E00000907B0930A07FF91EF91BF91AF919F91AE
:100E10008F917F916F915F914F913F912F910F90A3
:100E20000BBE0F900FBE0F901F9018958091180267
:100E3000E8E5F2E0E4919FEF90931802E230E9F0E8
:100E400040F4EE2389F0E13091F060E00E948702E7
:100E5000DACFE43049F110F1E530B9F79091730041
:100E60009D7F90937300F1CF10926E00EECF909122
:100E70006F009D7F90936F00E8CF909170009D7FF1
:100E80009093700091E09093B0009091B100987FA2
:100E900094609093B1001092B300D7CF90917100FD
:100EA0009D7F90937100D1CF909172009D7F909320
:100EB0007200CBCF1F920F920FB60F9211242F9377
:100EC0003F938F939F93AF93BF9380910B07909124
:100ED0000C07A0910D07B0910E073091FF0623E09B
:100EE000230F2D3758F50196A11DB11D2093FF0644
:100EF00080930B0790930C07A0930D07B0930E07F8
:100F00008091000790910107A0910207B09103071B
:100F10000196A11DB11D8093000790930107A09336
:100F20000207B0930307BF91AF919F918F913F91BB
:100F30002F910F900FBE0F901F90189526E8230F4A
:100F40000296A11DB11DD2CF789484B5826084BD74
:100F500084B5816084BD85B5826085BD85B58160BD
:100F600085BD80916E00816080936E00109281003B
:100F700080918100826080938100809181008160F6
:100F800080938100809180008160809380008091B7
:100F9000B10084608093B1008091B0008160809343
:100FA000B0008091910082608093910080919100C7
:100FB0008160809391008091900081608093900087
:100FC0008091A10082608093A1008091A100816046
:100FD0008093A1008091A00081608093A000809107
:100FE00021018260809321018091210181608093A1
:100FF00021018091200181608093200180917A00FD
:10100000846080937A0080917A00826080937A0075
:1010100080917A00816080937A0080917A00806864
:1010200080937A001092C10062E08EE10E94B902C2
:10103000412C512C3201439488248A94982C50E0FE
:10104000C52E50E0D52E51E050937B078FB7F89412
:1010500040910B0750910C0760910D0770910E079E
:101060008FBF80916B0790916C07A0916D07B09135
:101070006E07481B590B6A0B7B0B80917707909189
:101080007807B0E0A0E084179507A607B70708F037
:1010900016C1C0E080917507C81760F4E091710730
:1010A000F0917207EC0FF11D62E080810E94B9029D
:1010B000CF5FF0CF312C80917607381608F05FC0F3
:1010C000032D10E0E0917307F0917407E00FF11F1A
:1010D00061E080810E94B902E0917307F09174078A
:1010E000E00FF11F60E080810E948702D301C201FE
:1010F000032C04C0880F991FAA1FBB1F0A94D2F7A4
:101100005C017C01E094F094212C809175072816F5
:10111000F8F4C22DD0E0E0917107F0917207EC0F66
:10112000FD1F80810E945B022496CC0FDD1FC15FF2
:10113000D84F892B41F4888199818A299B299983E9
:1011400088832394E2CF888199818E219F21F7CFD4
:10115000E0917307F0917407E00FF11F61E0808167
:101160000E9487028091730790917407080F191FDE
:1011700060E0F80180810E94B90233949CCF0FE0B7
:1011800017E0E8018F8D98A1892B21F41C8E9E8E8B
:101190008D8E19A226968BE497E08C179D0791F708
:1011A000B12C80917507B81608F053C0A12CEB2C18
:1011B000F12CEE0CFF1CF701E95EF84F7F01209146
:1011C0007607A21608F043C0F701608171810A2CEE
:1011D00002C0769567950A94E2F7B29E90011124B9
:1011E0002A0D311DEFE0F7E080E0458D568D241784
:1011F000350709F488C08F5F36968A30B1F760FFF3
:1012000024C0EFE0F7E090E080E0448D411118C089
:10121000E0916F07F0917007E20FF31F408156E0F5
:10122000589FF001599FF00D1124E15FF84F448F52
:10123000368F258F10A2178E61E00E94840105C0B1
:10124000019636968A30910501F7A394B8CFB394EE
:10125000A8CF80E0F80191A19111892F0A5F1F4F5B
:101260000C171D07B9F79FB7F89440910B075091E1
:101270000C0760910D0770910E079FBF40936B079D
:1012800050936C0760936D0770936E078823B9F0D5
:1012900080913007882399F080912E0790912F0735
:1012A000019769F480912B07813391F448E350E072
:1012B0006BEF75E08BE696E00E941E0302C0109271
:1012C0007B07C114D10409F4BECE0E940000BBCE3E
:1012D000823339F44EE450E063EC74E08FE595E03E
:1012E000EBCF833339F449E550E069E172E08DECEE
:1012F00092E0E2CF843329F741E550E06FE773E0F5
:1013000081E294E0D9CF617098CF109211071092CA
:10131000150710921407109216078FED96E0909320
:10132000100780930F07EBE2F7E01082148213821C
:101330001582369687E0E736F807B9F784E092E041
:10134000909372078093710780E092E09093740706
:101350008093730784E0809375078093760788E015
:1013600092E09093700780936F078AE090E09093EB
:1013700078078093770784EF91E090937A078093C2
:10138000790710927D0710927C0710926B071092DC
:101390006C0710926D0710926E0710927B070895EC
:1013A0000E94D7096894B1110C94660A08950E94AE
:1013B0004B0A88F09F5798F0B92F9927B751B0F092
:1013C000E1F0660F771F881F991F1AF0BA95C9F7C9
:1013D00014C0B13091F00E94650AB1E008950C94F8
:1013E000650A672F782F8827B85F39F0B93FCCF3AB
:1013F000869577956795B395D9F73EF49095809546
:10140000709561957F4F8F4F9F4F0895E89409C065
:1014100097FB3EF490958095709561957F4F8F4F27
:101420009F4F9923A9F0F92F96E9BB279395F6953D
:10143000879577956795B795F111F8CFFAF4BB0FBB
:1014400011F460FF1BC06F5F7F4F8F4F9F4F16C01F
:10145000882311F096E911C0772321F09EE8872FA9
:10146000762F05C0662371F096E8862F70E060E065
:101470002AF09A95660F771F881FDAF7880F9695DE
:10148000879597F9089557FD9058440F551F59F0C7
:101490005F3F71F04795880F97FB991F61F09F3F61
:1014A00079F087950895121613061406551FF2CF8A
:1014B0004695F1DF08C0161617061806991FF1CFDA
:1014C00086957105610508940895E894BB27662701
:1014D0007727CB0197F908950E947F0A0C94F00AB0
:1014E0000E94E20A38F00E94E90A20F0952311F0E8
:1014F0000C94D90A0C94DF0A11240C94660A0E94F9
:10150000430A70F3959FC1F3950F50E0551F629FFA
:10151000F001729FBB27F00DB11D639FAA27F00D4C
:10152000B11DAA1F649F6627B00DA11D661F829F73
:101530002227B00DA11D621F739FB00DA11D621F58
:10154000839FA00D611D221F749F3327A00D611D75
:10155000231F849F600D211D822F762F6A2F112457
:101560009F5750409AF0F1F088234AF0EE0FFF1F8A
:10157000BB1F661F771F881F91505040A9F79E3FE1
:10158000510580F00C94D90A0C94660A5F3FE4F38D
:10159000983ED4F3869577956795B795F795E79537
:1015A0009F5FC1F7FE2B880F911D9695879597F940
:1015B000089597F99F6780E870E060E008959FEFD5
:1015C00080EC089500240A941616170618060906DA
:1015D000089500240A9412161306140605060895A9
:1015E000092E0394000C11F4882352F0BB0F40F431
:1015F000BF2B11F460FF04C06F5F7F4F8F4F9F4F71
:10160000089597FB072E16F4009407D077FD09D0B4
:101610000E94650B07FC05D03EF4909581959F4F85
:101620000895709561957F4F0895A1E21A2EAA1B27
:10163000BB1BFD010DC0AA1FBB1FEE1FFF1FA21782
:10164000B307E407F50720F0A21BB30BE40BF50B7F
:10165000661F771F881F991F1A9469F76095709508
:10166000809590959B01AC01BD01CF010895052E99
:1016700097FB1EF400940E944E0B57FD07D00E946A
:10168000150B07FC03D04EF40C944E0B509540956F
:10169000309521953F4F4F4F5F4F0895909580951E
:1016A000709561957F4F8F4F9F4F0895EE0FFF1FED
:1016B000881F8BBF0790F691E02D19940E94790B3B
:1016C000B7FF0895821B930B0895AA1BBB1B51E122
:1016D00007C0AA1FBB1FA617B70710F0A61BB70BA2
:1016E000881F991F5A95A9F780959095BC01CD0147
:1016F0000895A29FB001B39FC001A39F700D811DEB
:101700001124911DB29F700D811D1124911D08950A
:04171000F894FFCF7B
:101714001A1B1C1D1617181937383953343536441B
:101724003132332D47303D2BFF04000800040008FC
:101734000004000800080008000800040008000471
:10174400000800040008000800080008000400085D
:101754000004000800040008000800080008000451
:101764000004000800080004000400080008000445
:10177400000400080008000800040008000800082D
:101784000004000400080008000400040008000825
:101794000004000400080004000400080008000815
:1017A4000008000400040008000800040004000805
:1017B40000080004000400080008000800040008F1
:1017C40000080008000400040004000800040008E5
:1017D4000008000800040004000800080026012690
:1017E40001260126012601260126012601260126BD
:1017F40001260126012601260126012601260126AD
:1018040001260126012601260126012601DC000607
:10181400012601260126014A015D015D015D018861
:10182400014A014A0126010601060126010000DCE5
:10183400000601F7002601F7004A015D015D01067B
:101844000106010601060126010601260100000029
:1018540000DC0006012601260126015D01880188BD
:10186400018801B801B801B801B8018801B801269E
:101874000100002601A5005D015D018801B8012673
:1018840001000026015D014A014A015D01260104AF
:101894000008000800040004000400080008000414
:1018A4000004000400080008000200080008000802
:1018B40000080008000800080008000400080008E8
:1018C40000020008000800080008000800080008DA
:1018D40000080008000800080008000800080008C4
:1018E40000080004000800080004000400040008C4
:1018F40000080004000400040008000800040004B8
:10190400000400080008000200080008000800089D
:101914000008000800080008000800080008000883
:10192400000800080008000800040008000800027D
:10193400002601B801B801B80126012601B801B892
:1019440001B8012601B801D2010B02B8014B020B08
:10195400020B02D201D201B801B80188015D0188ED
:10196400010B02B8012601060126014A015D014A64
:10197400015D018801B8010B02D201B80188015D43
:10198400014A0126010601880188018801B801D2B3
:1019940001B80188015D018801B80188015D014A2F
:1019A400015D0188015D014A012601D201B801B837
:1019B40001880188015D015D014A01B8018801883F
:1019C400015D015D014A014A0126015D015D018855
:1019D40001B8010C000C000C000C000C000C000CF5
:1019E400000C000C000C000C000C000C000C000C93
:1019F400000C000C000C000C000C000C000C000C83
:101A0400000C000C000C000C000C000C000C000C72
:101A1400000C000900090009000C000C000C000C6B
:101A2400000C000C000C000C000C000C000C000C52
:101A3400000C000C000C000C000C000C000C000C42
:101A4400000C000C000C000C000C000C000C000C32
:101A5400000900090009000C000C000C000C000C2B
:101A6400000C000C000C000C000C000C000C004DD1
:101A74000A4D0A00004D0A00002D084D0A000040DE
:101A84000C00000000000020060000000000002DF3
:101A940008000000002006000000002705000000E8
:101AA40000E0060000B80700004907E00600002037
:101AB400064D0A400CC00D0000EA0A400C00004D1F
:101AC4000A00002D082D09B807000000002D0800A9
:101AD400000000200600000000270500000000E0D0
:101AE400060000B80700004907E006000020064D84
:101AF4000A400CC00D0000EA0A400C00004D0A0028
:101B0400002D082D09B807000000000C000C000C83
:101B1400000C000C000C00060003000C000C000C70
:101B2400000C000C000C00060003000C000C000C60
:101B3400000C000C000C00060003000C000C000C50
:101B4400000C000C000C000600060012001200122B
:101B54000006000600060006000600060012001239
:101B64000012001200120012000A000A000A000A01
:101B7400000A000A0003000300030006010B02DC54
:101B840000B801E900D2010000000006010B02DCEC
:101B940000B801E900D20100000000AF005D01932C
:101BA4000026019C00370100000000AF005D019396
:101BB4000026019C003701000000003701150126B2
:101BC40001150137013701D000C400150106017267
:101BD400015D01A500D201B8019F013701F700E9B9
:101BE40000DC00D00000000000000000000000F550
:061BF40002B502840200AC
:00000001FF
