:100000000C942E010C945F010C945F010C945F0121
:100010000C945F010C945F010C945F010C945F01E0
:100020000C945F010C945F010C945F010C945F01D0
:100030000C945F010C94B7060C945F010C945F0163
:100040000C945F010C945F010C945F010C945F01B0
:100050000C945F010C945F010C945F010C945607A3
:100060000C945F010C945F010C945F010C945F0190
:100070000C945F010C945F010C945F010C945F0180
:100080000C945F010C945F010C945F010C945F0170
:100090000C945F010C945F010C945F010C945F0160
:1000A0000C945F010C945F010C945F010C945F0150
:1000B0000C945F010C945F010C945F010C945F0140
:1000C0000C945F010C945F010C945F010C945F0130
:1000D0000C945F010C945F010C945F010C945F0120
:1000E0000C945F010C9431020C9437020C941802AA
:1000F0000C9424020C9412020C9461090C944D028D
:100100000C94F5020C942D020C9445020C9484027C
:100110000C9452020C943B020C941C020C94270287
:100120000C943F020C9420020C9453020C9449024C
:100130000C94B5020C945702000021002400270003
:100140002A002D00300033000101000004010701E6
:100150000A01000020002300260029002C002F00A7
:1001600032000001000003010601090100000A0B32
:1001700002090C0D0E080703040100000000000036
:10018000000000000000000000000000000000006F
:10019000000000000000000012111000000000002C
:1001A000000000000000000000000000000000004F
:1001B000000001021020200808102040102040807C
:1001C000020102010804020101020408102040801B
:1001D00080402010080402018004020180402010A9
:1001E00008040201080402010102040810204080F2
:1001F0000102040810204080000022002500280091
:100200002B002E003100340002010000050108011E
:100210000B0105050505070508080808020202028A
:100220000A0A080804040404010101010101010192
:100230000303030303030303040707070C0C0C0C5D
:100240000C0C0C0C02020202060606060606060646
:100250000B0B0B0B0B0B0B0B0200610911241FBEC8
:10026000CFEFD1E2DEBFCDBF00E00CBF12E0A0E0D7
:10027000B2E0ECECF6E100E00BBF02C007900D929B
:10028000AC3DB107D9F723E0ACEDB2E001C01D925F
:10029000A437B207E1F711E0CEE2D1E000E006C0FA
:1002A00021970109802FFE010E94320BCD32D10728
:1002B00080E00807A9F70E94A0070C94640B0C9437
:1002C000000096E0899FD0011124AB51BD4F90965C
:1002D0007C936E935F9791E091969C939197E091B8
:1002E0005203F091530390915103992339F03097C1
:1002F00051F0811108C0809101031994309719F0D1
:100300005C968C91FACF0895CF92DF92EF92FF9294
:100310000F931F9396E0899FF0011124EB51FD4F3D
:1003200011A2278D30A12130310551F178F0223012
:10033000310509F451C02330310509F452C01F9131
:100340000F91FF90EF90DF90CF9008956623B9F35F
:1003500061E070E00E9461012FB7F8948091E102A2
:100360009091E202A091E302B091E4022FBF80934A
:100370003D0390933E03A0933F03B0934003DFCF30
:100380009FB7F894C090E102D090E202E090E302BF
:10039000F090E4029FBF00913D0310913E03209135
:1003A0003F0330914003C01AD10AE20AF30A0091D8
:1003B0004F031091500330E020E00C151D052E0571
:1003C0003F0550F462E070E01F910F91FF90EF90B5
:1003D000DF90CF900C9461016111B1CF63E070E0C8
:1003E000F3CF70E060E0F0CF8150823108F05AC066
:1003F000E82FF0E08827E050FE4F8F4F0C94320B2F
:1004000020022402120218021C02520227022D02AC
:10041000310237023B023F024502490252024D02BD
:1004200053025702809180008F7780938000089557
:10043000809180008F7DF9CF80918000877FF5CFFC
:1004400084B58F7784BD089584B58F7DFBCF80916F
:10045000B0008F778093B00008958091B0008F7DB9
:10046000F9CF809190008F778093900008958091CC
:1004700090008F7DF9CF80919000877FF5CF80919C
:10048000A0008F778093A00008958091A0008F7DB9
:10049000F9CF8091A000877FF5CF809120018F77E1
:1004A000809320010895809120018F7DF9CF809164
:1004B0002001877FF5CFCF93DF93282F30E0F9011C
:1004C000E459FE4F8491F901EE54FE4FD491F901A5
:1004D000EE5EFD4FC491CC23A1F081110E94F40186
:1004E000EC2FF0E0EE0FFF1FEE5AFE4FA591B491F6
:1004F000EC91ED2381E090E009F480E0DF91CF9171
:10050000089580E090E0FACF862F0C945B021F9351
:10051000CF93DF93282F30E0F901E459FE4F849107
:10052000F901EE54FE4FD491F901EE5EFD4FC491F6
:10053000CC23A9F0162F81110E94F401EC2FF0E0DA
:10054000EE0FFF1FE850FE4FA591B4918FB7F894BE
:10055000EC91111108C0D095DE23DC938FBFDF91A1
:10056000CF911F910895DE2BF8CF862F642F0C9426
:100570008702CF93DF9390E0FC01EE54FE4F24916D
:100580008E5E9D4FFC0184918823C9F090E0880F16
:10059000991FFC01E85CFE4FA591B491FC01E85065
:1005A000FE4FC591D49161110DC09FB7F8948C9105
:1005B000209582238C938881282328839FBFDF91F5
:1005C000CF910895623051F49FB7F8943C91822FF7
:1005D000809583238C93E8812E2BEFCF8FB7F894EF
:1005E000EC912E2B2C938FBFEACF862F642F0C9487
:1005F000B9023FB7F8948091DD029091DE02A0919C
:10060000DF02B091E00226B5A89B05C02F3F19F08C
:100610000196A11DB11D3FBFBA2FA92F982F882782
:10062000BC01CD01620F711D811D911D42E0660F5D
:10063000771F881F991F4A95D1F708952F923F92EF
:100640004F925F926F927F928F929F92AF92BF92E2
:10065000CF92DF92EF92FF920F931F93CF93DF938E
:1006600000D000D000D01F921F92CDB7DEB789E135
:1006700092E09A838983E5E7F2E0F887EF830AE165
:1006800012E08EE10E945B02892B09F401C3E9812B
:10069000FA8161917191FA83E9838AEF90E00E9477
:1006A000DD0A7A8769872B01770F66087708EF8163
:1006B000F88521903190F887EF8380911802883077
:1006C00009F07CC0E8E5F2E0F491FB87F7FDB9C1E1
:1006D00061E088E00E94B902FB85FF2321F02B85B1
:1006E000223009F0E1C14101B12CA12C60E072E19E
:1006F0008AE790E0A50191010E94130B2B833C83B4
:100700004D835E8369017A0181E0C81AD108E1084E
:10071000F1089FEFC916D104E104F10409F00CF4CB
:1007200073C160E472E48FE090E0A50191010E9442
:10073000130B69017A01E1E0CE1AD108E108F10852
:10074000FB85F23009F014C182E02FEFC216D1040C
:10075000E104F10409F00CF403C360E970ED83E0F7
:1007600090E0A50191010E94130B69017A0181E0DB
:10077000C81AD108E108F10883E09FEFC916D10437
:10078000E104F10409F00CF4EBC268E478EE81E0D6
:1007900090E0A50191010E94130B69017A01E1E04B
:1007A000CE1AD108E108F108FFEFCF16D104E10419
:1007B000F10411F00CF000C184E0D2C28F3F09F0C7
:1007C00040C188E080931802E8E5F2E0F491FB87ED
:1007D0008F2FFF3F09F435C1F23009F469C060F48E
:1007E000FF2381F1F13009F445C087FD2AC161E0A2
:1007F00088E00E94B90273CF2B85243009F49AC097
:1008000008F478C0253089F7109220011092210158
:100810008091210188608093210180912101816074
:1008200080932101F8018491E82FF0E0EE0FFF1F83
:10083000E850FE4F85919491EAEBF1E0849180932A
:10084000540346CF14BC15BC84B5826084BD85B505
:10085000816085BDF8018491E82FF0E0EE0FFF1F65
:10086000E850FE4F85919491EAEBF1E084918093FA
:100870005B032ECF10928000109281008091810046
:1008800088608093810080918100816080938100E5
:10089000F8018491E82FF0E0EE0FFF1FE850FE4FC3
:1008A00085919491EAEBF1E0849180935A0310CF03
:1008B0001092B0001092B1008091B00082608093DD
:1008C000B0008091B10081608093B100F801849103
:1008D000E82FF0E0EE0FFF1FE850FE4F8591949156
:1008E0009093590380935803EAEBF1E0849180934D
:1008F0005703EECE109290001092910080919100DB
:100900008860809391008091910081608093910034
:10091000F8018491E82FF0E0EE0FFF1FE850FE4F42
:1009200085919491EAEBF1E0849180935603F3E092
:10093000FB87CECE1092A0001092A1008091A10062
:1009400088608093A1008091A10081608093A100C4
:10095000F8018491E82FF0E0EE0FFF1FE850FE4F02
:1009600085919491EAEBF1E0849180935503B0CEA8
:10097000EFEFCE16D104E104F10409F00CF492C0BB
:1009800068E478EE81E090E0A50191010E94130BEC
:1009900069017A01F1E0CF1AD108E108F1082B854D
:1009A000222309F4A9C18FEFC816D104E104F10490
:1009B00009F00CF401CFA9C164E274EF80E090E08B
:1009C000A50194010E94130B69017A0181E0C81A04
:1009D000D108E108F10885E09FEFC916D104E104D0
:1009E000F10409F008F4BCC162E17AE780E090E02C
:1009F000A50194010E94130B69017A0191E0C91AC3
:100A0000D108E108F10893C181E02B852111A8C12B
:100A100095B5987F892B85BD2FEF3FEFA901411434
:100A200051046104710409F069C0FB85F23009F4D6
:100A300019C10CF0EEC0FF2309F4F3C0F13009F442
:100A4000FFC0C301B2010E94E40926E636E646EA89
:100A50005FE30E94480A0E94AC096B01770FEE0821
:100A6000FF080E94F9024B015C01C114D104E104AA
:100A7000F10409F407C10E94F902681979098A0989
:100A80009B09683E73408105910578F391E0C91A8E
:100A9000D108E108F108E8EE8E0EE3E09E1EA11CED
:100AA000B11CE3CF82E0B1CFB12CA12C60E072E1A8
:100AB0008AE790E0A50191010E94130B69017A0178
:100AC00081E0C81AD108E108F108C114D10491E00D
:100AD000E906F1040CF591E0FB85F13071F58091A8
:100AE0008100887F892B809381002FEF3FEFA90140
:100AF000411451046104710409F4A2C09101220F50
:100B0000331FA985BA850E943A0B28EE33E040E0F6
:100B100050E00E94F10A89CF68E478EE81E090E02D
:100B2000A50191010E94130B69017A01E1E0CE1A3F
:100B3000D108E108F10893E0CFCF2B85233001F5F0
:100B400080919100887F892B809391002FEF3FEF58
:100B5000A901411451046104710481F6D0929900F5
:100B6000C09298002093640330936503409366031A
:100B7000509367038091710082608093710061CF10
:100B80008B85843009F58091A100887F892B809323
:100B9000A1002FEF3FEFA90141145104610471043A
:100BA00009F0ACCFD092A900C092A80020936003B6
:100BB000309361034093620350936303809172000A
:100BC0008260809372003DCFEB85E53009F024CF41
:100BD00080912101887F892B809321012FEF3FEFA6
:100BE000A901411451046104710409F087CFD09226
:100BF0002901C092280120935C0330935D03409348
:100C00005E0350935F038091730082608093730052
:100C100018CF8B85843031F20CF4A0CF853039F3B6
:100C200010CFC7BC209370033093710340937203BD
:100C30005093730380916E00826080936E0001CFA9
:100C4000D0928900C092880020936C0330936D038A
:100C500040936E0350936F0380916F008260809386
:100C60006F00EFCEC092B300209368033093690306
:100C700040936A0350936B0380917000826080936D
:100C80007000DFCE89819A818557924009F0F9CCB6
:100C90002B960FB6F894DEBF0FBECDBFDF91CF917C
:100CA0001F910F91FF90EF90DF90CF90BF90AF908A
:100CB0009F908F907F906F905F904F903F902F907C
:100CC000089584E09FEFC916D104E104F10409F00E
:100CD00008F49ECECB80DC80ED80FE808AE0F59427
:100CE000E794D794C7948A95D1F781E0C81AD108C0
:100CF000E108F10885E08CCE83E02FEFC216D10425
:100D0000E104F10409F00CF483CE62E17AE780E0BB
:100D100090E0A50194010E94130B69017A01E1E0C2
:100D2000CE1AD108E108F108FB85FF2351F286E0D5
:100D30002FEFC216D104E104F10491F088F0CB80CA
:100D4000DC80ED80FE809AE0F594E794D794C79418
:100D50009A95D1F7F1E0CF1AD108E108F10887E0C0
:100D60009091B100987F892B8093B10055CE1F924E
:100D70000F920FB60F9211240BB60F922F933F9341
:100D80004F935F936F937F938F939F93AF93BF9393
:100D9000EF93FF938091680390916903A0916A0398
:100DA000B0916B03892B8A2B8B2BE1F19091570328
:100DB000E0915803F09159038081892780838091C5
:100DC000680390916903A0916A03B0916B031816B0
:100DD00019061A061B069CF480916803909169031A
:100DE000A0916A03B0916B030197A109B1098093A7
:100DF000680390936903A0936A03B0936B03FF9118
:100E0000EF91BF91AF919F918F917F916F915F9182
:100E10004F913F912F910F900BBE0F900FBE0F90EF
:100E20001F90189580911802E8E5F2E0E4919FEF99
:100E300090931802E230E9F040F4EE2389F0E130BB
:100E400091F060E00E948702DACFE43049F110F1BE
:100E5000E530B9F7909173009D7F90937300F1CFC7
:100E600010926E00EECF90916F009D7F90936F0077
:100E7000E8CF909170009D7F9093700091E09093E7
:100E8000B0009091B100987F94609093B10010925F
:100E9000B300D7CF909171009D7F90937100D1CF17
:100EA000909172009D7F90937200CBCF1F920F9212
:100EB0000FB60F9211242F933F938F939F93AF936D
:100EC000BF938091E1029091E202A091E302B09180
:100ED000E4023091DC0223E0230F2D3758F5019610
:100EE000A11DB11D2093DC028093E1029093E202E8
:100EF000A093E302B093E4028091DD029091DE02C0
:100F0000A091DF02B091E0020196A11DB11D809376
:100F1000DD029093DE02A093DF02B093E002BF9166
:100F2000AF919F918F913F912F910F900FBE0F9096
:100F30001F90189526E8230F0296A11DB11DD2CF50
:100F4000789484B5826084BD84B5816084BD85B5A4
:100F5000826085BD85B5816085BD80916E008160B0
:100F600080936E0010928100809181008260809356
:100F70008100809181008160809381008091800058
:100F80008160809380008091B10084608093B10083
:100F90008091B00081608093B00080919100826068
:100FA0008093910080919100816080939100809165
:100FB00090008160809390008091A1008260809376
:100FC000A1008091A10081608093A1008091A00088
:100FD00081608093A0008091210182608093210133
:100FE00080912101816080932101809120018160A5
:100FF0008093200180917A00846080937A008091B0
:101000007A00826080937A0080917A008160809378
:101010007A0080917A00806880937A001092C100F3
:1010200062E08EE10E94B902812C912C54018394DC
:1010300044244A94542C50E0652E50E0752E51E023
:10104000509351038FB7F8944091E1025091E2021E
:101050006091E3027091E4028FBF8091410390910F
:101060004203A0914303B0914403481B590B6A0B00
:101070007B0B80914D0390914E03B0E0A0E084176C
:101080009507A607B70708F011C1C0E080914B0390
:10109000C81760F4E0914703F0914803EC0FF11D8D
:1010A00062E080810E94B902CF5FF0CF312C809145
:1010B0004C03381608F05FC0032D10E0E09149039F
:1010C000F0914A03E00FF11F61E080810E94B902B4
:1010D000E0914903F0914A03E00FF11F60E0808145
:1010E0000E948702D501C401032C04C0880F991FF8
:1010F000AA1FBB1F0A94D2F76C017C01E094F09404
:10110000212C80914B032816F8F4C22DD0E0E091F9
:101110004703F0914803EC0FFD1F80810E945B02A2
:101120002496CC0FDD1FCB51DD4F892B41F48881F4
:1011300099818C299D29998388832394E2CF888182
:1011400099818E219F21F7CFE0914903F0914A03C5
:10115000E00FF11F61E080810E94870280914903C6
:1011600090914A03080F191F60E0F80180810E94E6
:10117000B90233949CCF05EE12E0E8018F8D98A15F
:10118000892B21F41C8E5E8E4D8E19A2269681E24B
:1011900093E08C179D0791F7D12C80914B03D816C3
:1011A00008F053C0C12CED2CF12CEE0CFF1CF70104
:1011B000E351FD4F7F0120914C03C21608F043C05C
:1011C000F701608171810C2C02C0769567950A94B5
:1011D000E2F7D29E900111242C0D311DE5EEF2E0D4
:1011E00080E0458D568D2417350709F468C08F5F60
:1011F00036968A30B1F760FF24C0E5EEF2E090E069
:1012000080E0448D411118C0E0914503F091460300
:10121000E20FF31F408156E0589FF001599FF00DF7
:101220001124EB51FD4F448F368F258F10A2178E5E
:1012300061E00E94840105C0019636968A309105CE
:1012400001F7C394B8CFD394A8CF80E0F80191A15F
:101250009111892F0A5F1F4F0C171D07B9F79FB710
:10126000F8944091E1025091E2026091E3027091A2
:10127000E4029FBF409341035093420360934303B2
:1012800070934403882391F080910603882371F0C2
:101290008091040390910503019741F4809101032B
:1012A0008153843028F40E941E0302C0109251031F
:1012B0006114710409F4C3CE0E940000C0CE6170B5
:1012C000B8CF1092E7021092EB021092EA0210924D
:1012D000EC0285ED92E09093E6028093E502E1E076
:1012E000F3E01082148213821582369683E0ED3388
:1012F000F807B9F784E092E090934803809347039E
:1013000080E092E090934A038093490384E08093C5
:101310004B0380934C0388E092E0909346038093C4
:1013200045038AE090E090934E0380934D0384EF51
:1013300091E09093500380934F03109253031092C7
:1013400052031092410310924203109243031092F1
:1013500044031092510308950E94B3096894B11197
:101360000C94420A08950E94270A88F09F5798F02B
:10137000B92F9927B751B0F0E1F0660F771F881F9A
:10138000991F1AF0BA95C9F714C0B13091F00E94B4
:10139000410AB1E008950C94410A672F782F8827FD
:1013A000B85F39F0B93FCCF3869577956795B395DB
:1013B000D9F73EF490958095709561957F4F8F4F4A
:1013C0009F4F0895E89409C097FB3EF4909580954F
:1013D000709561957F4F8F4F9F4F9923A9F0F92FFB
:1013E00096E9BB279395F695879577956795B79579
:1013F000F111F8CFFAF4BB0F11F460FF1BC06F5F5F
:101400007F4F8F4F9F4F16C0882311F096E911C070
:10141000772321F09EE8872F762F05C0662371F091
:1014200096E8862F70E060E02AF09A95660F771FA5
:10143000881FDAF7880F9695879597F9089557FDD5
:101440009058440F551F59F05F3F71F04795880F32
:1014500097FB991F61F09F3F79F0879508951216C9
:1014600013061406551FF2CF4695F1DF08C0161675
:1014700017061806991FF1CF869571056105089426
:101480000895E894BB2766277727CB0197F908953D
:101490000E945B0A0C94CC0A0E94BE0A38F00E949B
:1014A000C50A20F0952311F00C94B50A0C94BB0AE0
:1014B00011240C94420A0E941F0A70F3959FC1F3F5
:1014C000950F50E0551F629FF001729FBB27F00DF2
:1014D000B11D639FAA27F00DB11DAA1F649F662747
:1014E000B00DA11D661F829F2227B00DA11D621F96
:1014F000739FB00DA11D621F839FA00D611D221F50
:10150000749F3327A00D611D231F849F600D211D33
:10151000822F762F6A2F11249F5750409AF0F1F0B6
:1015200088234AF0EE0FFF1FBB1F661F771F881F1F
:1015300091505040A9F79E3F510580F00C94B50A98
:101540000C94420A5F3FE4F3983ED4F38695779576
:101550006795B795F795E7959F5FC1F7FE2B880FC5
:10156000911D9695879597F9089597F99F6780E85B
:1015700070E060E008959FEF80EC089500240A94E5
:101580001616170618060906089500240A9412165E
:101590001306140605060895092E0394000C11F491
:1015A000882352F0BB0F40F4BF2B11F460FF04C03E
:1015B0006F5F7F4F8F4F9F4F089597FB072E16F455
:1015C000009407D077FD09D00E94410B07FC05D09D
:1015D0003EF4909581959F4F0895709561957F4F4A
:1015E0000895A1E21A2EAA1BBB1BFD010DC0AA1F64
:1015F000BB1FEE1FFF1FA217B307E407F50720F07C
:10160000A21BB30BE40BF50B661F771F881F991FF6
:101610001A9469F760957095809590959B01AC013F
:10162000BD01CF010895052E97FB1EF400940E9482
:101630002A0B57FD07D00E94F10A07FC03D04EF495
:101640000C942A0B50954095309521953F4F4F4F64
:101650005F4F089590958095709561957F4F8F4F5E
:101660009F4F0895EE0FFF1F881F8BBF0790F691C5
:10167000E02D19940E94550BB7FF0895821B930B20
:101680000895AA1BBB1B51E107C0AA1FBB1FA617C9
:10169000B70710F0A61BB70B881F991F5A95A9F71B
:1016A00080959095BC01CD010895A29FB001B39F94
:1016B000C001A39F700D811D1124911DB29F700D5B
:0C16C000811D1124911D0895F894FFCFA6
:1016CC001A1B1C1D16171819373839533435364464
:1016DC003132332D47303D2BFF0C000C000C000C2D
:1016EC00000C000C000C000C000C000C000C000C8E
:1016FC00000800180006000C000C000C000C000C7C
:10170C00000C000C000C000C000C000C000C000871
:10171C0000180006000C000C000C000C000C00184B
:10172C000018000C000C000C00180018000C000C29
:10173C00000C000C004A014A015D01880188015D22
:10174C00014A0126010601060126014A014A012629
:10175C000126014A014A015D01880188015D014AA7
:10176C000126010601060126014A01260106010691
:10177C0001260126014A01060126014A015D014AA2
:10178C0001060126014A015D014A012601060126D6
:0C179C000100000000F502B5028402000C
:00000001FF
