:100000000C942D010C945E010C945E010C945E0125
:100010000C945E010C945E010C945E010C945E01E4
:100020000C945E010C945E010C945E010C945E01D4
:100030000C945E010C945E010C945E010C945E01C4
:100040000C945E010C945E010C945E010C945E01B4
:100050000C945E010C945E010C945E010C94F80209
:100060000C945E010C945E010C945E010C945E0194
:100070000C945E010C945E010C945E010C945E0184
:100080000C945E010C945E010C945E010C945E0174
:100090000C945E010C945E010C945E010C945E0164
:1000A0000C945E010C945E010C945E010C945E0154
:1000B0000C945E010C945E010C945E010C945E0144
:1000C0000C945E010C945E010C945E010C945E0134
:1000D0000C945E010C945E010C945E010C945E0124
:1000E0000C945E010C9411020C941F020C942602D5
:1000F0000C943E020C941B020C943A020C941805CA
:100100000C9417020C942C020C9452020C94F402DE
:100110000C94B4020C9423020C9456020C945102D9
:100120000C9444020C944C020C9430020C94830204
:100130000C9448020C943602000021002400270091
:100140002A002D00300033000101000004010701E6
:100150000A0100002200250028002B002E0031009B
:10016000340002010000050108010B01000020001D
:100170002300260029002C002F003200000100007F
:10018000030106010901050505050705080808081A
:10019000020202020A0A080804040404010101011F
:1001A000010101010303030303030303040707071A
:1001B0000C0C0C0C0C0C0C0C0202020206060606BF
:1001C000060606060B0B0B0B0B0B0B0B010210208C
:1001D000200808102040102040800201020108047D
:1001E0000201010204081020408080402010080411
:1001F000020180040201804020100804020108046A
:1002000002010102040810204080010204081020AD
:10021000408000000A0B02090C0D0E0807030401C0
:1002200000000000000000000000000000000000CE
:10023000000000000000000000000000000012119B
:10024000100000000000000000000000000000009E
:100250000000000000000000180511241FBECFEFB1
:10026000D1E2DEBFCDBF00E00CBF12E0A0E0B2E003
:10027000EAEDFAE000E00BBF02C007900D92A23257
:10028000B107D9F722E0A2E2B2E001C01D92AA397B
:10029000B207E1F711E0CDE2D1E000E006C021971E
:1002A0000109802FFE010E946305CC32D10780E056
:1002B0000807A9F70E9442030C946B050C940000F8
:1002C00096E0899FD0011124A55DBD4F90967C9347
:1002D0006E935F9791E091969C939197E09198022D
:1002E000F091990290919702992339F0309751F04B
:1002F000811108C0809147021994309719F05C96DB
:100300008C91FACF0895CF92DF92EF92FF920F93E4
:100310001F9396E0899FF0011124E55DFD4F11A226
:10032000278D30A12130310551F178F0223031058F
:1003300009F451C02330310509F452C01F910F91C7
:10034000FF90EF90DF90CF9008956623B9F361E0BE
:1003500070E00E9460012FB7F8948091270290917D
:100360002802A0912902B0912A022FBF8093830214
:1003700090938402A0938502B0938602DFCF9FB74B
:10038000F894C0902702D0902802E0902902F090C3
:100390002A029FBF0091830210918402209185025E
:1003A00030918602C01AD10AE20AF30A009195023E
:1003B0001091960230E020E00C151D052E053F053A
:1003C00050F462E070E01F910F91FF90EF90DF908A
:1003D000CF900C9460016111B1CF63E070E0F3CF76
:1003E00070E060E0F0CF8150823108F05AC0E82F11
:1003F000F0E08827E150FE4F8F4F0C9463051F02F9
:100400002302110217021B02510226022C023002A3
:1004100036023A023E024402480251024C025202A3
:100420005602809180008F7780938000089580919C
:1004300080008F7DF9CF80918000877FF5CF84B5D4
:100440008F7784BD089584B58F7DFBCF8091B000F8
:100450008F778093B00008958091B0008F7DF9CFA1
:10046000809190008F778093900008958091900004
:100470008F7DF9CF80919000877FF5CF8091A0008C
:100480008F778093A00008958091A0008F7DF9CF91
:100490008091A000877FF5CF809120018F77809396
:1004A00020010895809120018F7DF9CF8091200156
:1004B000877FF5CFCF93DF93282F30E0F901EE5EF1
:1004C000FD4F8491F901E453FE4FD491F901EA57AD
:1004D000FE4FC491CC23A1F081110E94F301EC2FB7
:1004E000F0E0EE0FFF1FE459FE4FA591B491EC919F
:1004F000ED2381E090E009F480E0DF91CF91089551
:1005000080E090E0FACF862F0C945A021F93CF938D
:10051000DF93282F30E0F901EE5EFD4F8491F90161
:10052000E453FE4FD491F901EA57FE4FC491CC2316
:10053000A9F0162F81110E94F301EC2FF0E0EE0FCD
:10054000FF1FEE5AFE4FA591B4918FB7F894EC912E
:10055000111108C0D095DE23DC938FBFDF91CF91BE
:100560001F910895DE2BF8CF862F642F0C948602FE
:10057000CF93DF9390E0FC01E453FE4F24918A5720
:100580009E4FFC0184918823C9F090E0880F991F49
:10059000FC01E85CFE4FA591B491FC01EE5AFE4FC0
:1005A000C591D49161110DC09FB7F8948C9120959D
:1005B00082238C938881282328839FBFDF91CF914A
:1005C0000895623051F49FB7F8943C91822F809542
:1005D00083238C93E8812E2BEFCF8FB7F894EC9187
:1005E0002E2B2C938FBFEACF862F642F0C94B8024A
:1005F0001F920F920FB60F9211242F933F938F9358
:100600009F93AF93BF938091270290912802A0916E
:100610002902B0912A023091260223E0230F2D37C0
:1006200058F50196A11DB11D209326028093270243
:1006300090932802A0932902B0932A02809122026B
:1006400090912302A0912402B09125020196A11D50
:10065000B11D8093220290932302A0932402B093B1
:100660002502BF91AF919F918F913F912F910F9054
:100670000FBE0F901F90189526E8230F0296A11D1C
:10068000B11DD2CF789484B5826084BD84B5816079
:1006900084BD85B5826085BD85B5816085BD80914D
:1006A0006E00816080936E001092810080918100C5
:1006B00082608093810080918100816080938100BD
:1006C000809180008160809380008091B10084607F
:1006D0008093B1008091B00081608093B0008091E0
:1006E000910082608093910080919100816080935D
:1006F0009100809190008160809390008091A10092
:1007000082608093A1008091A10081608093A1000C
:100710008091A00081608093A0008091210182607F
:10072000809321018091210181608093210180913A
:10073000200181608093200180917A008460809301
:100740007A0080917A00826080937A0080917A00AA
:10075000816080937A0080917A00806880937A002B
:100760001092C100C2E061E08C2F0E94B802CF5FFE
:10077000CB30C9F7812C912C5401839444244A94A2
:10078000542C50E0652E50E0752E51E050939702A6
:100790008FB7F89440912702509128026091290266
:1007A00070912A028FBF8091870290918802A09158
:1007B0008902B0918A02481B590B6A0B7B0B80910E
:1007C000930290919402B0E0A0E084179507A607E9
:1007D000B70708F010C1C0E080919102C81760F41B
:1007E000E0918D02F0918E02EC0FF11D62E08081AC
:1007F0000E94B802CF5FF0CF312C80919202381660
:1008000008F05FC0032D10E0E0918F02F09190029C
:10081000E00FF11F61E080810E94B802E0918F0239
:10082000F0919002E00FF11F60E080810E9486024B
:10083000D501C401032C04C0880F991FAA1FBB1F38
:100840000A94D2F76C017C01E094F094212C809101
:1008500091022816F8F4C22DD0E0E0918D02F091BB
:100860008E02EC0FFD1F80810E945A022496CC0F4D
:10087000DD1FC55DDD4F892B41F4888199818C296D
:100880009D29998388832394E2CF888199818E2141
:100890009F21F7CFE0918F02F0919002E00FF11FBE
:1008A00061E080810E94860280918F029091900287
:1008B000080F191F60E0F80180810E94B80233948C
:1008C0009CCFCBE2D2E0FE01878D90A1892B21F451
:1008D000148E568E458E11A2369652E0E736F507F5
:1008E00099F7F12C80919102F81608F051C0E12C93
:1008F0000F2D10E0000F111F0D5C1D4F2091920273
:10090000E21608F043C0F801608171810E2C02C02C
:10091000769567950A94E2F7F29E900111242E0DC8
:10092000311DEBE2F2E080E0458D568D241735074E
:1009300009F47CC08F5F36968A30B1F760FF24C01F
:10094000EBE2F2E090E080E0448D411118C0E091CC
:100950008B02F0918C02E20FF31F408156E0589F0A
:10096000F001599FF00D1124E55DFD4F448F368F46
:10097000258F10A2178E61E00E94830105C00196A9
:1009800036968A30910501F7E394B8CFF394AACF55
:1009900080E099A19111892F269692E0C736D90758
:1009A000C1F79FB7F89440912702509128026091B7
:1009B000290270912A029FBF4093870250938802B8
:1009C0006093890270938A028823A9F080914C0277
:1009D000882389F080914A0290914B02019759F443
:1009E000C0914702C1110AC06114710409F4CDCE4F
:1009F0000E940000CACE10929702F6CF0C2E000C77
:100A0000DD0B12E060E0812F0E9486021F5F1B3029
:100A1000C9F702E010E0AF97C017D1072CF361E0EF
:100A2000802F0E9486020F5F1F4FF6CF6170A4CF08
:100A300010922D0210923102109230021092320266
:100A40008CE192E090932C0280932B02E7E4F2E099
:100A50001082148213821582369682E0E338F807FA
:100A6000B9F784E092E090938E0280938D0280E04B
:100A700092E09093900280938F0284E080939102A1
:100A80008093920288E092E090938C0280938B0294
:100A90008AE090E0909394028093930284EF91E037
:100AA0009093960280939502109299021092980268
:100AB00010928702109288021092890210928A0284
:100AC000109297020895EE0FFF1F881F8BBF0790AB
:0A0AD000F691E02D1994F894FFCF81
:100ADA001A1B1C1D161718193738392F3435362AA0
:100AEA003132332D43303D2B00000000F402B402B2
:020AFA00830275
:00000001FF
