:100000000C9438010C9469010C9469010C946901F9
:100010000C9469010C9469010C9469010C946901B8
:100020000C9469010C9469010C9469010C946901A8
:100030000C9469010C9469010C9469010C94690198
:100040000C9469010C9469010C9469010C94690188
:100050000C9469010C9469010C9469010C94DA0404
:100060000C9469010C9469010C9469010C94690168
:100070000C9469010C9469010C9469010C94690158
:100080000C9469010C9469010C9469010C94690148
:100090000C9469010C9469010C9469010C94690138
:1000A0000C9469010C9469010C9469010C94690128
:1000B0000C9469010C9469010C9469010C94690118
:1000C0000C9469010C9469010C9469010C94690108
:1000D0000C9469010C9469010C9469010C946901F8
:1000E0000C9469010C9476020C94EC020C9472024C
:1000F0000C9449020C9489020C948B040C946402B5
:100100000C9480020C947C020C9484020C943103B5
:100110000C944F020C9457020C94BB020C94FE01F9
:100120000C945E020C945B020C9468020C948A029C
:100130000C948E020C946E020C9453020C942C03BB
:100140000C9410080C9486070C94300300002100D6
:10015000240027002A002D00300033000101000098
:10016000040107010A0100002200250028002B00DD
:100170002E003100340002010000050108010B01CE
:10018000000020002300260029002C002F00320050
:100190000001000003010601090105050505070529
:1001A00008080808020202020A0A080804040404F3
:1001B000010101010101010103030303030303031F
:1001C000040707070C0C0C0C0C0C0C0C02020202AE
:1001D00006060606060606060B0B0B0B0B0B0B0B97
:1001E0000102102020080810204010204080020149
:1001F000020108040201010204081020408080402E
:10020000201008040201800402018040201008042C
:1002100002010804020101020408102040800102CA
:1002200004081020408000000A0B02090C0D0E0883
:1002300007030401000000000000000000000000AF
:1002400000000000000000000000000000000000AE
:10025000000012111000000000000000000000006B
:1002600000000000000000000000000086071008E9
:1002700011241FBECFEFD1E2DEBFCDBF00E00CBF27
:1002800022E0ACE5B2E001C01D92A63FB207E1F763
:1002900012E0A0E0B2E0E4EAF4E100E00BBF02C04B
:1002A00007900D92AC35B107D9F711E0C7E3D1E063
:1002B00000E006C021970109802FFE010E94190865
:1002C000C633D10780E00807A9F70E9424050C94E3
:1002D000400A0C94000096E0899FD0011124A55992
:1002E000BD4F90967C936E935F9791E091969C930F
:1002F0009197E091D802F091D9029091D702992379
:1003000039F0309751F0811108C08091870219941B
:10031000309719F05C968C91FACF0895CF92DF92C6
:10032000EF92FF920F931F9396E0899FF0011124A3
:10033000E559FD4F11A2278D30A12130310551F132
:1003400078F02230310509F451C02330310509F429
:1003500052C01F910F91FF90EF90DF90CF900895C2
:100360006623B9F361E070E00E946B012FB7F89447
:100370008091670290916802A0916902B0916A022F
:100380002FBF8093C3029093C402A093C502B09381
:10039000C602DFCF9FB7F894C0906702D090680282
:1003A000E0906902F0906A029FBF0091C302109131
:1003B000C4022091C5023091C602C01AD10AE20AD5
:1003C000F30A0091D5021091D60230E020E00C151E
:1003D0001D052E053F0550F462E070E01F910F915E
:1003E000FF90EF90DF90CF900C946B016111B1CF33
:1003F00063E070E0F3CF70E060E0F0CFAF92BF92C7
:10040000CF92DF92EF92FF920F931F93CF93DF93E0
:100410006C017B018B01040F151FEB015E01AE180F
:10042000BF08C017D10759F06991D601ED91FC9131
:100430000190F081E02DC6011995892B79F7C5014E
:10044000DF91CF911F910F91FF90EF90DF90CF90B0
:10045000BF90AF9008958150823108F05AC0E82FC4
:10046000F0E08827E95CFD4F8F4F0C941908570284
:100470005B0249024F02530289025E026402680273
:100480006E02720276027C028002890284028A0273
:100490008E02809180008F778093800008958091F4
:1004A00080008F7DF9CF80918000877FF5CF84B564
:1004B0008F7784BD089584B58F7DFBCF8091B00088
:1004C0008F778093B00008958091B0008F7DF9CF31
:1004D000809190008F778093900008958091900094
:1004E0008F7DF9CF80919000877FF5CF8091A0001C
:1004F0008F778093A00008958091A0008F7DF9CF21
:100500008091A000877FF5CF809120018F77809325
:1005100020010895809120018F7DF9CF80912001E5
:10052000877FF5CFCF93DF93282F30E0F901EA5D85
:10053000FD4F8491F901E052FE4FD491F901E65646
:10054000FE4FC491CC23A1F081110E942B02EC2F0D
:10055000F0E0EE0FFF1FE058FE4FA591B491EC9133
:10056000ED2381E090E009F480E0DF91CF910895E0
:1005700080E090E0FACF862F0C9492021F93CF93E5
:10058000DF93282F30E0F901EA5DFD4F8491F901F6
:10059000E052FE4FD491F901E656FE4FC491CC23B0
:1005A000A9F0162F81110E942B02EC2FF0E0EE0F24
:1005B000FF1FEA59FE4FA591B4918FB7F894EC91C3
:1005C000111108C0D095DE23DC938FBFDF91CF914E
:1005D0001F910895DE2BF8CF862F642F0C94BE0256
:1005E000CF93DF9390E0FC01E052FE4F24918656BA
:1005F0009E4FFC0184918823C9F090E0880F991FD9
:10060000FC01E45BFE4FA591B491FC01EA59FE4F59
:10061000C591D49161110DC09FB7F8948C9120952C
:1006200082238C938881282328839FBFDF91CF91D9
:100630000895623051F49FB7F8943C91822F8095D1
:1006400083238C93E8812E2BEFCF8FB7F894EC9116
:100650002E2B2C938FBFEACF862F642F0C94F002A1
:10066000089590E080E00895CF93DF93EC018881B6
:100670009981009711F00E94BD08198218821D828D
:100680001C821B821A82DF91CF910895CF93DF9352
:10069000EC0160E08E810E94BE0261E08E810E94CA
:1006A000BE0260E08E810E94BE028BE891E001975D
:1006B000F1F7DF91CF910895CF92DF92EF92FF9201
:1006C0000F931F93CF93DF936C017C0187E0E80EBB
:1006D000F11CD0E0C0E0062F10E0B8010C2E02C0E3
:1006E000759567950A94E2F76170F70181917F0132
:1006F0000E94BE022196C430D10579F7C601DF9170
:10070000CF911F910F91FF90EF90DF90CF900C94BD
:100710004603CF92DF92EF92FF920F931F93CF93F6
:10072000DF93EC01F62E642F8C810E94BE028D8136
:100730008F3F19F060E00E94BE020F2D10E08F8500
:1007400084FF25C06E0187E0C80ED11CF12CE12C7E
:10075000B8010E2C02C0759567950A94E2F7617096
:10076000F60181916F010E94BE02FFEFEF1AFF0AAE
:1007700088E0E816F10461F7CE01DF91CF911F9177
:100780000F91FF90EF90DF90CF900C944603B8014B
:1007900084E0759567958A95E1F7CE010E945C0328
:1007A0006F2DCE01DF91CF911F910F91FF90EF90B0
:1007B000DF90CF900C945C0340E0682F8AED92E0CC
:1007C0000C94890381E00E94DC038BE39FE1019795
:1007D000F1F70895CF93DF93823029F49091E902E5
:1007E00098609093E9028093ED021092EE0280E40B
:1007F0008093EF0280E18093F00280E58093F10224
:1008000061E08091DE020E94F0028091DF028F3F62
:1008100019F061E00E94F00261E08091E0020E9424
:10082000F002CAEDD2E09E012A5D32408091E902D9
:1008300084FD0BC084E090E021962817390744F42A
:1008400061E08E810E94F002EECF88E090E0F4CF6C
:100850008BE39DE00197F1F760E08091DE020E945A
:10086000BE0260E08091E0020E94BE028091DF0241
:100870008F3F19F060E00E94BE028091E90284FD82
:1008800034C063E08AED92E00E945C03CBE4D6E4DE
:10089000CE010197F1F763E08AED92E00E945C03DC
:1008A0002197F1F763E08AED92E00E945C0383E513
:1008B00092E00197F1F762E08AED92E00E945C031A
:1008C0008091E90280620E94DC0384E08093EA0266
:1008D0008CE00E94DC030E94E20382E08093EB0242
:1008E00086E0DF91CF910C94DC0380620E94DC03F0
:1008F0008BE496E40197F1F78091E90280620E940F
:10090000DC0383E592E00197F1F78091E9028062D0
:100910000E94DC03D5CF41E00E94890381E090E092
:1009200008950F931F93CF93DF93EC0188819981F2
:10093000009759F02A813B812617370730F081E074
:10094000DF91CF911F910F9108958B016F5F7F4FC2
:100950000E944609009759F0998388831B830A8374
:100960002C813D81232B59F7FC011082E8CF80E0D8
:10097000E7CFEF92FF920F931F93CF93DF93EC019A
:100980007B018A01BA010E94910481110BC0CE0142
:100990000E943403CE01DF91CF911F910F91FF9000
:1009A000EF9008951D830C83B701888199810E947F
:1009B000390AF0CF1F920F920FB60F9211242F9386
:1009C0003F938F939F93AF93BF93809167029091D2
:1009D0006802A0916902B0916A023091600223E03E
:1009E000230F2D3758F50196A11DB11D20936002EC
:1009F0008093670290936802A0936902B0936A02A1
:100A000080915C0290915D02A0915E02B0915F02C4
:100A10000196A11DB11D80935C0290935D02A0938D
:100A20005E02B0935F02BF91AF919F918F913F9112
:100A30002F910F900FBE0F901F90189526E8230F4F
:100A40000296A11DB11DD2CFCF93DF9300D000D06D
:100A50001F921F92CDB7DEB7789484B5826084BDB3
:100A600084B5816084BD85B5826085BD85B58160B2
:100A700085BD80916E00816080936E001092810030
:100A800080918100826080938100809181008160EB
:100A900080938100809180008160809380008091AC
:100AA000B10084608093B1008091B0008160809338
:100AB000B0008091910082608093910080919100BC
:100AC000816080939100809190008160809390007C
:100AD0008091A10082608093A1008091A10081603B
:100AE0008093A1008091A00081608093A0008091FC
:100AF0002101826080932101809121018160809396
:100B000021018091200181608093200180917A00F1
:100B1000846080937A0080917A00826080937A006A
:100B200080917A00816080937A0080917A00806859
:100B300080937A001092C10082E00E94EA030E9432
:100B4000E203412C512C3201439440E0A42E40E0BA
:100B5000B42E51E05093D7028FB7F89440916702BA
:100B6000509168026091690270916A028FBF809112
:100B7000C7029091C802A091C902B091CA02481B55
:100B8000590B6A0B7B0B8091D3029091D402B0E099
:100B9000A0E084179507A607B70708F018C110E072
:100BA0008091D102181760F4E091CD02F091CE024D
:100BB000E10FF11D62E080810E94F0021F5FF0CF23
:100BC000312C8091D202381608F061C0E32CF12C50
:100BD000E091CF02F091D002EE0DFF1D61E0808127
:100BE0000E94F002E091CF02F091D002EE0DFF1DC5
:100BF00060E080810E94BE02D301C201032C04C0C8
:100C0000880F991FAA1FBB1F0A94D2F74C016C01D1
:100C1000C094D094212C8091D102281608F5022D81
:100C200010E0E091CD02F091CE02E00FF11F808143
:100C30000E9492020C5F1F4F000F111FF801E5592F
:100C4000FD4F892B41F480819181882999299183D5
:100C500080832394E0CF808191818C219D21F7CFE7
:100C6000E091CF02F091D002EE0DFF1D61E0808196
:100C70000E94BE028091CF029091D002E80EF91E30
:100C800060E0F70180810E94F00233949ACF0BE676
:100C900012E0F801878D90A1892B31F4148E8FEF2B
:100CA0009FEF968F858F11A2369692E0E73AF9076B
:100CB00089F7D12C8091D102D81608F053C0C12CED
:100CC000ED2CF12CEE0CFF1CF701ED58FD4F7F01D0
:100CD0002091D202C21608F043C0F70160817181F1
:100CE0000C2C02C0769567950A94E2F7D29E90018B
:100CF00011242C0D311DEBE6F2E080E0458D568D80
:100D00002417350709F400C18F5F36968A30B1F792
:100D100060FF24C0EBE6F2E090E080E0448D4111FA
:100D200018C0E091CB02F091CC02E20FF31F40819A
:100D300056E0589FF001599FF00D1124E559FD4FE1
:100D4000448F368F258F10A2178E61E00E948E018E
:100D500005C0019636968A30910501F7C394B8CF45
:100D6000D394A8CF80E0F80191A19111892F0A5F57
:100D70001F4FF2E0073A1F07B1F79FB7F894409171
:100D80006702509168026091690270916A029FBF88
:100D90004093C7025093C8026093C9027093CA027D
:100DA0008823A9F080918C02882389F080918A029F
:100DB00090918B02019759F41091870211110AC08A
:100DC000A114B10409F4C5CE0E940000C2CE109255
:100DD000D702F6CFE091ED021A3289F5E23068F5DC
:100DE000E150F0E0E652FD4F848980680E94DC0308
:100DF0008091650290916602892B71F064E372E044
:100E000080916102909162020E94300A40E150E0BC
:100E10006CE372E0892B21F04EE050E06DE472E06B
:100E20008AED92E00E94FE0150E040E06BE372E048
:100E300081E692E00E94B904C3CFE1E0D2CF81E025
:100E4000E11180E08195E82FF0E0E652FD4F8489C2
:100E500080680E94DC031A8219821C821B821E8217
:100E60001D8260916102709162026115710541F00D
:100E70004091650250916602CE0101960E94B9042C
:100E80001F8318860D811E810F5F1F4FB801CE0191
:100E900001960E949104811124C0CE0101960E9406
:100EA000340369817A816115710549F14D815E8153
:100EB00081E692E00E94B90489819A81009711F03D
:100EC0000E94BD080E94E2034091650250916602B3
:100ED00060916102709162028AED92E00E94FE01CF
:100EE0006FCF29813A818D819E81BE01695F7F4FDD
:100EF000820F931F0E94390A1E830D83D2CF81E691
:100F000092E00E943403D8CF617020CF10926D021E
:100F10001092710210927002109272028EE292E0B0
:100F200090936C0280936B02E7E8F2E010821482E7
:100F300013821582369682E0E33CF807B9F784E025
:100F400092E09093CE028093CD0280E092E0909365
:100F5000D0028093CF0284E08093D1028093D202AA
:100F600088E092E09093CC028093CB028AE090E0FC
:100F70009093D4028093D30284EF91E09093D602B1
:100F80008093D5021092D9021092D8021092C70213
:100F90001092C8021092C9021092CA021092D7028F
:100FA0001092DD021092DC0282E292E09093DB026A
:100FB0008093DA028DE08093DE028FEF8093DF0270
:100FC0008CE08093E00288E08093E10289E08093E6
:100FD000E2028AE08093E3028BE08093E4021092C5
:100FE000E5021092E6021092E7021092E8021092D7
:100FF000E90281E00E94EA0310926202109261020B
:1010000010926402109263021092660210926502BE
:1010100050E040E06BE372E081E692E00C94B904AA
:101020008091610290916202009711F00C94BD08CA
:101030000895EE0FFF1F881F8BBF0790F691E02DDC
:1010400019940F931F93CF93DF938230910510F47F
:1010500082E090E0E091F402F091F50230E020E0CF
:10106000B0E0A0E0309799F42115310509F44AC0A9
:10107000281B390B24303105D8F58A819B816115F5
:10108000710589F1FB0193838283FE0111C04081C8
:1010900051810281138148175907E0F04817590719
:1010A00099F4109761F012960C93129713961C9373
:1010B0003296CF01DF91CF911F910F910895009348
:1010C000F4021093F502F4CF2115310551F04217C7
:1010D000530738F0A901DB019A01BD01DF01F801D6
:1010E000C1CFEF01F9CF9093F5028093F402CDCFF9
:1010F000FE01E20FF31F819391932250310939834E
:101100002883D7CF2091F2023091F302232B41F4B0
:1011100020911A0230911B023093F3022093F202C5
:1011200020911802309119022115310541F42DB793
:101130003EB740911C0250911D02241B350BE091DB
:10114000F202F091F302E217F307A0F42E1B3F0B1B
:101150002817390778F0AC014E5F5F4F2417350729
:1011600048F04E0F5F1F5093F3024093F2028193B9
:1011700091939FCFF0E0E0E09CCFCF93DF93009777
:10118000E9F0FC01329713821282A091F402B0912F
:10119000F502ED0130E020E01097A1F420813181CB
:1011A000820F931F2091F2023091F3022817390722
:1011B00009F061C0F093F302E093F202DF91CF9166
:1011C0000895EA01CE17DF07E8F54A815B819E01A9
:1011D00041155105B1F7E901FB83EA834991599122
:1011E000C40FD51FEC17FD0761F480819181029631
:1011F000840F951FE90199838883828193819B8362
:101200008A83F0E0E0E012968D919C91139700970D
:10121000B9F52D913C911197CD010296820F931F44
:101220002091F2023091F3022817390739F63097EE
:1012300051F51092F5021092F402B093F302A093CC
:10124000F202BCCFD383C28340815181840F951FAA
:10125000C817D90761F44E5F5F4F88819981480FA5
:10126000591F518340838A819B81938382832115F7
:10127000310509F0B0CFF093F502E093F4029ECF70
:10128000FD01DC01C0CF13821282D7CF4F925F9253
:101290006F927F928F929F92AF92BF92CF92DF9286
:1012A000EF92FF920F931F93CF93DF938C010097E0
:1012B00099F4CB01DF91CF911F910F91FF90EF90A7
:1012C000DF90CF90BF90AF909F908F907F906F9066
:1012D0005F904F900C942108FC01E60FF71F9C01D2
:1012E00022503109E217F30708F4AEC0D901CD91BD
:1012F000DC911197C617D70720F1C530D10578F0DA
:10130000CE0104978617970750F0C61BD70B22977C
:10131000C193D1936D937C93CF010E94BD08C80106
:10132000DF91CF911F910F91FF90EF90DF90CF90C1
:10133000BF90AF909F908F907F906F905F904F90F5
:1013400008955B01AC1ABD0A4C018C0E9D1EA09144
:10135000F402B091F502512C412CF12CE12C1097A4
:1013600031F58091F2029091F3028815990509F008
:101370005CC04616570608F058C08091180290913C
:101380001902009741F48DB79EB740911C0250910D
:101390001D02841B950BE817F90708F055C0F09360
:1013A000F302E093F202F90171836083B8CF8D916B
:1013B0009C91119712966C90129713967C901397AC
:1013C000A815B90559F56C0142E0C40ED11CCA1428
:1013D000DB0420F1AC014A195B09DA01129615977A
:1013E00080F06282738251834083D9016D937C9334
:1013F000E114F10471F0D7011396FC93EE93129768
:101400008ECF22968C0F9D1FF90191838083F3016B
:10141000EFCFF093F502E093F40281CF481659061E
:1014200008F42C017D01D3019ACFCB010E94210841
:101430007C01009749F0AE01B8010E94270AC8015B
:101440000E94BD0887016BCF10E000E068CFFB0170
:10145000DC0102C001900D9241505040D8F7089530
:10146000FB01DC018D91019080190110D9F3990BDA
:101470000895FB01DC0101900D920020E1F7089531
:1014800011E0C7E3D1E000E006C0802FFE010E941A
:1014900019082196011DC833D10780E00807A9F774
:0414A000F894FFCFEE
:1014A4001A1B1C1D161718193738392F3435362ACC
:1014B4003132332D2A303D2B0000F602800000002B
:1014C40000008B04FE0131033003000000002C03F4
:1014D400EC02BB023938333131323600636F727239
:1014E4006563742070617373776F72640077726FD1
:0C14F4006E672070617373776F72640084
:00000001FF
