:100000000C9428010C9459010C9459010C94590139
:100010000C9459010C9459010C9459010C945901F8
:100020000C9459010C9459010C9459010C945901E8
:100030000C9459010C9459010C9459010C945901D8
:100040000C9459010C9459010C9459010C945901C8
:100050000C9459010C9459010C9459010C947D0491
:100060000C9459010C9447040C941D040C945901F0
:100070000C9459010C9459010C9459010C94590198
:100080000C9459010C9459010C9459010C94590188
:100090000C9459010C9459010C9459010C94590178
:1000A0000C9459010C9459010C9459010C94590168
:1000B0000C9459010C9459010C9459010C94590158
:1000C0000C9459010C9459010C9459010C94590148
:1000D0000C9459010C9459010C9459010C94590138
:1000E0000C9459010C94EF020C9411030C94E5024A
:1000F0000C943E020C940B030C94D6020C94DE027A
:100100000C94E2020C94DA020C94AB010C943106CC
:100110000C94BF020C94FD020C9488010C94F10124
:100120000C94F9020C9407030C94C4020C94F5028D
:100130000C9497010C9403030C94EB020C945B0158
:100140000C94B9010C94150300002200250028002E
:100150002B002E00310034000201000005010801CF
:100160000B0100000A0B02090C0D0E080703040125
:10017000000000000000000000000000000000007F
:10018000000000000000000000000000000012114C
:10019000100000000000000000000000000000004F
:1001A00000000000000000000000210024002700E3
:1001B0002A002D0030003300010100000401070176
:1001C0000A01010210202008081020401020408061
:1001D000020102010804020101020408102040800B
:1001E0008040201008040201800402018040201099
:1001F00008040201080402010102040810204080E2
:1002000001020408102040800505050507050808BF
:100210000808020202020A0A080804040404010190
:1002200001010101010103030303030303030407A5
:1002300007070C0C0C0C0C0C0C0C0202020206063C
:100240000606060606060B0B0B0B0B0B0B0B3106FB
:1002500011241FBECFEFD1E2DEBFCDBF00E00CBF47
:1002600012E0A0E0B2E0EEE7FDE000E00BBF02C06C
:1002700007900D92A433B107D9F722E0A4E3B2E0CE
:1002800001C01D92AD3DB207E1F711E0C8E2D1E037
:1002900000E006C021970109802FFE010E94AE06F2
:1002A000C732D10780E00807A9F70E94C7040C9461
:1002B000BD060C940000AF92BF92CF92DF92EF92F6
:1002C000FF920F931F93CF93DF936C017B018B0100
:1002D000040F151FEB015E01AE18BF08C017D10750
:1002E00059F06991D601ED91FC910190F081E02DDA
:1002F000C6011995892B79F7C501DF91CF911F911F
:100300000F91FF90EF90DF90CF90BF90AF90089546
:10031000FC01538D448D252F30E0842F90E0821B0B
:10032000930B541710F0CF96089501970895FC0190
:10033000918D828D981761F0A28DAE0FBF2FB11DE8
:100340005D968C91928D9F5F9F73928F90E0089540
:100350008FEF9FEF0895FC01918D828D981731F0FA
:10036000828DE80FF11D858D90E008958FEF9FEF4E
:100370000895FC01918D228D892F90E0805C9F4F24
:10038000821B91098F739927089580E492E00E945F
:10039000B90121E0892B09F420E0822F0895FC01A6
:1003A000A48DA80FB92FB11DA35ABF4F2C91848DD6
:1003B00090E001968F739927848FA689B7892C9333
:1003C000A089B1898C91837080648C93938D848D86
:1003D000981306C00288F389E02D80818F7D808389
:1003E0000895EF92FF920F931F93CF93DF93EC0149
:1003F00081E0888F9B8D8C8D98131AC0E889F989CC
:10040000808185FF15C09FB7F894EE89FF896083CE
:10041000E889F98980818370806480839FBF81E04F
:1004200090E0DF91CF911F910F91FF90EF90089591
:10043000F62E0B8D10E00F5F1F4F0F731127E02E6C
:100440008C8D8E110CC00FB607FCFACFE889F989A4
:10045000808185FFF5CFCE010E94CF01F1CFEB8DDA
:10046000EC0FFD2FF11DE35AFF4FF0829FB7F89478
:100470000B8FEA89FB8980818062CFCFCF93DF9396
:10048000EC01888D8823B9F0AA89BB89E889F989AC
:100490008C9185FD03C0808186FD0DC00FB607FCE1
:1004A000F7CF8C9185FFF2CF808185FFEDCFCE0114
:1004B0000E94CF01E9CFDF91CF91089580E090E0D5
:1004C000892B29F00E94C50181110E94000080E063
:1004D00090E0892B49F080E090E0892B29F00E9480
:1004E000000081110E94000080E090E0892B49F01B
:1004F00080E090E0892B29F00E94000081110E9489
:10050000000080E090E0892B49F080E090E0892BAA
:1005100029F00E94000081110C9400000895282FFA
:1005200030E0F901EE59FE4F9491F901EE53FE4F80
:100530004491285F3D4FF9012491222309F435C0ED
:10054000992311F191509231F8F4E92FF0E08827C6
:10055000E355FD4F8F4F0C94AE06DE02E202BF0260
:10056000D602DA02C402E502EB02EF02F502F9025A
:10057000FD0203030703C4020B031103150380915B
:1005800080008F7780938000E22FF0E0EE0FFF1F56
:10059000E85BFE4FA591B4918FB7F894EC9161118F
:1005A00048C040954E234C938FBF089580918000A2
:1005B0008F7DE8CF80918000877FE4CF84B58F77EF
:1005C00084BDE2CF84B58F7DFBCF8091B0008F7763
:1005D0008093B000D9CF8091B0008F7DF9CF80910A
:1005E00090008F7780939000CFCF809190008F7D87
:1005F000F9CF80919000877FF5CF8091A0008F7711
:100600008093A000C1CF8091A0008F7DF9CF809111
:10061000A000877FF5CF809120018F778093200104
:10062000B3CF809120018F7DF9CF80912001877F0A
:10063000F5CF4E2BB8CFCF93DF9390E0FC01EE5374
:10064000FE4F2491885F9D4FFC0184918823D1F057
:1006500090E0880F991FFC01E855FE4FA591B491D9
:10066000FC01E85BFE4FC591D49161110EC09FB7AC
:10067000F8948C91E22FE0958E238C932881E223CD
:10068000E8839FBFDF91CF9108958FB7F894EC91E5
:10069000E22BEC938FBFF6CF865320917B00982FEF
:1006A000987F277F922B90937B0087708064809344
:1006B0007C0080917A00806480937A0080917A0037
:1006C00086FDFCCF809178009091790008953FB726
:1006D000F8948091390290913A02A0913B02B09136
:1006E0003C0226B5A89B05C02F3F19F00196A11D1D
:1006F000B11D3FBFBA2FA92F982F8827BC01CD016C
:10070000620F711D811D911D42E0660F771F881FCA
:10071000991F4A95D1F708958F929F92AF92BF92F9
:10072000CF92DF92EF92FF924B015C010E94670330
:100730006B017C010E9467036C197D098E099F097A
:10074000683E734081059105A8F321E0821A910863
:10075000A108B10888EEC80E83E0D81EE11CF11C88
:1007600081149104A104B10429F7FF90EF90DF9068
:10077000CF90BF90AF909F908F900895FC01019013
:100780000020E9F73197AF01481B590BBC0180E409
:1007900092E00C945B018F929F92AF92BF920F9365
:1007A0001F93CF93DF93CDB7DEB7A1970FB6F89421
:1007B000DEBF0FBECDBF19A2423008F44AE08E0161
:1007C0000F5D1F4F842E912CB12CA12CA5019401FB
:1007D0000E947D06E62FB901CA01EA30F4F4E05D1B
:1007E000D801EE938D01232B242B252B79F790E054
:1007F00080E0109719F0CD010E94BE03A1960FB6BC
:10080000F894DEBF0FBECDBFDF91CF911F910F9146
:10081000BF90AF909F908F900895E95CE1CFCF9308
:10082000DF930E94BE03EC0182E192E00E94BE03CE
:100830008C0F9D1FDF91CF9108951F920F920FB6DD
:100840000F9211240BB60F922F933F934F935F9308
:100850006F937F938F939F93AF93BF93EF93FF9388
:1008600080E492E00E94CF01FF91EF91BF91AF91A0
:100870009F918F917F916F915F914F913F912F91B8
:100880000F900BBE0F900FBE0F901F9018951F92E8
:100890000F920FB60F9211240BB60F922F938F93D6
:1008A0009F93EF93FF93E0915002F091510280816A
:1008B000E0915602F091570282FD1DC09081809117
:1008C00059028F5F8F7320915A02821741F0E09195
:1008D0005902F0E0E05CFD4F958F80935902FF9143
:1008E000EF919F918F912F910F900BBE0F900FBEA4
:1008F0000F901F9018958081F2CF1F920F920FB624
:100900000F9211242F933F938F939F93AF93BF9395
:100910008091350290913602A0913702B091380251
:100920003091340223E0230F2D3758F50196A11D95
:10093000B11D209334028093350290933602A09328
:100940003702B09338028091390290913A02A09117
:100950003B02B0913C020196A11DB11D809339026A
:1009600090933A02A0933B02B0933C02BF91AF91A7
:100970009F918F913F912F910F900FBE0F901F90DD
:10098000189526E8230F0296A11DB11DD2CF7894A9
:1009900084B5826084BD84B5816084BD85B5826084
:1009A00085BD85B5816085BD80916E008160809335
:1009B0006E0010928100809181008260809381009E
:1009C00080918100816080938100809180008160AE
:1009D000809380008091B10084608093B100809109
:1009E000B00081608093B00080919100826080931C
:1009F000910080919100816080939100809190009E
:100A00008160809390008091A10082608093A1001A
:100A10008091A10081608093A1008091A0008160FD
:100A20008093A000809121018260809321018091B8
:100A30002101816080932101809120018160809358
:100A4000200180917A00846080937A0080917A00FE
:100A5000826080937A0080917A00816080937A002E
:100A600080917A00806880937A001092C100E091B2
:100A70005002F091510282E08083E0914C02F091AB
:100A80004D021082E0914E02F0914F028FEC808374
:100A900010925802E0915402F091550286E0808352
:100AA000E0915202F0915302808180618083E09155
:100AB0005202F0915302808188608083E09152025B
:100AC000F0915302808180688083E0915202F0911E
:100AD000530280818F7D808385E192E00E940F0424
:100AE00061E08DE20E941B0361E08DE20E948F02B3
:100AF00061E08EE20E941B0361E08EE20E948F02A1
:100B000060E08EE30E941B0360E087E30E941B030A
:100B1000CFB7F89480913D02811127C0EDE3F2E058
:100B20008491E7EFF1E09491E82FF0E0EE0FFF1FE2
:100B3000E855FE4FA591B491EC91E92321F461E0D1
:100B400085E30E948F0261E085E30E941B038CB560
:100B500080618CBD8CB580648CBD61E084E30E94B3
:100B60001B0361E083E30E941B0380913D028F5FC2
:100B700080933D02CFBFCC24CA9483E0D82EE12CD1
:100B8000F12C68EE73E080E090E00E948C0387E334
:100B90000E944C03C82F80933F0260E08EE20E94C7
:100BA0008F02CEBD00000DB407FEFDCF8EB58FE1E4
:100BB00092E00E94BE0360913F0270E090E080E00E
:100BC0004AE00E94CB0387E292E00E940F0465E0B6
:100BD00070E080E090E00E948C0361E08EE20E9471
:100BE0008F0268EE73E080E090E00E948C038EE359
:100BF0000E944C0324EF31E0DC010E94B606A701FD
:100C000096010E945E06C22F20933E0260E08DE2B4
:100C10000E948F02CEBD00000DB407FEFDCF8EB541
:100C200089E292E00E94BE0360913E0270E090E093
:100C300080E04AE00E94CB0380E392E00E940F0430
:100C400065E070E080E090E00E948C0361E08DE25E
:100C50000E948F0282E192E00E94BE030E945E0227
:100C600090CFE0E4F2E01382128288EE93E0A0E0FD
:100C7000B0E084839583A683B78384E092E0918378
:100C8000808385EC90E09587848784EC90E097875B
:100C9000868780EC90E0918B808B81EC90E0938B49
:100CA000828B82EC90E0958B848B86EC90E0978B26
:100CB000868B118E128E138E148E0895052E97FB3F
:100CC0001EF400940E94750657FD07D00E947D0611
:100CD00007FC03D04EF40C94750650954095309562
:100CE00021953F4F4F4F5F4F089590958095709598
:100CF00061957F4F8F4F9F4F0895A1E21A2EAA1B37
:100D0000BB1BFD010DC0AA1FBB1FEE1FFF1FA217BB
:100D1000B307E407F50720F0A21BB30BE40BF50BB8
:100D2000661F771F881F991F1A9469F76095709541
:100D3000809590959B01AC01BD01CF010895A29FC4
:100D4000B001B39FC001A39F700D811D1124911D9F
:100D5000B29F700D811D1124911D0895EE0FFF1F8C
:100D6000881F8BBF0790F691E02D19940E949F0673
:0E0D7000B7FF0895821B930B0895F894FFCFF0
:100D7E0000000000F1015B0188013E02B9019701FC
:100D8E00AB010D0A004D41535445522E2E2E004CF0
:100D9E00696768743A2000250054656D703A20002A
:040DAE0020430000DE
:00000001FF
