:100000000C94E3000C9414010C9414010C9414014E
:100010000C9414010C9414010C9414010C9414010C
:100020000C9414010C9414010C9414010C941401FC
:100030000C9414010C9414010C9414010C941401EC
:100040000C9414010C9414010C9414010C941401DC
:100050000C9414010C9414010C9414010C9493024C
:100060000C943D030C9407030C94DD020C941401D2
:100070000C9414010C9414010C9414010C941401AC
:100080000C9414010C9414010C9414010C9414019C
:100090000C9414010C9414010C9414010C9414018C
:1000A0000C9414010C9414010C9414010C9414017C
:1000B0000C9414010C9414010C9414010C9414016C
:1000C0000C9414010C9414010C9414010C9414015C
:1000D0000C9414010C9414010C9414010C9414014C
:1000E0000C9414010C9416010C9466010C944301B9
:1000F0000C94AC010C9452010C9474010C944D04BA
:100100000C94F90100002200250028002B002E008D
:100110003100340002010000050108010B0100005C
:100120002100240027002A002D00300033000101A7
:100130000000040107010A01050505050705080877
:100140000808020202020A0A080804040404010161
:100150000101010101010303030303030303040776
:1001600007070C0C0C0C0C0C0C0C0202020206060D
:100170000606060606060B0B0B0B0B0B0B0B010200
:1001800010202008081020401020408002010201A9
:100190000804020101020408102040808040201061
:1001A00008040201800402018040201008040201BA
:1001B0000804020101020408102040800102040822
:1001C000102040804D0411241FBECFEFD1E2DEBFCE
:1001D000CDBF00E00CBF12E0A0E0B2E0E8E0F9E043
:1001E00000E00BBF02C007900D92AE31B107D9F706
:1001F00023E0AEE1B2E001C01D92AB32B207E1F7FD
:1002000010E0C3EED0E000E006C021970109802F86
:10021000FE010E947A04C23ED10780E00807A9F7D8
:100220000E9475030C9482040C940000AF92BF925C
:10023000CF92DF92EF92FF920F931F93CF93DF93B2
:100240006C017B018B01040F151FEB015E01AE18E1
:10025000BF08C017D10759F06991D601ED91FC9103
:100260000190F081E02DC6011995892B79F7C50120
:10027000DF91CF911F910F91FF90EF90DF90CF9082
:10028000BF90AF900895FC01538D448D252F30E031
:10029000842F90E0821B930B541710F0CF96089593
:1002A00001970895FC01918D828D981761F0A28DC0
:1002B000AE0FBF2FB11D5D968C91928D9F5F9F7386
:1002C000928F90E008958FEF9FEF0895FC01918D3C
:1002D000828D981731F0828DE80FF11D858D90E0A9
:1002E00008958FEF9FEF0895FC01918D228D892F46
:1002F00090E0805C9F4F821B91098F73992708952E
:100300008EE892E00E94740121E0892B09F420E03C
:10031000822F0895FC01A48DA80FB92FB11DA35AF7
:10032000BF4F2C91848D90E001968F739927848F15
:10033000A689B7892C93A089B1898C918370806438
:100340008C93938D848D981306C00288F389E02DD9
:1003500080818F7D80830895EF92FF920F931F938A
:10036000CF93DF93EC0181E0888F9B8D8C8D981368
:100370001AC0E889F989808185FF15C09FB7F89474
:10038000EE89FF896083E889F989808183708064C0
:1003900080839FBF81E090E0DF91CF911F910F910B
:1003A000FF90EF900895F62E0B8D10E00F5F1F4F1A
:1003B0000F731127E02E8C8D8E110CC00FB607FC29
:1003C000FACFE889F989808185FFF5CFCE010E94B7
:1003D0008A01F1CFEB8DEC0FFD2FF11DE35AFF4F9A
:1003E000F0829FB7F8940B8FEA89FB898081806245
:1003F000CFCFCF93DF93EC01888D8823B9F0AA8902
:10040000BB89E889F9898C9185FD03C0808186FDCF
:100410000DC00FB607FCF7CF8C9185FFF2CF80811E
:1004200085FFEDCFCE010E948A01E9CFDF91CF9108
:10043000089580E090E0892B29F00E9480018111CD
:100440000E94000080E090E0892B49F080E090E07D
:10045000892B29F00E94000081110E94000080E099
:1004600090E0892B49F080E090E0892B29F00E94F0
:10047000000081110E94000080E090E0892B49F08B
:1004800080E090E0892B29F00E94000081110C94FB
:1004900000000895CF93DF9390E0FC01E258FE4FF7
:1004A0002491885C9E4FFC0184918823C9F090E0E0
:1004B000880F991FFC01E25EFE4FA591B491FC01EB
:1004C000EC5FFE4FC591D49161110DC09FB7F894B8
:1004D0008C91209582238C938881282328839FBF29
:1004E000DF91CF910895623051F49FB7F8943C9119
:1004F000822F809583238C93E8812E2BEFCF8FB7AB
:10050000F894EC912E2B2C938FBFEACFFC01019035
:100510000020E9F73197AF01481B590BBC018EE869
:1005200092E00C9416011F920F920FB60F921124B5
:100530002F933F938F939F93AF93BF9380918A02A2
:1005400090918B02A0918C02B0918D023091890222
:1005500023E0230F2D3758F50196A11DB11D2093DF
:10056000890280938A0290938B02A0938C02B093AD
:100570008D028091850290918602A0918702B091B0
:1005800088020196A11DB11D809385029093860279
:10059000A0938702B0938802BF91AF919F918F91F2
:1005A0003F912F910F900FBE0F901F90189526E846
:1005B000230F0296A11DB11DD2CF1F920F920FB62D
:1005C0000F9211240BB60F922F933F934F935F938B
:1005D0006F937F938F939F93AF93BF93EF93FF930B
:1005E0008EE892E00E948A01FF91EF91BF91AF9156
:1005F0009F918F917F916F915F914F913F912F913B
:100600000F900BBE0F900FBE0F901F9018951F926A
:100610000F920FB60F9211240BB60F922F938F9358
:100620009F93EF93FF93E0919E02F0919F02808150
:10063000E091A402F091A50282FD1DC090818091FD
:10064000A7028F5F8F732091A802821741F0E0917B
:10065000A702F0E0E257FD4F958F8093A702FF912C
:10066000EF919F918F912F910F900BBE0F900FBE26
:100670000F901F9018958081F2CF1F920F920FB6A6
:100680000F9211240BB60F922F934F935F938F937A
:100690009F93EF93FF932EB580911E0290911F02BE
:1006A00084369105A0F480911E0290911F02AC0146
:1006B0004F5F5F4F50931F0240931E02805E9D4F1D
:1006C000FC0120832A3019F481E080938402FF9199
:1006D000EF919F918F915F914F912F910F900BBE52
:1006E0000F900FBE0F901F901895789484B582607C
:1006F00084BD84B5816084BD85B5826085BD85B5C6
:10070000816085BD80916E00816080936E00109243
:1007100081008091810082608093810080918100BE
:10072000816080938100809180008160809380004F
:100730008091B10084608093B1008091B0008160AD
:100740008093B000809191008260809391008091AD
:1007500091008160809391008091900081608093EE
:1007600090008091A10082608093A1008091A100FF
:1007700081608093A1008091A00081608093A0009F
:10078000809121018260809321018091210181600B
:1007900080932101809120018160809320018091CC
:1007A0007A00846080937A0080917A0082608093DE
:1007B0007A0080917A00816080937A0080917A003B
:1007C000806880937A001092C100E0919E02F091BF
:1007D0009F0282E08083E0919A02F0919B02108256
:1007E000E0919C02F0919D028FEC80831092A60212
:1007F000E091A202F091A30286E08083E091A00242
:10080000F091A102808180618083E091A002F0914B
:10081000A102808188608083E091A002F091A10212
:10082000808180688083E091A002F091A1028081A4
:100830008F7D808382E192E00E9486028BE192E0CC
:100840000E94860260E083E30E944A0261E082E344
:100850000E944A0260E084E30E944A0262E085E36B
:100860000E944A028CB580648CBD8CB580688CBDBA
:1008700080918402882371F080E292E00E948602D7
:100880008BE192E00E94860210921F0210921E02DB
:10089000109284020E941902EBCFEEE8F2E013827C
:1008A000128288EE93E0A0E0B0E084839583A68373
:1008B000B78384E092E09183808385EC90E0958714
:1008C000848784EC90E09787868780EC90E0918B1A
:1008D000808B81EC90E0938B828B82EC90E0958B07
:1008E000848B86EC90E0978B868B118E128E138E04
:1008F000148E0895EE0FFF1F881F8BBF0790F6918F
:08090000E02D1994F894FFCFDB
:1009080000000000AC0116014301F9017401520115
:0E0918006601534C4156452E2E2E000D0A004E
:00000001FF
