:100000000C941A010C944B010C944B010C944B0171
:100010000C944B010C944B010C944B010C944B0130
:100020000C944B010C944B010C944B010C944B0120
:100030000C944B010C944B010C944B010C944B0110
:100040000C944B010C94C2030C944B010C944B0187
:100050000C944B010C944B010C944B010C94EE024C
:100060000C944B010C944B010C944B010C944B01E0
:100070000C944B010C944B010C944B010C944B01D0
:100080000C9494030C944B010C944B010C944B0175
:100090000C944B010C944B010C944B010C944B01B0
:1000A0000C944B010C944B010C9466030C944B0183
:1000B0000C944B010C944B010C944B010C943803A1
:1000C0000C944B010C944B010C944B010C944B0180
:1000D0000C944B010C944B010C944B010C944B0170
:1000E0000C944B010C94E3010C94F7010C94D20195
:1000F0000C94D9010C94FF010C94D6010C94B3011B
:100100000C9405020C9409020C9478050C94DF0100
:100110000C94E9010C94ED010C94CE010C94FB01BC
:100120000C94F1010C94CA010C94B80100000A0B64
:1001300002090C0D0E080703040100000000000076
:1001400000000000000000000000000000000000AF
:10015000000000000000000012111000000000006C
:10016000000000000000000000000000000000008F
:10017000000000002200250028002B002E00310086
:10018000340002010000050108010B0100002100FC
:10019000240027002A002D00300033000101000058
:1001A000040107010A0105050505070508080808F7
:1001B000020202020A0A08080404040401010101FF
:1001C00001010101030303030303030304070707FA
:1001D0000C0C0C0C0C0C0C0C02020202060606069F
:1001E000060606060B0B0B0B0B0B0B0B010210206C
:1001F000200808102040102040800201020108045D
:1002000002010102040810204080804020100804F0
:100210000201800402018040201008040201080449
:10022000020101020408102040800102040810208D
:100230004080780511241FBECFEFD1E2DEBFCDBFD5
:1002400000E00CBF12E0A0E0B2E0E2E5FBE000E07D
:100250000BBF02C007900D92A030B107D9F722E082
:10026000A0E0B2E001C01D92A53AB207E1F711E0AB
:10027000CAE1D1E000E006C021970109802FFE010C
:100280000E949F05C931D10780E00807A9F70E94A5
:10029000F0030C94A7050C940000E0911202E033E7
:1002A00088F54091130228E830E0241B310947FD0E
:1002B0003395220F331F220F331F8217930784F0C9
:1002C0004091140228E532E0241B310947FD3395A3
:1002D000220F331F220F331F821793070CF49C0148
:1002E00022503109220F331F4FB7F8948E2F90E020
:1002F000FC01EE0FFF1FE80FF91FEB5EFD4F32838D
:1003000021834FBF0895282F30E0F901E45DFE4FAF
:100310009491F901E451FE4F44912A553E4FF90161
:100320002491222309F435C0992311F1915092317F
:10033000F8F4E92FF0E08827EF55FE4F8F4F0C942B
:100340009F05D201D601B301CA01CE01B801D9017E
:10035000DF01E301E901ED01F101F701FB01B80162
:10036000FF0105020902809180008F778093800051
:10037000E22FF0E0EE0FFF1FEE58FE4FA591B49173
:100380008FB7F894EC91611148C040954E234C937F
:100390008FBF0895809180008F7DE8CF809180008D
:1003A000877FE4CF84B58F7784BDE2CF84B58F7D1E
:1003B000FBCF8091B0008F778093B000D9CF809130
:1003C000B0008F7DF9CF809190008F77809390005F
:1003D000CFCF809190008F7DF9CF80919000877F63
:1003E000F5CF8091A0008F778093A000C1CF80913E
:1003F000A0008F7DF9CF8091A000877FF5CF8091FD
:1004000020018F7780932001B3CF809120018F7DD1
:10041000F9CF80912001877FF5CF4E2BB8CF3FB722
:10042000F89480910A0290910B02A0910C02B09175
:100430000D0226B5A89B05C02F3F19F00196A11DFE
:10044000B11D3FBFBA2FA92F982F8827BC01CD011E
:10045000620F711D811D911D42E0660F771F881F7D
:10046000991F4A95D1F70895AF92BF92CF92DF922C
:10047000EF92FF920F931F93CF93DF936B017A015B
:10048000EC01CF5FDD4F28813CE0389F8001399F30
:10049000100D1124A0900002B12C27FF1FC0FB01FA
:1004A0001182108288818F5F888388819801280F4C
:1004B000311D87FD3A95F6012A153B051CF488810C
:1004C0008C30C4F180819181049680349C4908F479
:1004D00073C0F60180819181049670C08881980173
:1004E000280F311D87FD3A952A153B05DCF68881DA
:1004F000A801480F511D87FD5A95FA01EE0FFF1F05
:10050000E40FF51FEB5EFD4F808186FFCBCF888126
:10051000F801E80FF11D87FDFA95CF01EE0FFF1FDF
:10052000E80FF91FEB5EFD4F808160E08F730E9442
:100530008301B8CF808191812881A801420F511D8C
:1005400027FD5A959A01FA01EE0FFF1FE20FF31FE4
:10055000EB5EFD4F21813281820F931FF701918362
:10056000808388819801280F311D87FD3A95F90114
:10057000EE0FFF1FE20FF31FEB5EFD4F808186FF42
:1005800022C08881080F111D87FD1A95F801EE0F12
:10059000FF1FE00FF11FEB5EFD4F808161E08F7365
:1005A000DF91CF911F910F91FF90EF90DF90CF904F
:1005B000BF90AF900C94830180E49CE9F701918394
:1005C00080838FEF8883DF91CF911F910F91FF90F0
:1005D000EF90DF90CF90BF90AF9008951F920F9251
:1005E0000FB60F9211242F933F938F939F93AF9346
:1005F000BF938091060290910702A0910802B091EA
:1006000009023091050223E0230F2D3758F501969A
:10061000A11DB11D2093050280930602909307024D
:10062000A0930802B093090280910A0290910B02F4
:10063000A0910C02B0910D020196A11DB11D8093F5
:100640000A0290930B02A0930C02B0930D02BF918B
:10065000AF919F918F913F912F910F900FBE0F906F
:100660001F90189526E8230F0296A11DB11DD2CF29
:100670001F920F920FB60F9211240BB60F922F9369
:100680003F934F935F936F937F938F939F93AF931A
:10069000BF93EF93FF9348E251E064E271E090E092
:1006A00080E00E943402FF91EF91BF91AF919F9142
:1006B0008F917F916F915F914F913F912F910F900B
:1006C0000BBE0F900FBE0F901F9018951F920F92A8
:1006D0000FB60F9211240BB60F922F933F934F93A7
:1006E0005F936F937F938F939F93AF93BF93EF939A
:1006F000FF9348EA50E064EA70E083E090E00E94F3
:100700003402FF91EF91BF91AF919F918F917F91B3
:100710006F915F914F913F912F910F900BBE0F9072
:100720000FBE0F901F9018951F920F920FB60F9249
:1007300011240BB60F922F933F934F935F936F93B8
:100740007F938F939F93AF93BF93EF93FF9348E96A
:1007500050E064E970E082E090E00E943402FF9192
:10076000EF91BF91AF919F918F917F916F915F9129
:100770004F913F912F910F900BBE0F900FBE0F9096
:100780001F9018951F920F920FB60F9211240BB65F
:100790000F922F933F934F935F936F937F938F931A
:1007A0009F93AF93BF93EF93FF9348E850E064E8C3
:1007B00070E081E090E00E943402FF91EF91BF91E0
:1007C000AF919F918F917F916F915F914F913F91E9
:1007D0002F910F900BBE0F900FBE0F901F9018958A
:1007E000789484B5826084BD84B5816084BD85B50C
:1007F000826085BD85B5816085BD80916E00816018
:1008000080936E00109281008091810082608093BD
:1008100081008091810081608093810080918000BF
:100820008160809380008091B10084608093B100EA
:100830008091B00081608093B000809191008260CF
:1008400080939100809191008160809391008091CC
:1008500090008160809390008091A10082608093DD
:10086000A1008091A10081608093A1008091A000EF
:1008700081608093A000809121018260809321019A
:10088000809121018160809321018091200181600C
:100890008093200180917A00846080937A00809117
:1008A0007A00826080937A0080917A0081608093E0
:1008B0007A0080917A00806880937A001092C1005B
:1008C00080911202803308F069C0EEEEF1E02491CD
:1008D000E8EAF1E08491882399F090E0880F991F6D
:1008E000FC01E457FE4FA591B491FC01EE58FE4F78
:1008F000859194918FB7F894EC91E22BEC938FBF94
:1009000080911202282F30E0F901EE0FFF1FE20F55
:10091000F31FEB5EFD4F9081907C9260908310926C
:100920001302109214022CE0622F0E949305829F02
:10093000B001112430E020E0AB01420F531FFA0157
:10094000EE0FFF1FE40FF51FEB5EFD4F908196FD4C
:1009500017C02F5F3F4F2C30310571F7813009F000
:100960008CC01092800082E08093810010928500FC
:1009700010928400B19A80916F00826080936F0022
:10098000E09112028E2F90E0FC01EE0FFF1FE80FA6
:10099000F91FEB5EFD4F8081806480838CED95E0D4
:1009A0000E944D018CED95E090931102809310020E
:1009B00081E090E090930F0280930E0290E0292E48
:1009C00090E0392E88248394912CCCEDD5E00FEF64
:1009D0001FEF30EDA32E37E0B32EE0901002F09021
:1009E0001102C7010E944D0120910E0230910F02A9
:1009F0004AE0429FC001439F900D1124E80EF91E6A
:100A0000F0921102E092100280EDE81687E0F806FD
:100A10000CF45FC010930F0200930E02B09211020B
:100A2000A09210020E940F022B013C0182E3C82E0B
:100A3000D12CE12CF12C0E940F0264197509860952
:100A40009709683E734081059105A8F341E0C41AF7
:100A5000D108E108F10888EE480E83E0581E611CB9
:100A6000711CC114D104E104F10429F721143104EB
:100A700009F4B3CF0E940000B0CF823061F410922D
:100A8000900080939100109295001092940088BB82
:100A90008093710075CF833069F41092A00082E0DA
:100AA0008093A1001092A5001092A40089BB8093AE
:100AB000720066CF811164CF1092200182E0809392
:100AC000210110922501109224018ABB80937300AA
:100AD00057CF2DEDE21625E0F2060CF0A3CF909251
:100AE0000F0280920E02D0931102C09310029ACF8F
:100AF00080910002803398F491E0980F9093000267
:100B00008093120290E0FC01EE0FFF1FE80FF91F27
:100B1000EB5EFD4F88EB9BE09283818308958FEF1E
:100B2000809312020895991B79E004C0991F9617CB
:100B300008F0961B881F7A95C9F780950895EE0FE7
:100B4000FF1F881F8BBF0790F691E02D1994F89432
:020B5000FFCFD5
:00000001FF
