:100000000C9430010C9461010C9461010C94610119
:100010000C9461010C9461010C9461010C946101D8
:100020000C9461010C9461010C9461010C946101C8
:100030000C9461010C9461010C9461010C946101B8
:100040000C9461010C94B7040C9461010C9461014F
:100050000C9461010C9461010C9461010C94E30314
:100060000C9461010C9461010C9461010C94610188
:100070000C9461010C9461010C9461010C94610178
:100080000C9489040C9461010C9461010C9461013D
:100090000C9461010C9461010C9461010C94610158
:1000A0000C9461010C9461010C945B040C9461014B
:1000B0000C9461010C9461010C9461010C942D0469
:1000C0000C9461010C9461010C9461010C94610128
:1000D0000C9461010C9461010C9461010C94610118
:1000E0000C9461010C941A020C9422020C94F702F5
:1000F0000C9459020C943D020C9455020C94470246
:100100000C9429020C944B020C941E020C944F0286
:100110000C9439020C942F020C94B7020C945402E4
:100120000C9433020C9414020C94DD070C947408A4
:100130000C9486020C9426020C94410200002100CB
:10014000240027002A002D003000330001010000A8
:10015000040107010A0100002200250028002B00ED
:100160002E003100340002010000050108010B01DE
:10017000000020002300260029002C002F00320060
:100180000001000003010601090105050505070539
:1001900008080808020202020A0A08080404040403
:1001A000010101010101010103030303030303032F
:1001B000040707070C0C0C0C0C0C0C0C02020202BE
:1001C00006060606060606060B0B0B0B0B0B0B0BA7
:1001D0000102102020080810204010204080020159
:1001E000020108040201010204081020408080403E
:1001F000201008040201800402018040201008043D
:1002000002010804020101020408102040800102DA
:1002100004081020408000000A0B02090C0D0E0893
:1002200007030401000000000000000000000000BF
:1002300000000000000000000000000000000000BE
:10024000000012111000000000000000000000007B
:10025000000000000000000000000000DD0774083E
:1002600011241FBECFEFD1E2DEBFCDBF00E00CBF37
:1002700012E0A0E0B2E0E8E9F6E100E00BBF02C066
:1002800007900D92AA32B107D9F723E0AAE2B2E0B3
:1002900001C01D92A434B207E1F711E0CFE2D1E032
:1002A00000E006C021970109802FFE010E94150978
:1002B000CE32D10780E00807A9F70E94E5040C942C
:1002C0003A0B0C94000096E0899FD0011124A553AD
:1002D000BD4F90967C936E935F9791E091969C931F
:1002E0009197E0913803F091390390913703992366
:1002F00039F0309751F0811108C08091E7021994CC
:10030000309719F05C968C91FACF0895CF92DF92D6
:10031000EF92FF920F931F9396E0899FF0011124B3
:10032000E553FD4F11A2278D30A12130310551F148
:1003300078F02230310509F451C02330310509F439
:1003400052C01F910F91FF90EF90DF90CF900895D2
:100350006623B9F361E070E00E9463012FB7F8945F
:100360008091C7029091C802A091C902B091CA02BF
:100370002FBF8093230390932403A0932503B0936E
:100380002603DFCF9FB7F894C090C702D090C80271
:10039000E090C902F090CA029FBF00912303109120
:1003A00024032091250330912603C01AD10AE20AC2
:1003B000F30A009135031091360330E020E00C156C
:1003C0001D052E053F0550F462E070E01F910F916E
:1003D000FF90EF90DF90CF900C9463016111B1CF4B
:1003E00063E070E0F3CF70E060E0F0CF81508231E5
:1003F00008F05AC0E82FF0E08827EE5FFD4F8F4FDE
:100400000C9415092202260214021A021E0254023A
:1004100029022F02330239023D02410247024B02F8
:1004200054024F0255025902809180008F778093C9
:1004300080000895809180008F7DF9CF80918000A9
:10044000877FF5CF84B58F7784BD089584B58F7D80
:10045000FBCF8091B0008F778093B000089580919A
:10046000B0008F7DF9CF809190008F7780939000BE
:100470000895809190008F7DF9CF80919000877FC3
:10048000F5CF8091A0008F778093A0000895809190
:10049000A0008F7DF9CF8091A000877FF5CF80915C
:1004A00020018F77809320010895809120018F7D16
:1004B000F9CF80912001877FF5CFCF93DF93282F4D
:1004C00030E0F901EA5EFD4F8491F901E053FE4FFF
:1004D000D491F901E657FE4FC491CC23A1F08111CC
:1004E0000E94F601EC2FF0E0EE0FFF1FE059FE4FE7
:1004F000A591B491EC91ED2381E090E009F480E0C6
:10050000DF91CF91089580E090E0FACF862F0C9490
:100510005D021F93CF93DF93282F30E0F901EA5E4D
:10052000FD4F8491F901E053FE4FD491F901E65754
:10053000FE4FC491CC23A9F0162F81110E94F60121
:10054000EC2FF0E0EE0FFF1FEA5AFE4FA591B49199
:100550008FB7F894EC91111108C0D095DE23DC938D
:100560008FBFDF91CF911F910895DE2BF8CF862F9B
:10057000642F0C948902CF93DF9390E0FC01E05349
:10058000FE4F249186579E4FFC0184918823C9F029
:1005900090E0880F991FFC01E45CFE4FA591B49197
:1005A000FC01EA5AFE4FC591D49161110DC09FB76D
:1005B000F8948C91209582238C938881282328831A
:1005C0009FBFDF91CF910895623051F49FB7F894A7
:1005D0003C91822F809583238C93E8812E2BEFCF43
:1005E0008FB7F894EC912E2B2C938FBFEACF862FE8
:1005F000642F0C94BB02AF92BF92CF92DF92EF9226
:10060000FF920F931F93CF93DF936B017A01EC015D
:10061000C55DDD4F28813CE0389F8001399F100D7A
:100620001124A0902A02B12C27FF1FC0FB011182C8
:10063000108288818F5F888388819801280F311DFF
:1006400087FD3A95F6012A153B051CF488818C300C
:10065000C4F180819181049680349C4908F473C070
:10066000F60180819181049670C088819801280FDD
:10067000311D87FD3A952A153B05DCF68881A801D6
:10068000480F511D87FD5A95FA01EE0FFF1FE40F29
:10069000F51FEC5CFD4F808186FFCBCF8881F80190
:1006A000E80FF11D87FDFA95CF01EE0FFF1FE80F50
:1006B000F91FEC5CFD4F808160E08F730E9489021E
:1006C000B8CF808191812881A801420F511D27FD5B
:1006D0005A959A01FA01EE0FFF1FE20FF31FEC5C2F
:1006E000FD4F21813281820F931FF7019183808317
:1006F00088819801280F311D87FD3A95F901EE0F89
:10070000FF1FE20FF31FEC5CFD4F808186FF22C0CC
:100710008881080F111D87FD1A95F801EE0FFF1F44
:10072000E00FF11FEC5CFD4F808161E08F73DF9182
:10073000CF911F910F91FF90EF90DF90CF90BF90DE
:10074000AF900C94890280E49CE9F7019183808347
:100750008FEF8883DF91CF911F910F91FF90EF90E2
:10076000DF90CF90BF90AF900895CF93DF93EC01CF
:1007700080913A0390913B03009759F020913C03FC
:1007800030913D032C173D0720F081E0DF91CF91A0
:100790000895BE016F5F7F4F0E94490A009789F05C
:1007A00090933B0380933A03D0933D03C0933C0363
:1007B00020913E0330913F03232B39F7FC01108237
:1007C000E4CF80E0E3CF1F920F920FB60F92112477
:1007D0002F933F938F939F93AF93BF938091C702C3
:1007E0009091C802A091C902B091CA02309133021F
:1007F00023E0230F2D3758F50196A11DB11D20933D
:1008000033028093C7029093C802A093C902B093A9
:10081000CA0280912F0290913002A0913102B091D2
:1008200032020196A11DB11D80932F0290933002D8
:10083000A0933102B0933202BF91AF919F918F91FB
:100840003F912F910F900FBE0F901F90189526E8A3
:10085000230F0296A11DB11DD2CF1F920F920FB68A
:100860000F9211240BB60F922F933F934F935F93E8
:100870006F937F938F939F93AF93BF93EF93FF9368
:1008800048E251E064E271E090E080E00E94FB0207
:10089000FF91EF91BF91AF919F918F917F916F9158
:1008A0005F914F913F912F910F900BBE0F900FBE14
:1008B0000F901F9018951F920F920FB60F92112450
:1008C0000BB60F922F933F934F935F936F937F934A
:1008D0008F939F93AF93BF93EF93FF9348EA50E0BA
:1008E00064EA70E083E090E00E94FB02FF91EF91E8
:1008F000BF91AF919F918F917F916F915F914F9138
:100900003F912F910F900BBE0F900FBE0F901F9035
:1009100018951F920F920FB60F9211240BB60F92DB
:100920002F933F934F935F936F937F938F939F93F7
:10093000AF93BF93EF93FF9348E950E064E970E011
:1009400082E090E00E94FB02FF91EF91BF91AF9196
:100950009F918F917F916F915F914F913F912F91D7
:100960000F900BBE0F900FBE0F901F9018951F9207
:100970000F920FB60F9211240BB60F922F933F9345
:100980004F935F936F937F938F939F93AF93BF9397
:10099000EF93FF9348E850E064E870E081E090E076
:1009A0000E94FB02FF91EF91BF91AF919F918F91B8
:1009B0007F916F915F914F913F912F910F900BBE5F
:1009C0000F900FBE0F901F901895CF93DF931F923B
:1009D0001F92CDB7DEB7789484B5826084BD84B5AC
:1009E000816084BD85B5826085BD85B5816085BD2A
:1009F00080916E00816080936E00109281008091E2
:100A00008100826080938100809181008160809369
:100A10008100809180008160809380008091B1008E
:100A200084608093B1008091B00081608093B000B9
:100A3000809191008260809391008091910081600B
:100A400080939100809190008160809390008091CC
:100A5000A10082608093A1008091A10081608093B9
:100A6000A1008091A00081608093A000809121016D
:100A70008260809321018091210181608093210116
:100A80008091200181608093200180917A008460B0
:100A900080937A0080917A00826080937A008091BE
:100AA0007A00816080937A0080917A0080688093D8
:100AB0007A001092C1008091C402803308F052C0C5
:100AC00061E082E00E94BB028091C402282F30E0E6
:100AD000F901EE0FFF1FE20FF31FEC5CFD4F908159
:100AE000907C926090831092C5021092C6022CE016
:100AF000622F0E940909829FB001112430E020E09A
:100B0000AB01420F531FFA01EE0FFF1FE40FF51F59
:100B1000EC5CFD4F908196FD17C02F5F3F4F2C304E
:100B2000310571F7813009F05EC01092800082E0DB
:100B3000809381001092850010928400B19A809178
:100B40006F00826080936F00E091C4028E2F90E06E
:100B5000FC01EE0FFF1FE80FF91FEC5CFD4F8081D9
:100B600080648083B7E02B2EB3E03B2E18E6412E45
:100B700055245394612C712C81E0809337038FB7F7
:100B8000F8944091C7025091C8026091C9027091D7
:100B9000CA028FBF8091270390912803A091290357
:100BA000B0912A03481B590B6A0B7B0B80913303CE
:100BB00090913403B0E0A0E084179507A607B7072B
:100BC00008F04AC110E0809131031817C0F5E09198
:100BD0002D03F0912E03E10FF11D62E080810E9450
:100BE000BB021F5FF0CF823061F4109290008093BF
:100BF0009100109295001092940088BB8093710030
:100C0000A3CF833069F41092A00082E08093A1000A
:100C10001092A5001092A40089BB8093720094CF1B
:100C2000811192CF1092200182E0809321011092D5
:100C30002501109224018ABB8093730085CFF12C8B
:100C400080913203F81608F063C0CF2CD12CE091CC
:100C50002F03F0913003EC0DFD1D61E080810E94B7
:100C6000BB02E0912F03F0913003EC0DFD1D60E01D
:100C700080810E94890281E090E0A0E0B0E00F2C2A
:100C800004C0880F991FAA1FBB1F0A94D2F74C01FA
:100C90005C01A094B094E12C80913103E81608F532
:100CA0000E2D10E0E0912D03F0912E03E00FF11FC7
:100CB00080810E945D020C5F1F4F000F111FF80121
:100CC000E553FD4F892B41F4808191818829992931
:100CD00091838083E394E0CF808191818A219B215D
:100CE000F7CFE0912F03F0913003EC0DFD1D61E093
:100CF00080810E94890280912F0390913003C80E59
:100D0000D91E60E0F60180810E94BB02F39498CF67
:100D1000FBECCF2EF2E0DF2E8601F801878D90A14B
:100D2000892B31F4148E2FEF3FEF368F258F11A2D0
:100D30000A5F1F4F2016310681F7F12C8091310395
:100D4000F81608F053C0E12CAF2CB12CAA0CBB1C38
:100D5000C5018D529D4F5C0120913203E21608F0CF
:100D600043C0F501608171810E2C02C076956795B4
:100D70000A94E2F7F29E900111242E0D311DEBEC46
:100D8000F2E080E0458D568D2417350709F408C13F
:100D90008F5F36968A30B1F760FF24C0EBECF2E04B
:100DA00090E080E0448D411118C0E0912B03F09158
:100DB0002C03E20FF31F408156E0589FF001599F2A
:100DC000F00D1124E553FD4F448F368F258F10A26F
:100DD000178E61E00E94860105C0019636968A3022
:100DE000910501F7E394B8CFF394A8CF80E0F60122
:100DF00091A19111892FF6E0CF0ED11CC016D1061A
:100E0000B1F79FB7F8944091C7025091C802609122
:100E1000C9027091CA029FBF4093270350932803D1
:100E20006093290370932A038823B1F08091EC0228
:100E3000882391F08091EA029091EB02019761F48E
:100E40008091E70281110BC080E090E0892B09F4CA
:100E500093CE0E94000090CE10923703F5CF282F3A
:100E6000082E000C330B205331092A30310508F0CD
:100E700099C089831A8200913E0310913F030F5F4E
:100E80001F4FC8010E94B5038823F1F220913A0355
:100E900030913B0380913E0390913F03BE016F5F11
:100EA0007F4F820F931F0E94330B10933F030093D9
:100EB0003E03CACF0E947D08693621E0720708F020
:100EC00048C01091C402103308F043C0DB0128EE83
:100ED00033E00E941D09A30192010E94B908690133
:100EE0007A0188EEC80E83E0D81EE11CF11C8091C7
:100EF000C502E8E8F0E0E81BF10987FDF395CF01B2
:100F0000880F991F880F991FC816D9068CF08091F9
:100F1000C60228E532E0281B310987FD3395C90157
:100F2000880F991F880F991FC816D9060CF4C6019F
:100F30000297880F991F4FB7F894212F30E0F901DD
:100F4000EE0FFF1FE20FF31FEC5CFD4F92838183D6
:100F50004FBF90E080E00E94B50320913A033091AA
:100F60003B03811113C02115310519F0C9010E94FD
:100F7000C00910923B0310923A0310923F03109263
:100F80003E0310923D0310923C035ECF10923F034C
:100F900010923E0368E272E0C9010E94330B54CF05
:100FA000617018CF80913A0390913B03009709F04C
:100FB00081CF60E070E0CB017FCF80912A02803347
:100FC00008F085C091E0980F90932A028093C402A4
:100FD00090E0FC01EE0FFF1FE80FF91FEC5CFD4FE6
:100FE00088EB9BE0928381831092CD021092D10214
:100FF0001092D0021092D20282E292E09093CC0240
:101000008093CB02E7EEF2E0108214821382158205
:10101000369683E0E332F807B9F784E092E09093E4
:101020002E0380932D0380E092E090933003809311
:101030002F0384E0809331038093320388E092E0B1
:1010400090932C0380932B038AE090E090933403D9
:101050008093330384EF91E09093360380933503BC
:10106000109239031092380310922703109228032C
:101070001092290310922A031092370310923B0317
:1010800010923A0310923D0310923C0310923F03DA
:1010900010923E0390E080E00E94B50320913A0355
:1010A00030913B03811117C02115310519F0C90199
:1010B0000E94C00910923B0310923A0310923F0322
:1010C00010923E0310923D0310923C0308958FEF5F
:1010D0008093C40289CF10923F0310923E0368E2CE
:1010E00072E0C9010C94330B80913A0390913B0359
:1010F000009711F00C94C00908951F93FC019927E3
:101100008827BC01E89411911032E9F3193010F0EE
:101110001E30C8F31B3251F01D3249F4689406C0EA
:101120000E94A408610F711D811D911D1191105322
:101130001A30B0F33EF490958095709561957F4F8D
:101140008F4F9F4F1F910895592F482F372F262FCC
:10115000660F771F881F991F660F771F881F991FBB
:10116000620F731F841F951F660F771F881F991FBB
:101170000895052E97FB1EF400940E94D00857FD99
:1011800007D00E94D80807FC03D04EF40C94D00876
:1011900050954095309521953F4F4F4F5F4F0895A3
:1011A00090958095709561957F4F8F4F9F4F0895D3
:1011B000A1E21A2EAA1BBB1BFD010DC0AA1FBB1F5B
:1011C000EE1FFF1FA217B307E407F50720F0A21BCD
:1011D000B30BE40BF50B661F771F881F991F1A943A
:1011E00069F760957095809590959B01AC01BD0164
:1011F000CF010895A29FB001B39FC001A39F700DBE
:10120000811D1124911DB29F700D811D1124911D0E
:101210000895991B79E004C0991F961708F0961B52
:10122000881F7A95C9F780950895EE0FFF1F881FD4
:101230008BBF0790F691E02D19940E94FA08B7FF32
:101240000895821B930B08950F931F93CF93DF9301
:101250008230910510F482E090E0E0914203F09139
:10126000430330E020E0B0E0A0E0309799F421158E
:10127000310509F44AC0281B390B24303105D8F553
:101280008A819B816115710589F1FB0193838283BA
:10129000FE0111C040815181028113814817590715
:1012A000E0F04817590799F4109761F012960C93E3
:1012B000129713961C933296CF01DF91CF911F9115
:1012C0000F9108950093420310934303F4CF211527
:1012D000310551F04217530738F0A901DB019A019B
:1012E000BD01DF01F801C1CFEF01F9CF90934303B6
:1012F00080934203CDCFFE01E20FF31F81939193C0
:101300002250310939832883D7CF2091400330916F
:101310004103232B41F420911A0230911B02309398
:1013200041032093400320911802309119022115A6
:10133000310541F42DB73EB740911C0250911D027A
:10134000241B350BE0914003F0914103E217F307B2
:10135000A0F42E1B3F0B2817390778F0AC014E5F25
:101360005F4F2417350748F04E0F5F1F509341031E
:1013700040934003819391939FCFF0E0E0E09CCFB6
:10138000CF93DF930097E9F0FC013297138212822A
:10139000A0914203B0914303ED0130E020E01097AB
:1013A000A1F420813181820F931F2091400330915D
:1013B00041032817390709F061C0F0934103E09316
:1013C0004003DF91CF910895EA01CE17DF07E8F5DA
:1013D0004A815B819E0141155105B1F7E901FB830B
:1013E000EA8349915991C40FD51FEC17FD0761F4A9
:1013F000808191810296840F951FE90199838883EA
:10140000828193819B838A83F0E0E0E012968D9144
:101410009C9113970097B9F52D913C911197CD01AF
:101420000296820F931F20914003309141032817A9
:10143000390739F6309751F5109243031092420361
:10144000B0934103A0934003BCCFD383C2834081B8
:101450005181840F951FC817D90761F44E5F5F4F04
:1014600088819981480F591F518340838A819B81CC
:10147000938382832115310509F0B0CFF0934303A4
:10148000E09342039ECFFD01DC01C0CF13821282A4
:10149000D7CF4F925F926F927F928F929F92AF922F
:1014A000BF92CF92DF92EF92FF920F931F93CF9351
:1014B000DF938C01009799F4CB01DF91CF911F91BD
:1014C0000F91FF90EF90DF90CF90BF90AF909F90E3
:1014D0008F907F906F905F904F900C942409FC0147
:1014E000E60FF71F9C0122503109E217F30708F4B9
:1014F000AEC0D901CD91DC911197C617D70720F165
:10150000C530D10578F0CE0104978617970750F0C3
:10151000C61BD70B2297C193D1936D937C93CF01B8
:101520000E94C009C801DF91CF911F910F91FF90D8
:10153000EF90DF90CF90BF90AF909F908F907F9073
:101540006F905F904F9008955B01AC1ABD0A4C01FB
:101550008C0E9D1EA0914203B0914303512C412C4F
:10156000F12CE12C109731F58091400390914103CB
:101570008815990509F05CC04616570608F058C052
:101580008091180290911902009741F48DB79EB78F
:1015900040911C0250911D02841B950BE817F9071E
:1015A00008F055C0F0934103E0934003F9017183C3
:1015B0006083B8CF8D919C91119712966C90129781
:1015C00013967C901397A815B90559F56C0142E064
:1015D000C40ED11CCA14DB0420F1AC014A195B090A
:1015E000DA011296159780F06282738251834083EC
:1015F000D9016D937C93E114F10471F0D701139636
:10160000FC93EE9312978ECF22968C0F9D1FF901BB
:1016100091838083F301EFCFF0934303E093420380
:1016200081CF4816590608F42C017D01D3019ACFC9
:10163000CB010E9424097C01009749F0AE01B8015A
:101640000E942A0BC8010E94C00987016BCF10E0DD
:1016500000E068CFFB01DC0102C001900D92415017
:101660005040D8F70895FB01DC0101900D92002055
:10167000E1F7089511E0CFE2D1E000E006C0802F4D
:10168000FE010E9415092196011DC033D10780E09B
:081690000807A9F7F894FFCF49
:101698001A1B1C1D161718193738392F3435362AD6
:1016A8003132332D43303D2B0000440380000000CD
:0A16B8000000F702B70286020000EE
:00000001FF
