:100000000C942B010C945C010C945C010C945C012D
:100010000C945C010C945C010C945C010C945C01EC
:100020000C945C010C945C010C945C010C945C01DC
:100030000C945C010C945C010C945C010C945C01CC
:100040000C945C010C94BE050C945C010C945C0156
:100050000C945C010C945C010C945C010C948A047B
:100060000C945C010C94FE040C94D4040C945C017C
:100070000C945C010C945C010C945C010C945C018C
:100080000C9490050C945C010C945C010C945C0144
:100090000C945C010C945C010C945C010C945C016C
:1000A0000C945C010C945C010C9462050C945C0152
:1000B0000C945C010C945C010C945C010C94340570
:1000C0000C945C010C945C010C945C010C945C013C
:1000D0000C945C010C945C010C945C010C945C012C
:1000E0000C945C010C9424030C942A020C94770267
:1000F0000C94F2010C941E030C9444030C942E03F4
:100100000C9436030C944A030C944E030C94E401B3
:100110000C9440030C943C030C94EC050C94F802F2
:100120000C94FD020C941B030C9417030C94C10156
:100130000C940F030C9494010C946E080C9413030C
:100140000C9432030C9428030C94D00100000A0B89
:1001500002090C0D0E080703040100000000000056
:10016000000000000000000000000000000000008F
:10017000000000000000000012111000000000004C
:10018000000000000000000000000000000000006F
:10019000000000002200250028002B002E00310066
:1001A000340002010000050108010B0100002100DC
:1001B000240027002A002D00300033000101000038
:1001C000040107010A0105050505070508080808D7
:1001D000020202020A0A08080404040401010101DF
:1001E00001010101030303030303030304070707DA
:1001F0000C0C0C0C0C0C0C0C02020202060606067F
:10020000060606060B0B0B0B0B0B0B0B010210204B
:10021000200808102040102040800201020108043C
:1002200002010102040810204080804020100804D0
:100230000201800402018040201008040201080429
:10024000020101020408102040800102040810206D
:100250004080EC056E0811241FBECFEFD1E2DEBF57
:10026000CDBF00E00CBF12E0A0E0B2E0ECE8F6E1A8
:1002700000E00BBF02C007900D92AA31B107D9F779
:1002800023E0AAE1B2E001C01D92A436B207E1F773
:1002900011E0CAE2D1E000E006C021970109802FF9
:1002A000FE010E940F09C932D10780E00807A9F7B3
:1002B0000E947B060C94340B0C940000E0915703D1
:1002C000E03388F54091580328E830E0241B3109D9
:1002D00047FD3395220F331F220F331F82179307D9
:1002E00084F04091590328E532E0241B310947FD91
:1002F0003395220F331F220F331F821793070CF4FD
:100300009C0122503109220F331F4FB7F8948E2FD2
:1003100090E0FC01EE0FFF1FE80FF91FEA53FD4FBD
:10032000328321834FBF0895AF92BF92CF92DF9265
:10033000EF92FF920F931F93CF93DF936C017B019A
:100340008B01040F151FEB015E01AE18BF08C0172B
:10035000D10759F06991D601ED91FC910190F0819E
:10036000E02DC6011995892B79F7C501DF91CF9151
:100370001F910F91FF90EF90DF90CF90BF90AF90C3
:100380000895FC01538D448D252F30E0842F90E09B
:10039000821B930B541710F0CF9608950197089580
:1003A000FC01918D828D981761F0A28DAE0FBF2F49
:1003B000B11D5D968C91928D9F5F9F73928F90E09F
:1003C00008958FEF9FEF0895FC01918D828D98170E
:1003D00031F0828DE80FF11D858D90E008958FEF4B
:1003E0009FEF0895FC01918D228D892F90E0805C14
:1003F0009F4F821B91098F739927089589E292E09C
:100400000E94F20121E0892B09F420E0822F089557
:10041000FC01A48DA80FB92FB11DA35ABF4F2C9179
:10042000848D90E001968F739927848FA689B78970
:100430002C93A089B1898C91837080648C93938D67
:10044000848D981306C00288F389E02D80818F7D0A
:1004500080830895EF92FF920F931F93CF93DF93C2
:10046000EC0181E0888F9B8D8C8D98131AC0E889F0
:10047000F989808185FF15C09FB7F894EE89FF89BF
:100480006083E889F98980818370806480839FBF5D
:1004900081E090E0DF91CF911F910F91FF90EF905D
:1004A0000895F62E0B8D10E00F5F1F4F0F7311276D
:1004B000E02E8C8D8E110CC00FB607FCFACFE889A8
:1004C000F989808185FFF5CFCE010E940802F1CF26
:1004D000EB8DEC0FFD2FF11DE35AFF4FF0829FB71C
:1004E000F8940B8FEA89FB8980818062CFCFCF930C
:1004F000DF93EC01888D8823B9F0AA89BB89E8894C
:10050000F9898C9185FD03C0808186FD0DC00FB6F1
:1005100007FCF7CF8C9185FFF2CF808185FFEDCF6F
:10052000CE010E940802E9CFDF91CF91089580E0CB
:1005300090E0892B29F00E94FE0181110E940000A9
:1005400080E090E0892B49F080E090E0892B29F051
:100550000E94000081110E94000080E090E0892B41
:1005600049F080E090E0892B29F00E940000811181
:100570000E94000080E090E0892B49F080E090E04C
:10058000892B29F00E94000081110C94000008952D
:10059000282F30E0F901E45BFE4F9491F901E45F0C
:1005A000FD4F44912A533E4FF9012491222309F42F
:1005B00035C0992311F191509231F8F4E92FF0E010
:1005C0008827EA51FD4F8F4F0C940F0917031B0327
:1005D000F8020F031303FD021E03240328032E0356
:1005E000320336033C034003FD0244034A034E0337
:1005F000809180008F7780938000E22FF0E0EE0FF3
:10060000FF1FEE56FE4FA591B4918FB7F894EC9171
:10061000611148C040954E234C938FBF089580913F
:1006200080008F7DE8CF80918000877FE4CF84B504
:100630008F7784BDE2CF84B58F7DFBCF8091B000F2
:100640008F778093B000D9CF8091B0008F7DF9CFA4
:10065000809190008F7780939000CFCF8091900011
:100660008F7DF9CF80919000877FF5CF8091A0009A
:100670008F778093A000C1CF8091A0008F7DF9CFAC
:100680008091A000877FF5CF809120018F778093A4
:100690002001B3CF809120018F7DF9CF809120017F
:1006A000877FF5CF4E2BB8CFAF92BF92CF92DF921C
:1006B000EF92FF920F931F93CF93DF936B017A0119
:1006C000EC01C65EDD4F28813CE0389F8001399FF8
:1006D000100D1124A0905603B12C27FF1FC0FB0161
:1006E0001182108288818F5F888388819801280F0A
:1006F000311D87FD3A95F6012A153B051CF48881CA
:100700008C30C4F180819181049680349C4908F436
:1007100073C0F60180819181049670C08881980130
:10072000280F311D87FD3A952A153B05DCF6888197
:10073000A801480F511D87FD5A95FA01EE0FFF1FC2
:10074000E40FF51FEA53FD4F808186FFCBCF8881F0
:10075000F801E80FF11D87FDFA95CF01EE0FFF1F9D
:10076000E80FF91FEA53FD4F808160E08F730E940C
:10077000C802B8CF808191812881A801420F511D04
:1007800027FD5A959A01FA01EE0FFF1FE20FF31FA2
:10079000EA53FD4F21813281820F931FF70191832C
:1007A000808388819801280F311D87FD3A95F901D2
:1007B000EE0FFF1FE20FF31FEA53FD4F808186FF0C
:1007C00022C08881080F111D87FD1A95F801EE0FD0
:1007D000FF1FE00FF11FEA53FD4F808161E08F732F
:1007E000DF91CF911F910F91FF90EF90DF90CF900D
:1007F000BF90AF900C94C80280E49CE9F70191830C
:1008000080838FEF8883DF91CF911F910F91FF90AD
:10081000EF90DF90CF90BF90AF9008958F929F920E
:10082000AF92BF920F931F93CF93DF93CDB7DEB7F5
:10083000A1970FB6F894DEBF0FBECDBF19A242300C
:1008400008F44AE08E010F5D1F4F842E912CB12CCD
:10085000A12CA50194010E94D208E62FB901CA017A
:10086000EA3044F5E05DD801EE938D01232B242B73
:10087000252B79F790E080E0109769F0FD01019059
:100880000020E9F73197AF014A1B5B0BBD0189E2FC
:1008900092E00E949401A1960FB6F894DEBF0FBEBD
:1008A000CDBFDF91CF911F910F91BF90AF909F90DF
:1008B0008F900895E95CD7CFCF93DF93EC018091BF
:1008C0005A0390915B03009759F020915C0330919B
:1008D0005D032C173D0720F081E0DF91CF91089553
:1008E000BE016F5F7F4F0E94430A009789F090938B
:1008F0005B0380935A03D0935D03C0935C03209104
:100900005E0330915F03232B39F7FC011082E4CFA3
:1009100080E0E3CF1F920F920FB60F9211242F9316
:100920003F938F939F93AF93BF93809125029091B4
:100930002602A0912702B09128023091240223E0E0
:10094000230F2D3758F50196A11DB11D20932402C8
:100950008093250290932602A0932702B093280249
:100960008091200290912102A0912202B091230255
:100970000196A11DB11D8093200290932102A093A6
:100980002202B0932302BF91AF919F918F913F912B
:100990002F910F900FBE0F901F90189526E8230FF0
:1009A0000296A11DB11DD2CF1F920F920FB60F92CA
:1009B00011240BB60F922F933F934F935F936F9336
:1009C0007F938F939F93AF93BF93EF93FF9389E2AE
:1009D00092E00E940802FF91EF91BF91AF919F9129
:1009E0008F917F916F915F914F913F912F910F90D8
:1009F0000BBE0F900FBE0F901F9018951F920F9275
:100A00000FB60F9211240BB60F922F938F939F93D3
:100A1000EF93FF93E0913902F0913A028081E091E7
:100A20003F02F091400282FD1DC090818091420200
:100A30008F5F8F7320914302821741F0E091420251
:100A4000F0E0E75DFD4F958F80934202FF91EF91BB
:100A50009F918F912F910F900BBE0F900FBE0F9013
:100A60001F9018958081F2CF1F920F920FB60F92B0
:100A700011240BB60F922F933F934F935F936F9375
:100A80007F938F939F93AF93BF93EF93FF9348E22E
:100A900051E064E271E090E080E00E945403FF9135
:100AA000EF91BF91AF919F918F917F916F915F91E6
:100AB0004F913F912F910F900BBE0F900FBE0F9053
:100AC0001F9018951F920F920FB60F9211240BB61C
:100AD0000F922F933F934F935F936F937F938F93D7
:100AE0009F93AF93BF93EF93FF9348EA50E064EA7C
:100AF00070E083E090E00E945403FF91EF91BF917A
:100B0000AF919F918F917F916F915F914F913F91A5
:100B10002F910F900BBE0F900FBE0F901F90189546
:100B20001F920F920FB60F9211240BB60F922F93B4
:100B30003F934F935F936F937F938F939F93AF9365
:100B4000BF93EF93FF9348E950E064E970E082E0DF
:100B500090E00E945403FF91EF91BF91AF919F915C
:100B60008F917F916F915F914F913F912F910F9056
:100B70000BBE0F900FBE0F901F9018951F920F92F3
:100B80000FB60F9211240BB60F922F933F934F93F2
:100B90005F936F937F938F939F93AF93BF93EF93E5
:100BA000FF9348E850E064E870E081E090E00E9444
:100BB0005403FF91EF91BF91AF919F918F917F91DE
:100BC0006F915F914F913F912F910F900BBE0F90BE
:100BD0000FBE0F901F90189510922C0210922B02AE
:100BE00088EE93E0A0E0B0E080932D0290932E0277
:100BF000A0932F02B09330028AE092E090932A02F1
:100C00008093290285EC90E0909336028093350220
:100C100084EC90E0909338028093370280EC90E06F
:100C200090933A028093390281EC90E090933C02D9
:100C300080933B0282EC90E090933E0280933D02D1
:100C400086EC90E09093400280933F021092420223
:100C500010924302109244021092450210925B03DC
:100C600010925A0310925D0310925C0310925F037E
:100C700010925E0390E080E00E945C0420915A0391
:100C800030915B03811129C02115310519F0C9018B
:100C90000E94BA0910925B0310925A0310925F03EC
:100CA00010925E0310925D0310925C0380915603D4
:100CB0008033E8F491E0980F9093560380935703A4
:100CC00090E0FC01EE0FFF1FE80FF91FEA53FD4F04
:100CD00088EB9BE092838183089510925F031092CA
:100CE0005E0368E172E0C9010E942D0BDFCF8FEF38
:100CF000809357030895CF93DF931F921F92CDB730
:100D0000DEB7789484B5826084BD84B5816084BD8B
:100D100085B5826085BD85B5816085BD80916E0099
:100D2000816080936E0010928100809181008260CA
:100D30008093810080918100816080938100809107
:100D400080008160809380008091B10084608093F6
:100D5000B1008091B00081608093B00080919100DB
:100D600082608093910080919100816080939100D6
:100D7000809190008160809390008091A1008260BA
:100D80008093A1008091A10081608093A100809157
:100D9000A00081608093A0008091210182608093F7
:100DA00021018091210181608093210180912001A6
:100DB00081608093200180917A00846080937A0022
:100DC00080917A00826080937A0080917A008160BD
:100DD00080937A0080917A00806880937A001092E4
:100DE000C100E0913902F0913A0282E08083E09103
:100DF0003502F09136021082E0913702F09138020C
:100E00008FEC808310924102E0913D02F0913E020E
:100E100086E08083E0913B02F0913C02808180611A
:100E20008083E0913B02F0913C0280818860808366
:100E3000E0913B02F0913C02808180688083E091E8
:100E40003B02F0913C0280818F7D8083809157032B
:100E5000803308F069C0EEE0F2E02491E8ECF1E0C4
:100E60008491882399F090E0880F991FFC01E45544
:100E7000FE4FA591B491FC01EE56FE4F85919491E1
:100E80008FB7F894EC91E22BEC938FBF80915703CE
:100E9000282F30E0F901EE0FFF1FE20FF31FEA5396
:100EA000FD4F9081907C9260908310925803109235
:100EB00059032CE0622F0E940309829FB001112484
:100EC00030E020E0AB01420F531FFA01EE0FFF1F8D
:100ED000E40FF51FEA53FD4F908196FD17C02F5F79
:100EE0003F4F2C30310571F7813009F09AC01092D4
:100EF000800082E08093810010928500109284002F
:100F0000B19A80916F00826080936F00E0915703E7
:100F10008E2F90E0FC01EE0FFF1FE80FF91FEA5340
:100F2000FD4F80818064808384EB90E090931F026A
:100F300080931E028CED95E00E945E0188E6882E6B
:100F400099249394A12CB12C89E292E00E94F201A1
:100F5000181619060CF062C089E292E00E94D001D6
:100F60008D3009F098C080915A0390915B030097EF
:100F700009F483C00E947708A0911E02B0911F025D
:100F8000A61BB70BB0931F02A0931E026D010B2E80
:100F9000000CEE08FF0828EE33E00E941709A501B7
:100FA00094010E94B30829013A0188EE480E83E0BB
:100FB000581E611C711C4AE0C701B601F7FE0DC046
:100FC0006DE289E292E00E942A0266277727CB0130
:100FD0006C197D098E099F094AE00E940E04C20126
:100FE0000E945E0190E080E00E945C0420915A0320
:100FF00030915B03811145C02115310519F0C901FC
:101000000E94BA0910925B0310925A0310925F0378
:1010100010925E0310925D0310925C030E9497028F
:1010200093CF823061F410929000809391001092DF
:1010300095001092940088BB8093710067CF833035
:1010400069F41092A00082E08093A1001092A500A4
:101050001092A40089BB8093720058CF811156CFA3
:101060001092200182E080932101109225011092BC
:1010700024018ABB8093730049CF60E070E0CB010C
:101080007BCF10925F0310925E0368E172E0C901AA
:101090000E942D0BC3CF89831A82E0905E03F090EB
:1010A0005F038FEFE81AF80AC7010E945C048823E7
:1010B00009F4B4CF20915A0330915B0380915E0311
:1010C00090915F03BE016F5F7F4F820F931F0E945D
:1010D0002D0BF0925F03E0925E03A0CF80915A0344
:1010E00090915B03009711F00C94BA0908951F9337
:1010F000FC0199278827BC01E89411911032E9F38B
:10110000193010F01E30C8F31B3251F01D3249F473
:10111000689406C00E949E08610F711D811D911D7B
:10112000119110531A30B0F33EF49095809570955C
:1011300061957F4F8F4F9F4F1F910895592F482FD3
:10114000372F262F660F771F881F991F660F771F6F
:10115000881F991F620F731F841F951F660F771FCB
:10116000881F991F0895052E97FB1EF400940E9476
:10117000CA0857FD07D00E94D20807FC03D04EF4DE
:101180000C94CA0850954095309521953F4F4F4F8C
:101190005F4F089590958095709561957F4F8F4F23
:1011A0009F4F0895A1E21A2EAA1BBB1BFD010DC083
:1011B000AA1FBB1FEE1FFF1FA217B307E407F50707
:1011C00020F0A21BB30BE40BF50B661F771F881FE3
:1011D000991F1A9469F760957095809590959B0179
:1011E000AC01BD01CF010895A29FB001B39FC00122
:1011F000A39F700D811D1124911DB29F700D811D43
:101200001124911D0895991B79E004C0991F961728
:1012100008F0961B881F7A95C9F780950895EE0F00
:10122000FF1F881F8BBF0790F691E02D19940E9435
:10123000F408B7FF0895821B930B08950F931F9333
:10124000CF93DF938230910510F482E090E0E0913B
:101250006203F091630330E020E0B0E0A0E030975B
:1012600099F42115310509F44AC0281B390B2430A3
:101270003105D8F58A819B816115710589F1FB01E2
:1012800093838283FE0111C04081518102811381C9
:1012900048175907E0F04817590799F4109761F07B
:1012A00012960C93129713961C933296CF01DF91EE
:1012B000CF911F910F9108950093620310936303E0
:1012C000F4CF2115310551F04217530738F0A90129
:1012D000DB019A01BD01DF01F801C1CFEF01F9CFB8
:1012E0009093630380936203CDCFFE01E20FF31F5F
:1012F000819391932250310939832883D7CF20914C
:10130000600330916103232B41F42091020230915C
:101310000302309361032093600320910002309117
:1013200001022115310541F42DB73EB74091040269
:1013300050910502241B350BE0916003F09161038D
:10134000E217F307A0F42E1B3F0B2817390778F09C
:10135000AC014E5F5F4F2417350748F04E0F5F1FFB
:101360005093610340936003819391939FCFF0E08A
:10137000E0E09CCFCF93DF930097E9F0FC01329738
:1013800013821282A0916203B0916303ED0130E0F9
:1013900020E01097A1F420813181820F931F2091CA
:1013A0006003309161032817390709F061C0F09399
:1013B0006103E0936003DF91CF910895EA01CE17B6
:1013C000DF07E8F54A815B819E0141155105B1F7C0
:1013D000E901FB83EA8349915991C40FD51FEC17AA
:1013E000FD0761F4808191810296840F951FE901C8
:1013F00099838883828193819B838A83F0E0E0E0F4
:1014000012968D919C9113970097B9F52D913C916F
:101410001197CD010296820F931F209160033091A6
:1014200061032817390739F6309751F51092630395
:1014300010926203B0936103A0936003BCCFD38387
:10144000C28340815181840F951FC817D90761F469
:101450004E5F5F4F88819981480F591F51834083A8
:101460008A819B81938382832115310509F0B0CF56
:10147000F0936303E09362039ECFFD01DC01C0CFD4
:1014800013821282D7CF4F925F926F927F928F9288
:101490009F92AF92BF92CF92DF92EF92FF920F9303
:1014A0001F93CF93DF938C01009799F4CB01DF91C9
:1014B000CF911F910F91FF90EF90DF90CF90BF9051
:1014C000AF909F908F907F906F905F904F900C9413
:1014D0001E09FC01E60FF71F9C0122503109E2179B
:1014E000F30708F4AEC0D901CD91DC911197C6176E
:1014F000D70720F1C530D10578F0CE0104978617C3
:10150000970750F0C61BD70B2297C193D1936D93C9
:101510007C93CF010E94BA09C801DF91CF911F913E
:101520000F91FF90EF90DF90CF90BF90AF909F9082
:101530008F907F906F905F904F9008955B01AC1AF1
:10154000BD0A4C018C0E9D1EA0916203B0916303F5
:10155000512C412CF12CE12C109731F58091600336
:10156000909161038815990509F05CC046165706ED
:1015700008F058C08091000290910102009741F458
:101580008DB79EB74091040250910502841B950BC4
:10159000E817F90708F055C0F0936103E093600382
:1015A000F90171836083B8CF8D919C911197129648
:1015B0006C90129713967C901397A815B90559F55E
:1015C0006C0142E0C40ED11CCA14DB0420F1AC0152
:1015D0004A195B09DA011296159780F062827382CC
:1015E00051834083D9016D937C93E114F10471F030
:1015F000D7011396FC93EE9312978ECF22968C0F01
:101600009D1FF90191838083F301EFCFF093630372
:10161000E093620381CF4816590608F42C017D013E
:10162000D3019ACFCB010E941E097C01009749F09B
:10163000AE01B8010E94240BC8010E94BA098701BB
:101640006BCF10E000E068CFFB01DC0102C001902D
:101650000D9241505040D8F70895FB01DC010190F4
:101660000D920020E1F7089511E0CAE2D1E000E018
:1016700006C0802FFE010E940F092196011DCB326A
:0C168000D10780E00807A9F7F894FFCF1D
:10168C00000064038000000000002A029401C101E4
:0A169C007702F201D001E401000022
:00000001FF
